{
  "abi": [
    {
      "inputs": [],
      "stateMutability": "nonpayable",
      "type": "constructor"
    },
    {
      "anonymous": false,
      "inputs": [
        {
          "indexed": true,
          "internalType": "bytes32",
          "name": "dataHash",
          "type": "bytes32"
        },
        {
          "indexed": false,
          "internalType": "string",
          "name": "doctype",
          "type": "string"
        },
        {
          "indexed": false,
          "internalType": "string",
          "name": "name",
          "type": "string"
        },
        {
          "indexed": false,
          "internalType": "string",
          "name": "eventType",
          "type": "string"
        },
        {
          "indexed": false,
          "internalType": "uint256",
          "name": "timestamp",
          "type": "uint256"
        }
      ],
      "name": "DocumentRecorded",
      "type": "event"
    },
    {
      "inputs": [
        {
          "internalType": "bytes32",
          "name": "dataHash",
          "type": "bytes32"
        }
      ],
      "name": "documentExists",
      "outputs": [
        {
          "internalType": "bool",
          "name": "",
          "type": "bool"
        }
      ],
      "stateMutability": "view",
      "type": "function"
    },
    {
      "inputs": [
        {
          "internalType": "uint256",
          "name": "",
          "type": "uint256"
        }
      ],
      "name": "documentHashes",
      "outputs": [
        {
          "internalType": "bytes32",
          "name": "",
          "type": "bytes32"
        }
      ],
      "stateMutability": "view",
      "type": "function"
    },
    {
      "inputs": [
        {
          "internalType": "bytes32",
          "name": "",
          "type": "bytes32"
        },
        {
          "internalType": "uint256",
          "name": "",
          "type": "uint256"
        }
      ],
      "name": "documentHistory",
      "outputs": [
        {
          "internalType": "bytes32",
          "name": "",
          "type": "bytes32"
        }
      ],
      "stateMutability": "view",
      "type": "function"
    },
    {
      "inputs": [
        {
          "internalType": "bytes32",
          "name": "",
          "type": "bytes32"
        }
      ],
      "name": "documents",
      "outputs": [
        {
          "internalType": "string",
          "name": "doctype",
          "type": "string"
        },
        {
          "internalType": "string",
          "name": "name",
          "type": "string"
        },
        {
          "internalType": "string",
          "name": "eventType",
          "type": "string"
        },
        {
          "internalType": "uint256",
          "name": "timestamp",
          "type": "uint256"
        },
        {
          "internalType": "bytes32",
          "name": "dataHash",
          "type": "bytes32"
        },
        {
          "internalType": "address",
          "name": "recorder",
          "type": "address"
        }
      ],
      "stateMutability": "view",
      "type": "function"
    },
    {
      "inputs": [
        {
          "internalType": "bytes32",
          "name": "dataHash",
          "type": "bytes32"
        }
      ],
      "name": "getDocument",
      "outputs": [
        {
          "internalType": "string",
          "name": "doctype",
          "type": "string"
        },
        {
          "internalType": "string",
          "name": "name",
          "type": "string"
        },
        {
          "internalType": "string",
          "name": "eventType",
          "type": "string"
        },
        {
          "internalType": "uint256",
          "name": "timestamp",
          "type": "uint256"
        },
        {
          "internalType": "address",
          "name": "recorder",
          "type": "address"
        }
      ],
      "stateMutability": "view",
      "type": "function"
    },
    {
      "inputs": [],
      "name": "getDocumentCount",
      "outputs": [
        {
          "internalType": "uint256",
          "name": "",
          "type": "uint256"
        }
      ],
      "stateMutability": "view",
      "type": "function"
    },
    {
      "inputs": [
        {
          "internalType": "string",
          "name": "doctype",
          "type": "string"
        },
        {
          "internalType": "string",
          "name": "name",
          "type": "string"
        }
      ],
      "name": "getDocumentHistoryCount",
      "outputs": [
        {
          "internalType": "uint256",
          "name": "",
          "type": "uint256"
        }
      ],
      "stateMutability": "view",
      "type": "function"
    },
    {
      "inputs": [
        {
          "internalType": "string",
          "name": "doctype",
          "type": "string"
        },
        {
          "internalType": "string",
          "name": "name",
          "type": "string"
        },
        {
          "internalType": "uint256",
          "name": "index",
          "type": "uint256"
        }
      ],
      "name": "getDocumentHistoryHash",
      "outputs": [
        {
          "internalType": "bytes32",
          "name": "",
          "type": "bytes32"
        }
      ],
      "stateMutability": "view",
      "type": "function"
    },
    {
      "inputs": [],
      "name": "owner",
      "outputs": [
        {
          "internalType": "address",
          "name": "",
          "type": "address"
        }
      ],
      "stateMutability": "view",
      "type": "function"
    },
    {
      "inputs": [
        {
          "internalType": "string",
          "name": "doctype",
          "type": "string"
        },
        {
          "internalType": "string",
          "name": "name",
          "type": "string"
        },
        {
          "internalType": "string",
          "name": "eventType",
          "type": "string"
        },
        {
          "internalType": "bytes32",
          "name": "dataHash",
          "type": "bytes32"
        }
      ],
      "name": "recordDocument",
      "outputs": [
        {
          "internalType": "bool",
          "name": "success",
          "type": "bool"
        }
      ],
      "stateMutability": "nonpayable",
      "type": "function"
    }
  ],
  "devdoc": {
    "details": "Contract for storing ERPNext document hashes and metadata on blockchain",
    "kind": "dev",
    "methods": {
      "documentExists(bytes32)": {
        "details": "Check if a document hash exists",
        "params": {
          "dataHash": "The hash to check"
        },
        "returns": {
          "_0": "exists Boolean indicating if document exists"
        }
      },
      "getDocument(bytes32)": {
        "details": "Get document details by hash",
        "params": {
          "dataHash": "The hash of the document data"
        },
        "returns": {
          "doctype": "The document type",
          "eventType": "The event type that triggered recording",
          "name": "The document name/ID",
          "recorder": "Address that recorded the document",
          "timestamp": "When the document was recorded"
        }
      },
      "getDocumentCount()": {
        "details": "Get the count of documents recorded",
        "returns": {
          "_0": "count Number of documents"
        }
      },
      "getDocumentHistoryCount(string,string)": {
        "details": "Get document history length for a specific document",
        "params": {
          "doctype": "Document type",
          "name": "Document name/ID"
        },
        "returns": {
          "_0": "count Number of history entries"
        }
      },
      "getDocumentHistoryHash(string,string,uint256)": {
        "details": "Get a specific history entry hash for a document",
        "params": {
          "doctype": "Document type",
          "index": "Index in history array",
          "name": "Document name/ID"
        },
        "returns": {
          "_0": "dataHash Hash of the document at that history point"
        }
      },
      "recordDocument(string,string,string,bytes32)": {
        "details": "Record a document to the blockchain",
        "params": {
          "dataHash": "Hash of the document data",
          "doctype": "Document type from ERPNext",
          "eventType": "Event type that triggered recording",
          "name": "Document name/ID from ERPNext"
        },
        "returns": {
          "success": "Boolean indicating success"
        }
      }
    },
    "title": "ERPStorage",
    "version": 1
  },
  "evm": {
    "assembly": "    /* \"ERPStorage.sol\":173:5756  contract ERPStorage {... */\n  mstore(0x40, 0x80)\n    /* \"ERPStorage.sol\":1292:1343  constructor() {... */\n  callvalue\n  dup1\n  iszero\n  tag_1\n  jumpi\n  revert(0x00, 0x00)\ntag_1:\n  pop\n    /* \"ERPStorage.sol\":1325:1335  msg.sender */\n  caller\n    /* \"ERPStorage.sol\":1317:1322  owner */\n  0x00\n  0x00\n    /* \"ERPStorage.sol\":1317:1335  owner = msg.sender */\n  0x0100\n  exp\n  dup2\n  sload\n  dup2\n  0xffffffffffffffffffffffffffffffffffffffff\n  mul\n  not\n  and\n  swap1\n  dup4\n  0xffffffffffffffffffffffffffffffffffffffff\n  and\n  mul\n  or\n  swap1\n  sstore\n  pop\n    /* \"ERPStorage.sol\":173:5756  contract ERPStorage {... */\n  dataSize(sub_0)\n  dup1\n  dataOffset(sub_0)\n  0x00\n  codecopy\n  0x00\n  return\nstop\n\nsub_0: assembly {\n        /* \"ERPStorage.sol\":173:5756  contract ERPStorage {... */\n      mstore(0x40, 0x80)\n      callvalue\n      dup1\n      iszero\n      tag_1\n      jumpi\n      revert(0x00, 0x00)\n    tag_1:\n      pop\n      jumpi(tag_2, lt(calldatasize, 0x04))\n      shr(0xe0, calldataload(0x00))\n      dup1\n      0x8e383c6b\n      gt\n      tag_13\n      jumpi\n      dup1\n      0x8e383c6b\n      eq\n      tag_8\n      jumpi\n      dup1\n      0xb10d6b41\n      eq\n      tag_9\n      jumpi\n      dup1\n      0xcbfe6d41\n      eq\n      tag_10\n      jumpi\n      dup1\n      0xd64bfe6c\n      eq\n      tag_11\n      jumpi\n      dup1\n      0xeaed5bd3\n      eq\n      tag_12\n      jumpi\n      jump(tag_2)\n    tag_13:\n      dup1\n      0x2b2805db\n      eq\n      tag_3\n      jumpi\n      dup1\n      0x3d1c2273\n      eq\n      tag_4\n      jumpi\n      dup1\n      0x6a8609e5\n      eq\n      tag_5\n      jumpi\n      dup1\n      0x7882a36a\n      eq\n      tag_6\n      jumpi\n      dup1\n      0x8da5cb5b\n      eq\n      tag_7\n      jumpi\n    tag_2:\n      revert(0x00, 0x00)\n        /* \"ERPStorage.sol\":775:820  mapping(bytes32 => Document) public documents */\n    tag_3:\n      tag_14\n      0x04\n      dup1\n      calldatasize\n      sub\n      dup2\n      add\n      swap1\n      tag_15\n      swap2\n      swap1\n      tag_16\n      jump\t// in\n    tag_15:\n      tag_17\n      jump\t// in\n    tag_14:\n      mload(0x40)\n      tag_18\n      swap7\n      swap6\n      swap5\n      swap4\n      swap3\n      swap2\n      swap1\n      tag_19\n      jump\t// in\n    tag_18:\n      mload(0x40)\n      dup1\n      swap2\n      sub\n      swap1\n      return\n        /* \"ERPStorage.sol\":4191:4296  function getDocumentCount() public view returns (uint256) {... */\n    tag_4:\n      tag_20\n      tag_21\n      jump\t// in\n    tag_20:\n      mload(0x40)\n      tag_22\n      swap2\n      swap1\n      tag_23\n      jump\t// in\n    tag_22:\n      mload(0x40)\n      dup1\n      swap2\n      sub\n      swap1\n      return\n        /* \"ERPStorage.sol\":2115:3178  function recordDocument(... */\n    tag_5:\n      tag_24\n      0x04\n      dup1\n      calldatasize\n      sub\n      dup2\n      add\n      swap1\n      tag_25\n      swap2\n      swap1\n      tag_26\n      jump\t// in\n    tag_25:\n      tag_27\n      jump\t// in\n    tag_24:\n      mload(0x40)\n      tag_28\n      swap2\n      swap1\n      tag_29\n      jump\t// in\n    tag_28:\n      mload(0x40)\n      dup1\n      swap2\n      sub\n      swap1\n      return\n        /* \"ERPStorage.sol\":4828:5087  function getDocumentHistoryCount(string memory doctype, string memory name) ... */\n    tag_6:\n      tag_30\n      0x04\n      dup1\n      calldatasize\n      sub\n      dup2\n      add\n      swap1\n      tag_31\n      swap2\n      swap1\n      tag_32\n      jump\t// in\n    tag_31:\n      tag_33\n      jump\t// in\n    tag_30:\n      mload(0x40)\n      tag_34\n      swap2\n      swap1\n      tag_23\n      jump\t// in\n    tag_34:\n      mload(0x40)\n      dup1\n      swap2\n      sub\n      swap1\n      return\n        /* \"ERPStorage.sol\":200:220  address public owner */\n    tag_7:\n      tag_35\n      tag_36\n      jump\t// in\n    tag_35:\n      mload(0x40)\n      tag_37\n      swap2\n      swap1\n      tag_38\n      jump\t// in\n    tag_37:\n      mload(0x40)\n      dup1\n      swap2\n      sub\n      swap1\n      return\n        /* \"ERPStorage.sol\":893:924  bytes32[] public documentHashes */\n    tag_8:\n      tag_39\n      0x04\n      dup1\n      calldatasize\n      sub\n      dup2\n      add\n      swap1\n      tag_40\n      swap2\n      swap1\n      tag_41\n      jump\t// in\n    tag_40:\n      tag_42\n      jump\t// in\n    tag_39:\n      mload(0x40)\n      tag_43\n      swap2\n      swap1\n      tag_44\n      jump\t// in\n    tag_43:\n      mload(0x40)\n      dup1\n      swap2\n      sub\n      swap1\n      return\n        /* \"ERPStorage.sol\":3572:4070  function getDocument(bytes32 dataHash) ... */\n    tag_9:\n      tag_45\n      0x04\n      dup1\n      calldatasize\n      sub\n      dup2\n      add\n      swap1\n      tag_46\n      swap2\n      swap1\n      tag_16\n      jump\t// in\n    tag_46:\n      tag_47\n      jump\t// in\n    tag_45:\n      mload(0x40)\n      tag_48\n      swap6\n      swap5\n      swap4\n      swap3\n      swap2\n      swap1\n      tag_49\n      jump\t// in\n    tag_48:\n      mload(0x40)\n      dup1\n      swap2\n      sub\n      swap1\n      return\n        /* \"ERPStorage.sol\":4474:4611  function documentExists(bytes32 dataHash) public view returns (bool) {... */\n    tag_10:\n      tag_50\n      0x04\n      dup1\n      calldatasize\n      sub\n      dup2\n      add\n      swap1\n      tag_51\n      swap2\n      swap1\n      tag_16\n      jump\t// in\n    tag_51:\n      tag_52\n      jump\t// in\n    tag_50:\n      mload(0x40)\n      tag_53\n      swap2\n      swap1\n      tag_29\n      jump\t// in\n    tag_53:\n      mload(0x40)\n      dup1\n      swap2\n      sub\n      swap1\n      return\n        /* \"ERPStorage.sol\":1013:1065  mapping(bytes32 => bytes32[]) public documentHistory */\n    tag_11:\n      tag_54\n      0x04\n      dup1\n      calldatasize\n      sub\n      dup2\n      add\n      swap1\n      tag_55\n      swap2\n      swap1\n      tag_56\n      jump\t// in\n    tag_55:\n      tag_57\n      jump\t// in\n    tag_54:\n      mload(0x40)\n      tag_58\n      swap2\n      swap1\n      tag_44\n      jump\t// in\n    tag_58:\n      mload(0x40)\n      dup1\n      swap2\n      sub\n      swap1\n      return\n        /* \"ERPStorage.sol\":5365:5753  function getDocumentHistoryHash(... */\n    tag_12:\n      tag_59\n      0x04\n      dup1\n      calldatasize\n      sub\n      dup2\n      add\n      swap1\n      tag_60\n      swap2\n      swap1\n      tag_61\n      jump\t// in\n    tag_60:\n      tag_62\n      jump\t// in\n    tag_59:\n      mload(0x40)\n      tag_63\n      swap2\n      swap1\n      tag_44\n      jump\t// in\n    tag_63:\n      mload(0x40)\n      dup1\n      swap2\n      sub\n      swap1\n      return\n        /* \"ERPStorage.sol\":775:820  mapping(bytes32 => Document) public documents */\n    tag_17:\n      mstore(0x20, 0x01)\n      dup1\n      0x00\n      mstore\n      keccak256(0x00, 0x40)\n      0x00\n      swap2\n      pop\n      swap1\n      pop\n      dup1\n      0x00\n      add\n      dup1\n      sload\n      tag_64\n      swap1\n      tag_65\n      jump\t// in\n    tag_64:\n      dup1\n      0x1f\n      add\n      0x20\n      dup1\n      swap2\n      div\n      mul\n      0x20\n      add\n      mload(0x40)\n      swap1\n      dup2\n      add\n      0x40\n      mstore\n      dup1\n      swap3\n      swap2\n      swap1\n      dup2\n      dup2\n      mstore\n      0x20\n      add\n      dup3\n      dup1\n      sload\n      tag_66\n      swap1\n      tag_65\n      jump\t// in\n    tag_66:\n      dup1\n      iszero\n      tag_67\n      jumpi\n      dup1\n      0x1f\n      lt\n      tag_68\n      jumpi\n      0x0100\n      dup1\n      dup4\n      sload\n      div\n      mul\n      dup4\n      mstore\n      swap2\n      0x20\n      add\n      swap2\n      jump(tag_67)\n    tag_68:\n      dup3\n      add\n      swap2\n      swap1\n      0x00\n      mstore\n      keccak256(0x00, 0x20)\n      swap1\n    tag_69:\n      dup2\n      sload\n      dup2\n      mstore\n      swap1\n      0x01\n      add\n      swap1\n      0x20\n      add\n      dup1\n      dup4\n      gt\n      tag_69\n      jumpi\n      dup3\n      swap1\n      sub\n      0x1f\n      and\n      dup3\n      add\n      swap2\n    tag_67:\n      pop\n      pop\n      pop\n      pop\n      pop\n      swap1\n      dup1\n      0x01\n      add\n      dup1\n      sload\n      tag_70\n      swap1\n      tag_65\n      jump\t// in\n    tag_70:\n      dup1\n      0x1f\n      add\n      0x20\n      dup1\n      swap2\n      div\n      mul\n      0x20\n      add\n      mload(0x40)\n      swap1\n      dup2\n      add\n      0x40\n      mstore\n      dup1\n      swap3\n      swap2\n      swap1\n      dup2\n      dup2\n      mstore\n      0x20\n      add\n      dup3\n      dup1\n      sload\n      tag_71\n      swap1\n      tag_65\n      jump\t// in\n    tag_71:\n      dup1\n      iszero\n      tag_72\n      jumpi\n      dup1\n      0x1f\n      lt\n      tag_73\n      jumpi\n      0x0100\n      dup1\n      dup4\n      sload\n      div\n      mul\n      dup4\n      mstore\n      swap2\n      0x20\n      add\n      swap2\n      jump(tag_72)\n    tag_73:\n      dup3\n      add\n      swap2\n      swap1\n      0x00\n      mstore\n      keccak256(0x00, 0x20)\n      swap1\n    tag_74:\n      dup2\n      sload\n      dup2\n      mstore\n      swap1\n      0x01\n      add\n      swap1\n      0x20\n      add\n      dup1\n      dup4\n      gt\n      tag_74\n      jumpi\n      dup3\n      swap1\n      sub\n      0x1f\n      and\n      dup3\n      add\n      swap2\n    tag_72:\n      pop\n      pop\n      pop\n      pop\n      pop\n      swap1\n      dup1\n      0x02\n      add\n      dup1\n      sload\n      tag_75\n      swap1\n      tag_65\n      jump\t// in\n    tag_75:\n      dup1\n      0x1f\n      add\n      0x20\n      dup1\n      swap2\n      div\n      mul\n      0x20\n      add\n      mload(0x40)\n      swap1\n      dup2\n      add\n      0x40\n      mstore\n      dup1\n      swap3\n      swap2\n      swap1\n      dup2\n      dup2\n      mstore\n      0x20\n      add\n      dup3\n      dup1\n      sload\n      tag_76\n      swap1\n      tag_65\n      jump\t// in\n    tag_76:\n      dup1\n      iszero\n      tag_77\n      jumpi\n      dup1\n      0x1f\n      lt\n      tag_78\n      jumpi\n      0x0100\n      dup1\n      dup4\n      sload\n      div\n      mul\n      dup4\n      mstore\n      swap2\n      0x20\n      add\n      swap2\n      jump(tag_77)\n    tag_78:\n      dup3\n      add\n      swap2\n      swap1\n      0x00\n      mstore\n      keccak256(0x00, 0x20)\n      swap1\n    tag_79:\n      dup2\n      sload\n      dup2\n      mstore\n      swap1\n      0x01\n      add\n      swap1\n      0x20\n      add\n      dup1\n      dup4\n      gt\n      tag_79\n      jumpi\n      dup3\n      swap1\n      sub\n      0x1f\n      and\n      dup3\n      add\n      swap2\n    tag_77:\n      pop\n      pop\n      pop\n      pop\n      pop\n      swap1\n      dup1\n      0x03\n      add\n      sload\n      swap1\n      dup1\n      0x04\n      add\n      sload\n      swap1\n      dup1\n      0x05\n      add\n      0x00\n      swap1\n      sload\n      swap1\n      0x0100\n      exp\n      swap1\n      div\n      0xffffffffffffffffffffffffffffffffffffffff\n      and\n      swap1\n      pop\n      dup7\n      jump\t// out\n        /* \"ERPStorage.sol\":4191:4296  function getDocumentCount() public view returns (uint256) {... */\n    tag_21:\n        /* \"ERPStorage.sol\":4240:4247  uint256 */\n      0x00\n        /* \"ERPStorage.sol\":4267:4281  documentHashes */\n      0x02\n        /* \"ERPStorage.sol\":4267:4288  documentHashes.length */\n      dup1\n      sload\n      swap1\n      pop\n        /* \"ERPStorage.sol\":4260:4288  return documentHashes.length */\n      swap1\n      pop\n        /* \"ERPStorage.sol\":4191:4296  function getDocumentCount() public view returns (uint256) {... */\n      swap1\n      jump\t// out\n        /* \"ERPStorage.sol\":2115:3178  function recordDocument(... */\n    tag_27:\n        /* \"ERPStorage.sol\":2304:2316  bool success */\n      0x00\n        /* \"ERPStorage.sol\":2374:2393  Document memory doc */\n      0x00\n        /* \"ERPStorage.sol\":2396:2617  Document({... */\n      mload(0x40)\n      dup1\n      0xc0\n      add\n      0x40\n      mstore\n      dup1\n        /* \"ERPStorage.sol\":2429:2436  doctype */\n      dup8\n        /* \"ERPStorage.sol\":2396:2617  Document({... */\n      dup2\n      mstore\n      0x20\n      add\n        /* \"ERPStorage.sol\":2457:2461  name */\n      dup7\n        /* \"ERPStorage.sol\":2396:2617  Document({... */\n      dup2\n      mstore\n      0x20\n      add\n        /* \"ERPStorage.sol\":2487:2496  eventType */\n      dup6\n        /* \"ERPStorage.sol\":2396:2617  Document({... */\n      dup2\n      mstore\n      0x20\n      add\n        /* \"ERPStorage.sol\":2522:2537  block.timestamp */\n      timestamp\n        /* \"ERPStorage.sol\":2396:2617  Document({... */\n      dup2\n      mstore\n      0x20\n      add\n        /* \"ERPStorage.sol\":2562:2570  dataHash */\n      dup5\n        /* \"ERPStorage.sol\":2396:2617  Document({... */\n      dup2\n      mstore\n      0x20\n      add\n        /* \"ERPStorage.sol\":2595:2605  msg.sender */\n      caller\n        /* \"ERPStorage.sol\":2396:2617  Document({... */\n      0xffffffffffffffffffffffffffffffffffffffff\n      and\n      dup2\n      mstore\n      pop\n        /* \"ERPStorage.sol\":2374:2617  Document memory doc = Document({... */\n      swap1\n      pop\n        /* \"ERPStorage.sol\":2691:2694  doc */\n      dup1\n        /* \"ERPStorage.sol\":2669:2678  documents */\n      0x01\n        /* \"ERPStorage.sol\":2669:2688  documents[dataHash] */\n      0x00\n        /* \"ERPStorage.sol\":2679:2687  dataHash */\n      dup6\n        /* \"ERPStorage.sol\":2669:2688  documents[dataHash] */\n      dup2\n      mstore\n      0x20\n      add\n      swap1\n      dup2\n      mstore\n      0x20\n      add\n      0x00\n      keccak256\n        /* \"ERPStorage.sol\":2669:2694  documents[dataHash] = doc */\n      0x00\n      dup3\n      add\n      mload\n      dup2\n      0x00\n      add\n      swap1\n      dup2\n      tag_82\n      swap2\n      swap1\n      tag_83\n      jump\t// in\n    tag_82:\n      pop\n      0x20\n      dup3\n      add\n      mload\n      dup2\n      0x01\n      add\n      swap1\n      dup2\n      tag_84\n      swap2\n      swap1\n      tag_83\n      jump\t// in\n    tag_84:\n      pop\n      0x40\n      dup3\n      add\n      mload\n      dup2\n      0x02\n      add\n      swap1\n      dup2\n      tag_85\n      swap2\n      swap1\n      tag_83\n      jump\t// in\n    tag_85:\n      pop\n      0x60\n      dup3\n      add\n      mload\n      dup2\n      0x03\n      add\n      sstore\n      0x80\n      dup3\n      add\n      mload\n      dup2\n      0x04\n      add\n      sstore\n      0xa0\n      dup3\n      add\n      mload\n      dup2\n      0x05\n      add\n      exp(0x0100, 0x00)\n      dup2\n      sload\n      dup2\n      0xffffffffffffffffffffffffffffffffffffffff\n      mul\n      not\n      and\n      swap1\n      dup4\n      0xffffffffffffffffffffffffffffffffffffffff\n      and\n      mul\n      or\n      swap1\n      sstore\n      pop\n      swap1\n      pop\n      pop\n        /* \"ERPStorage.sol\":2760:2774  documentHashes */\n      0x02\n        /* \"ERPStorage.sol\":2780:2788  dataHash */\n      dup4\n        /* \"ERPStorage.sol\":2760:2789  documentHashes.push(dataHash) */\n      swap1\n      dup1\n      0x01\n      dup2\n      sload\n      add\n      dup1\n      dup3\n      sstore\n      dup1\n      swap2\n      pop\n      pop\n      0x01\n      swap1\n      sub\n      swap1\n      0x00\n      mstore\n      keccak256(0x00, 0x20)\n      add\n      0x00\n      swap1\n      swap2\n      swap1\n      swap2\n      swap1\n      swap2\n      pop\n      sstore\n        /* \"ERPStorage.sol\":2845:2859  bytes32 docKey */\n      0x00\n        /* \"ERPStorage.sol\":2862:2895  _createDocumentKey(doctype, name) */\n      tag_87\n        /* \"ERPStorage.sol\":2881:2888  doctype */\n      dup8\n        /* \"ERPStorage.sol\":2890:2894  name */\n      dup8\n        /* \"ERPStorage.sol\":2862:2880  _createDocumentKey */\n      tag_88\n        /* \"ERPStorage.sol\":2862:2895  _createDocumentKey(doctype, name) */\n      jump\t// in\n    tag_87:\n        /* \"ERPStorage.sol\":2845:2895  bytes32 docKey = _createDocumentKey(doctype, name) */\n      swap1\n      pop\n        /* \"ERPStorage.sol\":2906:2921  documentHistory */\n      0x03\n        /* \"ERPStorage.sol\":2906:2929  documentHistory[docKey] */\n      0x00\n        /* \"ERPStorage.sol\":2922:2928  docKey */\n      dup3\n        /* \"ERPStorage.sol\":2906:2929  documentHistory[docKey] */\n      dup2\n      mstore\n      0x20\n      add\n      swap1\n      dup2\n      mstore\n      0x20\n      add\n      0x00\n      keccak256\n        /* \"ERPStorage.sol\":2935:2943  dataHash */\n      dup5\n        /* \"ERPStorage.sol\":2906:2944  documentHistory[docKey].push(dataHash) */\n      swap1\n      dup1\n      0x01\n      dup2\n      sload\n      add\n      dup1\n      dup3\n      sstore\n      dup1\n      swap2\n      pop\n      pop\n      0x01\n      swap1\n      sub\n      swap1\n      0x00\n      mstore\n      keccak256(0x00, 0x20)\n      add\n      0x00\n      swap1\n      swap2\n      swap1\n      swap2\n      swap1\n      swap2\n      pop\n      sstore\n        /* \"ERPStorage.sol\":3024:3032  dataHash */\n      dup4\n        /* \"ERPStorage.sol\":2993:3138  DocumentRecorded(... */\n      0x8e5250826d83ebb40f2d67b0302958b2c22670a3694d4a96969565060bcc4658\n        /* \"ERPStorage.sol\":3047:3054  doctype */\n      dup9\n        /* \"ERPStorage.sol\":3069:3073  name */\n      dup9\n        /* \"ERPStorage.sol\":3088:3097  eventType */\n      dup9\n        /* \"ERPStorage.sol\":3112:3127  block.timestamp */\n      timestamp\n        /* \"ERPStorage.sol\":2993:3138  DocumentRecorded(... */\n      mload(0x40)\n      tag_90\n      swap5\n      swap4\n      swap3\n      swap2\n      swap1\n      tag_91\n      jump\t// in\n    tag_90:\n      mload(0x40)\n      dup1\n      swap2\n      sub\n      swap1\n      log2\n        /* \"ERPStorage.sol\":3166:3170  true */\n      0x01\n        /* \"ERPStorage.sol\":3159:3170  return true */\n      swap3\n      pop\n      pop\n      pop\n        /* \"ERPStorage.sol\":2115:3178  function recordDocument(... */\n      swap5\n      swap4\n      pop\n      pop\n      pop\n      pop\n      jump\t// out\n        /* \"ERPStorage.sol\":4828:5087  function getDocumentHistoryCount(string memory doctype, string memory name) ... */\n    tag_33:\n        /* \"ERPStorage.sol\":4955:4962  uint256 */\n      0x00\n        /* \"ERPStorage.sol\":4981:4995  bytes32 docKey */\n      0x00\n        /* \"ERPStorage.sol\":4998:5031  _createDocumentKey(doctype, name) */\n      tag_93\n        /* \"ERPStorage.sol\":5017:5024  doctype */\n      dup5\n        /* \"ERPStorage.sol\":5026:5030  name */\n      dup5\n        /* \"ERPStorage.sol\":4998:5016  _createDocumentKey */\n      tag_88\n        /* \"ERPStorage.sol\":4998:5031  _createDocumentKey(doctype, name) */\n      jump\t// in\n    tag_93:\n        /* \"ERPStorage.sol\":4981:5031  bytes32 docKey = _createDocumentKey(doctype, name) */\n      swap1\n      pop\n        /* \"ERPStorage.sol\":5049:5064  documentHistory */\n      0x03\n        /* \"ERPStorage.sol\":5049:5072  documentHistory[docKey] */\n      0x00\n        /* \"ERPStorage.sol\":5065:5071  docKey */\n      dup3\n        /* \"ERPStorage.sol\":5049:5072  documentHistory[docKey] */\n      dup2\n      mstore\n      0x20\n      add\n      swap1\n      dup2\n      mstore\n      0x20\n      add\n      0x00\n      keccak256\n        /* \"ERPStorage.sol\":5049:5079  documentHistory[docKey].length */\n      dup1\n      sload\n      swap1\n      pop\n        /* \"ERPStorage.sol\":5042:5079  return documentHistory[docKey].length */\n      swap2\n      pop\n      pop\n        /* \"ERPStorage.sol\":4828:5087  function getDocumentHistoryCount(string memory doctype, string memory name) ... */\n      swap3\n      swap2\n      pop\n      pop\n      jump\t// out\n        /* \"ERPStorage.sol\":200:220  address public owner */\n    tag_36:\n      0x00\n      0x00\n      swap1\n      sload\n      swap1\n      0x0100\n      exp\n      swap1\n      div\n      0xffffffffffffffffffffffffffffffffffffffff\n      and\n      dup2\n      jump\t// out\n        /* \"ERPStorage.sol\":893:924  bytes32[] public documentHashes */\n    tag_42:\n      0x02\n      dup2\n      dup2\n      sload\n      dup2\n      lt\n      tag_94\n      jumpi\n      0x00\n      dup1\n      revert\n    tag_94:\n      swap1\n      0x00\n      mstore\n      keccak256(0x00, 0x20)\n      add\n      0x00\n      swap2\n      pop\n      swap1\n      pop\n      sload\n      dup2\n      jump\t// out\n        /* \"ERPStorage.sol\":3572:4070  function getDocument(bytes32 dataHash) ... */\n    tag_47:\n        /* \"ERPStorage.sol\":3676:3697  string memory doctype */\n      0x60\n        /* \"ERPStorage.sol\":3712:3730  string memory name */\n      dup1\n        /* \"ERPStorage.sol\":3745:3768  string memory eventType */\n      0x60\n        /* \"ERPStorage.sol\":3783:3800  uint256 timestamp */\n      0x00\n        /* \"ERPStorage.sol\":3815:3831  address recorder */\n      0x00\n        /* \"ERPStorage.sol\":3860:3879  Document memory doc */\n      0x00\n        /* \"ERPStorage.sol\":3882:3891  documents */\n      0x01\n        /* \"ERPStorage.sol\":3882:3901  documents[dataHash] */\n      0x00\n        /* \"ERPStorage.sol\":3892:3900  dataHash */\n      dup9\n        /* \"ERPStorage.sol\":3882:3901  documents[dataHash] */\n      dup2\n      mstore\n      0x20\n      add\n      swap1\n      dup2\n      mstore\n      0x20\n      add\n      0x00\n      keccak256\n        /* \"ERPStorage.sol\":3860:3901  Document memory doc = documents[dataHash] */\n      mload(0x40)\n      dup1\n      0xc0\n      add\n      0x40\n      mstore\n      swap1\n      dup2\n      0x00\n      dup3\n      add\n      dup1\n      sload\n      tag_97\n      swap1\n      tag_65\n      jump\t// in\n    tag_97:\n      dup1\n      0x1f\n      add\n      0x20\n      dup1\n      swap2\n      div\n      mul\n      0x20\n      add\n      mload(0x40)\n      swap1\n      dup2\n      add\n      0x40\n      mstore\n      dup1\n      swap3\n      swap2\n      swap1\n      dup2\n      dup2\n      mstore\n      0x20\n      add\n      dup3\n      dup1\n      sload\n      tag_98\n      swap1\n      tag_65\n      jump\t// in\n    tag_98:\n      dup1\n      iszero\n      tag_99\n      jumpi\n      dup1\n      0x1f\n      lt\n      tag_100\n      jumpi\n      0x0100\n      dup1\n      dup4\n      sload\n      div\n      mul\n      dup4\n      mstore\n      swap2\n      0x20\n      add\n      swap2\n      jump(tag_99)\n    tag_100:\n      dup3\n      add\n      swap2\n      swap1\n      0x00\n      mstore\n      keccak256(0x00, 0x20)\n      swap1\n    tag_101:\n      dup2\n      sload\n      dup2\n      mstore\n      swap1\n      0x01\n      add\n      swap1\n      0x20\n      add\n      dup1\n      dup4\n      gt\n      tag_101\n      jumpi\n      dup3\n      swap1\n      sub\n      0x1f\n      and\n      dup3\n      add\n      swap2\n    tag_99:\n      pop\n      pop\n      pop\n      pop\n      pop\n      dup2\n      mstore\n      0x20\n      add\n      0x01\n      dup3\n      add\n      dup1\n      sload\n      tag_102\n      swap1\n      tag_65\n      jump\t// in\n    tag_102:\n      dup1\n      0x1f\n      add\n      0x20\n      dup1\n      swap2\n      div\n      mul\n      0x20\n      add\n      mload(0x40)\n      swap1\n      dup2\n      add\n      0x40\n      mstore\n      dup1\n      swap3\n      swap2\n      swap1\n      dup2\n      dup2\n      mstore\n      0x20\n      add\n      dup3\n      dup1\n      sload\n      tag_103\n      swap1\n      tag_65\n      jump\t// in\n    tag_103:\n      dup1\n      iszero\n      tag_104\n      jumpi\n      dup1\n      0x1f\n      lt\n      tag_105\n      jumpi\n      0x0100\n      dup1\n      dup4\n      sload\n      div\n      mul\n      dup4\n      mstore\n      swap2\n      0x20\n      add\n      swap2\n      jump(tag_104)\n    tag_105:\n      dup3\n      add\n      swap2\n      swap1\n      0x00\n      mstore\n      keccak256(0x00, 0x20)\n      swap1\n    tag_106:\n      dup2\n      sload\n      dup2\n      mstore\n      swap1\n      0x01\n      add\n      swap1\n      0x20\n      add\n      dup1\n      dup4\n      gt\n      tag_106\n      jumpi\n      dup3\n      swap1\n      sub\n      0x1f\n      and\n      dup3\n      add\n      swap2\n    tag_104:\n      pop\n      pop\n      pop\n      pop\n      pop\n      dup2\n      mstore\n      0x20\n      add\n      0x02\n      dup3\n      add\n      dup1\n      sload\n      tag_107\n      swap1\n      tag_65\n      jump\t// in\n    tag_107:\n      dup1\n      0x1f\n      add\n      0x20\n      dup1\n      swap2\n      div\n      mul\n      0x20\n      add\n      mload(0x40)\n      swap1\n      dup2\n      add\n      0x40\n      mstore\n      dup1\n      swap3\n      swap2\n      swap1\n      dup2\n      dup2\n      mstore\n      0x20\n      add\n      dup3\n      dup1\n      sload\n      tag_108\n      swap1\n      tag_65\n      jump\t// in\n    tag_108:\n      dup1\n      iszero\n      tag_109\n      jumpi\n      dup1\n      0x1f\n      lt\n      tag_110\n      jumpi\n      0x0100\n      dup1\n      dup4\n      sload\n      div\n      mul\n      dup4\n      mstore\n      swap2\n      0x20\n      add\n      swap2\n      jump(tag_109)\n    tag_110:\n      dup3\n      add\n      swap2\n      swap1\n      0x00\n      mstore\n      keccak256(0x00, 0x20)\n      swap1\n    tag_111:\n      dup2\n      sload\n      dup2\n      mstore\n      swap1\n      0x01\n      add\n      swap1\n      0x20\n      add\n      dup1\n      dup4\n      gt\n      tag_111\n      jumpi\n      dup3\n      swap1\n      sub\n      0x1f\n      and\n      dup3\n      add\n      swap2\n    tag_109:\n      pop\n      pop\n      pop\n      pop\n      pop\n      dup2\n      mstore\n      0x20\n      add\n      0x03\n      dup3\n      add\n      sload\n      dup2\n      mstore\n      0x20\n      add\n      0x04\n      dup3\n      add\n      sload\n      dup2\n      mstore\n      0x20\n      add\n      0x05\n      dup3\n      add\n      0x00\n      swap1\n      sload\n      swap1\n      0x0100\n      exp\n      swap1\n      div\n      0xffffffffffffffffffffffffffffffffffffffff\n      and\n      0xffffffffffffffffffffffffffffffffffffffff\n      and\n      0xffffffffffffffffffffffffffffffffffffffff\n      and\n      dup2\n      mstore\n      pop\n      pop\n      swap1\n      pop\n        /* \"ERPStorage.sol\":3934:3937  doc */\n      dup1\n        /* \"ERPStorage.sol\":3934:3945  doc.doctype */\n      0x00\n      add\n      mload\n        /* \"ERPStorage.sol\":3960:3963  doc */\n      dup2\n        /* \"ERPStorage.sol\":3960:3968  doc.name */\n      0x20\n      add\n      mload\n        /* \"ERPStorage.sol\":3983:3986  doc */\n      dup3\n        /* \"ERPStorage.sol\":3983:3996  doc.eventType */\n      0x40\n      add\n      mload\n        /* \"ERPStorage.sol\":4011:4014  doc */\n      dup4\n        /* \"ERPStorage.sol\":4011:4024  doc.timestamp */\n      0x60\n      add\n      mload\n        /* \"ERPStorage.sol\":4039:4042  doc */\n      dup5\n        /* \"ERPStorage.sol\":4039:4051  doc.recorder */\n      0xa0\n      add\n      mload\n        /* \"ERPStorage.sol\":3912:4062  return (... */\n      swap6\n      pop\n      swap6\n      pop\n      swap6\n      pop\n      swap6\n      pop\n      swap6\n      pop\n      pop\n        /* \"ERPStorage.sol\":3572:4070  function getDocument(bytes32 dataHash) ... */\n      swap2\n      swap4\n      swap6\n      swap1\n      swap3\n      swap5\n      pop\n      jump\t// out\n        /* \"ERPStorage.sol\":4474:4611  function documentExists(bytes32 dataHash) public view returns (bool) {... */\n    tag_52:\n        /* \"ERPStorage.sol\":4537:4541  bool */\n      0x00\n        /* \"ERPStorage.sol\":4601:4602  0 */\n      0x00\n        /* \"ERPStorage.sol\":4561:4603  documents[dataHash].recorder != address(0) */\n      0xffffffffffffffffffffffffffffffffffffffff\n      and\n        /* \"ERPStorage.sol\":4561:4570  documents */\n      0x01\n        /* \"ERPStorage.sol\":4561:4580  documents[dataHash] */\n      0x00\n        /* \"ERPStorage.sol\":4571:4579  dataHash */\n      dup5\n        /* \"ERPStorage.sol\":4561:4580  documents[dataHash] */\n      dup2\n      mstore\n      0x20\n      add\n      swap1\n      dup2\n      mstore\n      0x20\n      add\n      0x00\n      keccak256\n        /* \"ERPStorage.sol\":4561:4589  documents[dataHash].recorder */\n      0x05\n      add\n      0x00\n      swap1\n      sload\n      swap1\n      0x0100\n      exp\n      swap1\n      div\n      0xffffffffffffffffffffffffffffffffffffffff\n      and\n        /* \"ERPStorage.sol\":4561:4603  documents[dataHash].recorder != address(0) */\n      0xffffffffffffffffffffffffffffffffffffffff\n      and\n      eq\n      iszero\n        /* \"ERPStorage.sol\":4554:4603  return documents[dataHash].recorder != address(0) */\n      swap1\n      pop\n        /* \"ERPStorage.sol\":4474:4611  function documentExists(bytes32 dataHash) public view returns (bool) {... */\n      swap2\n      swap1\n      pop\n      jump\t// out\n        /* \"ERPStorage.sol\":1013:1065  mapping(bytes32 => bytes32[]) public documentHistory */\n    tag_57:\n      mstore(0x20, 0x03)\n      dup2\n      0x00\n      mstore\n      keccak256(0x00, 0x40)\n      dup2\n      dup2\n      sload\n      dup2\n      lt\n      tag_113\n      jumpi\n      0x00\n      dup1\n      revert\n    tag_113:\n      swap1\n      0x00\n      mstore\n      keccak256(0x00, 0x20)\n      add\n      0x00\n      swap2\n      pop\n      swap2\n      pop\n      pop\n      sload\n      dup2\n      jump\t// out\n        /* \"ERPStorage.sol\":5365:5753  function getDocumentHistoryHash(... */\n    tag_62:\n        /* \"ERPStorage.sol\":5540:5547  bytes32 */\n      0x00\n        /* \"ERPStorage.sol\":5566:5580  bytes32 docKey */\n      0x00\n        /* \"ERPStorage.sol\":5583:5616  _createDocumentKey(doctype, name) */\n      tag_116\n        /* \"ERPStorage.sol\":5602:5609  doctype */\n      dup6\n        /* \"ERPStorage.sol\":5611:5615  name */\n      dup6\n        /* \"ERPStorage.sol\":5583:5601  _createDocumentKey */\n      tag_88\n        /* \"ERPStorage.sol\":5583:5616  _createDocumentKey(doctype, name) */\n      jump\t// in\n    tag_116:\n        /* \"ERPStorage.sol\":5566:5616  bytes32 docKey = _createDocumentKey(doctype, name) */\n      swap1\n      pop\n        /* \"ERPStorage.sol\":5643:5658  documentHistory */\n      0x03\n        /* \"ERPStorage.sol\":5643:5666  documentHistory[docKey] */\n      0x00\n        /* \"ERPStorage.sol\":5659:5665  docKey */\n      dup3\n        /* \"ERPStorage.sol\":5643:5666  documentHistory[docKey] */\n      dup2\n      mstore\n      0x20\n      add\n      swap1\n      dup2\n      mstore\n      0x20\n      add\n      0x00\n      keccak256\n        /* \"ERPStorage.sol\":5643:5673  documentHistory[docKey].length */\n      dup1\n      sload\n      swap1\n      pop\n        /* \"ERPStorage.sol\":5635:5640  index */\n      dup4\n        /* \"ERPStorage.sol\":5635:5673  index < documentHistory[docKey].length */\n      lt\n        /* \"ERPStorage.sol\":5627:5697  require(index < documentHistory[docKey].length, \"Index out of bounds\") */\n      tag_117\n      jumpi\n      mload(0x40)\n      0x08c379a000000000000000000000000000000000000000000000000000000000\n      dup2\n      mstore\n      0x04\n      add\n      tag_118\n      swap1\n      tag_119\n      jump\t// in\n    tag_118:\n      mload(0x40)\n      dup1\n      swap2\n      sub\n      swap1\n      revert\n    tag_117:\n        /* \"ERPStorage.sol\":5715:5730  documentHistory */\n      0x03\n        /* \"ERPStorage.sol\":5715:5738  documentHistory[docKey] */\n      0x00\n        /* \"ERPStorage.sol\":5731:5737  docKey */\n      dup3\n        /* \"ERPStorage.sol\":5715:5738  documentHistory[docKey] */\n      dup2\n      mstore\n      0x20\n      add\n      swap1\n      dup2\n      mstore\n      0x20\n      add\n      0x00\n      keccak256\n        /* \"ERPStorage.sol\":5739:5744  index */\n      dup4\n        /* \"ERPStorage.sol\":5715:5745  documentHistory[docKey][index] */\n      dup2\n      sload\n      dup2\n      lt\n      tag_120\n      jumpi\n      tag_121\n      tag_122\n      jump\t// in\n    tag_121:\n    tag_120:\n      swap1\n      0x00\n      mstore\n      keccak256(0x00, 0x20)\n      add\n      sload\n        /* \"ERPStorage.sol\":5708:5745  return documentHistory[docKey][index] */\n      swap2\n      pop\n      pop\n        /* \"ERPStorage.sol\":5365:5753  function getDocumentHistoryHash(... */\n      swap4\n      swap3\n      pop\n      pop\n      pop\n      jump\t// out\n        /* \"ERPStorage.sol\":1582:1774  function _createDocumentKey(string memory doctype, string memory name) ... */\n    tag_88:\n        /* \"ERPStorage.sol\":1686:1693  bytes32 */\n      0x00\n        /* \"ERPStorage.sol\":1746:1753  doctype */\n      dup3\n        /* \"ERPStorage.sol\":1760:1764  name */\n      dup3\n        /* \"ERPStorage.sol\":1729:1765  abi.encodePacked(doctype, \":\", name) */\n      add(0x20, mload(0x40))\n      tag_125\n      swap3\n      swap2\n      swap1\n      tag_126\n      jump\t// in\n    tag_125:\n      mload(0x40)\n      0x20\n      dup2\n      dup4\n      sub\n      sub\n      dup2\n      mstore\n      swap1\n      0x40\n      mstore\n        /* \"ERPStorage.sol\":1719:1766  keccak256(abi.encodePacked(doctype, \":\", name)) */\n      dup1\n      mload\n      swap1\n      0x20\n      add\n      keccak256\n        /* \"ERPStorage.sol\":1712:1766  return keccak256(abi.encodePacked(doctype, \":\", name)) */\n      swap1\n      pop\n        /* \"ERPStorage.sol\":1582:1774  function _createDocumentKey(string memory doctype, string memory name) ... */\n      swap3\n      swap2\n      pop\n      pop\n      jump\t// out\n        /* \"#utility.yul\":7:82   */\n    tag_127:\n        /* \"#utility.yul\":40:46   */\n      0x00\n        /* \"#utility.yul\":73:75   */\n      0x40\n        /* \"#utility.yul\":67:76   */\n      mload\n        /* \"#utility.yul\":57:76   */\n      swap1\n      pop\n        /* \"#utility.yul\":7:82   */\n      swap1\n      jump\t// out\n        /* \"#utility.yul\":88:205   */\n    tag_128:\n        /* \"#utility.yul\":197:198   */\n      0x00\n        /* \"#utility.yul\":194:195   */\n      0x00\n        /* \"#utility.yul\":187:199   */\n      revert\n        /* \"#utility.yul\":211:328   */\n    tag_129:\n        /* \"#utility.yul\":320:321   */\n      0x00\n        /* \"#utility.yul\":317:318   */\n      0x00\n        /* \"#utility.yul\":310:322   */\n      revert\n        /* \"#utility.yul\":334:411   */\n    tag_130:\n        /* \"#utility.yul\":371:378   */\n      0x00\n        /* \"#utility.yul\":400:405   */\n      dup2\n        /* \"#utility.yul\":389:405   */\n      swap1\n      pop\n        /* \"#utility.yul\":334:411   */\n      swap2\n      swap1\n      pop\n      jump\t// out\n        /* \"#utility.yul\":417:539   */\n    tag_131:\n        /* \"#utility.yul\":490:514   */\n      tag_185\n        /* \"#utility.yul\":508:513   */\n      dup2\n        /* \"#utility.yul\":490:514   */\n      tag_130\n      jump\t// in\n    tag_185:\n        /* \"#utility.yul\":483:488   */\n      dup2\n        /* \"#utility.yul\":480:515   */\n      eq\n        /* \"#utility.yul\":470:533   */\n      tag_186\n      jumpi\n        /* \"#utility.yul\":529:530   */\n      0x00\n        /* \"#utility.yul\":526:527   */\n      0x00\n        /* \"#utility.yul\":519:531   */\n      revert\n        /* \"#utility.yul\":470:533   */\n    tag_186:\n        /* \"#utility.yul\":417:539   */\n      pop\n      jump\t// out\n        /* \"#utility.yul\":545:684   */\n    tag_132:\n        /* \"#utility.yul\":591:596   */\n      0x00\n        /* \"#utility.yul\":629:635   */\n      dup2\n        /* \"#utility.yul\":616:636   */\n      calldataload\n        /* \"#utility.yul\":607:636   */\n      swap1\n      pop\n        /* \"#utility.yul\":645:678   */\n      tag_188\n        /* \"#utility.yul\":672:677   */\n      dup2\n        /* \"#utility.yul\":645:678   */\n      tag_131\n      jump\t// in\n    tag_188:\n        /* \"#utility.yul\":545:684   */\n      swap3\n      swap2\n      pop\n      pop\n      jump\t// out\n        /* \"#utility.yul\":690:1019   */\n    tag_16:\n        /* \"#utility.yul\":749:755   */\n      0x00\n        /* \"#utility.yul\":798:800   */\n      0x20\n        /* \"#utility.yul\":786:795   */\n      dup3\n        /* \"#utility.yul\":777:784   */\n      dup5\n        /* \"#utility.yul\":773:796   */\n      sub\n        /* \"#utility.yul\":769:801   */\n      slt\n        /* \"#utility.yul\":766:885   */\n      iszero\n      tag_190\n      jumpi\n        /* \"#utility.yul\":804:883   */\n      tag_191\n      tag_128\n      jump\t// in\n    tag_191:\n        /* \"#utility.yul\":766:885   */\n    tag_190:\n        /* \"#utility.yul\":924:925   */\n      0x00\n        /* \"#utility.yul\":949:1002   */\n      tag_192\n        /* \"#utility.yul\":994:1001   */\n      dup5\n        /* \"#utility.yul\":985:991   */\n      dup3\n        /* \"#utility.yul\":974:983   */\n      dup6\n        /* \"#utility.yul\":970:992   */\n      add\n        /* \"#utility.yul\":949:1002   */\n      tag_132\n      jump\t// in\n    tag_192:\n        /* \"#utility.yul\":939:1002   */\n      swap2\n      pop\n        /* \"#utility.yul\":895:1012   */\n      pop\n        /* \"#utility.yul\":690:1019   */\n      swap3\n      swap2\n      pop\n      pop\n      jump\t// out\n        /* \"#utility.yul\":1025:1124   */\n    tag_133:\n        /* \"#utility.yul\":1077:1083   */\n      0x00\n        /* \"#utility.yul\":1111:1116   */\n      dup2\n        /* \"#utility.yul\":1105:1117   */\n      mload\n        /* \"#utility.yul\":1095:1117   */\n      swap1\n      pop\n        /* \"#utility.yul\":1025:1124   */\n      swap2\n      swap1\n      pop\n      jump\t// out\n        /* \"#utility.yul\":1130:1299   */\n    tag_134:\n        /* \"#utility.yul\":1214:1225   */\n      0x00\n        /* \"#utility.yul\":1248:1254   */\n      dup3\n        /* \"#utility.yul\":1243:1246   */\n      dup3\n        /* \"#utility.yul\":1236:1255   */\n      mstore\n        /* \"#utility.yul\":1288:1292   */\n      0x20\n        /* \"#utility.yul\":1283:1286   */\n      dup3\n        /* \"#utility.yul\":1279:1293   */\n      add\n        /* \"#utility.yul\":1264:1293   */\n      swap1\n      pop\n        /* \"#utility.yul\":1130:1299   */\n      swap3\n      swap2\n      pop\n      pop\n      jump\t// out\n        /* \"#utility.yul\":1305:1444   */\n    tag_135:\n        /* \"#utility.yul\":1394:1400   */\n      dup3\n        /* \"#utility.yul\":1389:1392   */\n      dup2\n        /* \"#utility.yul\":1384:1387   */\n      dup4\n        /* \"#utility.yul\":1378:1401   */\n      mcopy\n        /* \"#utility.yul\":1435:1436   */\n      0x00\n        /* \"#utility.yul\":1426:1432   */\n      dup4\n        /* \"#utility.yul\":1421:1424   */\n      dup4\n        /* \"#utility.yul\":1417:1433   */\n      add\n        /* \"#utility.yul\":1410:1437   */\n      mstore\n        /* \"#utility.yul\":1305:1444   */\n      pop\n      pop\n      pop\n      jump\t// out\n        /* \"#utility.yul\":1450:1552   */\n    tag_136:\n        /* \"#utility.yul\":1491:1497   */\n      0x00\n        /* \"#utility.yul\":1542:1544   */\n      0x1f\n        /* \"#utility.yul\":1538:1545   */\n      not\n        /* \"#utility.yul\":1533:1535   */\n      0x1f\n        /* \"#utility.yul\":1526:1531   */\n      dup4\n        /* \"#utility.yul\":1522:1536   */\n      add\n        /* \"#utility.yul\":1518:1546   */\n      and\n        /* \"#utility.yul\":1508:1546   */\n      swap1\n      pop\n        /* \"#utility.yul\":1450:1552   */\n      swap2\n      swap1\n      pop\n      jump\t// out\n        /* \"#utility.yul\":1558:1935   */\n    tag_137:\n        /* \"#utility.yul\":1646:1649   */\n      0x00\n        /* \"#utility.yul\":1674:1713   */\n      tag_198\n        /* \"#utility.yul\":1707:1712   */\n      dup3\n        /* \"#utility.yul\":1674:1713   */\n      tag_133\n      jump\t// in\n    tag_198:\n        /* \"#utility.yul\":1729:1800   */\n      tag_199\n        /* \"#utility.yul\":1793:1799   */\n      dup2\n        /* \"#utility.yul\":1788:1791   */\n      dup6\n        /* \"#utility.yul\":1729:1800   */\n      tag_134\n      jump\t// in\n    tag_199:\n        /* \"#utility.yul\":1722:1800   */\n      swap4\n      pop\n        /* \"#utility.yul\":1809:1874   */\n      tag_200\n        /* \"#utility.yul\":1867:1873   */\n      dup2\n        /* \"#utility.yul\":1862:1865   */\n      dup6\n        /* \"#utility.yul\":1855:1859   */\n      0x20\n        /* \"#utility.yul\":1848:1853   */\n      dup7\n        /* \"#utility.yul\":1844:1860   */\n      add\n        /* \"#utility.yul\":1809:1874   */\n      tag_135\n      jump\t// in\n    tag_200:\n        /* \"#utility.yul\":1899:1928   */\n      tag_201\n        /* \"#utility.yul\":1921:1927   */\n      dup2\n        /* \"#utility.yul\":1899:1928   */\n      tag_136\n      jump\t// in\n    tag_201:\n        /* \"#utility.yul\":1894:1897   */\n      dup5\n        /* \"#utility.yul\":1890:1929   */\n      add\n        /* \"#utility.yul\":1883:1929   */\n      swap2\n      pop\n        /* \"#utility.yul\":1650:1935   */\n      pop\n        /* \"#utility.yul\":1558:1935   */\n      swap3\n      swap2\n      pop\n      pop\n      jump\t// out\n        /* \"#utility.yul\":1941:2018   */\n    tag_138:\n        /* \"#utility.yul\":1978:1985   */\n      0x00\n        /* \"#utility.yul\":2007:2012   */\n      dup2\n        /* \"#utility.yul\":1996:2012   */\n      swap1\n      pop\n        /* \"#utility.yul\":1941:2018   */\n      swap2\n      swap1\n      pop\n      jump\t// out\n        /* \"#utility.yul\":2024:2142   */\n    tag_139:\n        /* \"#utility.yul\":2111:2135   */\n      tag_204\n        /* \"#utility.yul\":2129:2134   */\n      dup2\n        /* \"#utility.yul\":2111:2135   */\n      tag_138\n      jump\t// in\n    tag_204:\n        /* \"#utility.yul\":2106:2109   */\n      dup3\n        /* \"#utility.yul\":2099:2136   */\n      mstore\n        /* \"#utility.yul\":2024:2142   */\n      pop\n      pop\n      jump\t// out\n        /* \"#utility.yul\":2148:2266   */\n    tag_140:\n        /* \"#utility.yul\":2235:2259   */\n      tag_206\n        /* \"#utility.yul\":2253:2258   */\n      dup2\n        /* \"#utility.yul\":2235:2259   */\n      tag_130\n      jump\t// in\n    tag_206:\n        /* \"#utility.yul\":2230:2233   */\n      dup3\n        /* \"#utility.yul\":2223:2260   */\n      mstore\n        /* \"#utility.yul\":2148:2266   */\n      pop\n      pop\n      jump\t// out\n        /* \"#utility.yul\":2272:2398   */\n    tag_141:\n        /* \"#utility.yul\":2309:2316   */\n      0x00\n        /* \"#utility.yul\":2349:2391   */\n      0xffffffffffffffffffffffffffffffffffffffff\n        /* \"#utility.yul\":2342:2347   */\n      dup3\n        /* \"#utility.yul\":2338:2392   */\n      and\n        /* \"#utility.yul\":2327:2392   */\n      swap1\n      pop\n        /* \"#utility.yul\":2272:2398   */\n      swap2\n      swap1\n      pop\n      jump\t// out\n        /* \"#utility.yul\":2404:2500   */\n    tag_142:\n        /* \"#utility.yul\":2441:2448   */\n      0x00\n        /* \"#utility.yul\":2470:2494   */\n      tag_209\n        /* \"#utility.yul\":2488:2493   */\n      dup3\n        /* \"#utility.yul\":2470:2494   */\n      tag_141\n      jump\t// in\n    tag_209:\n        /* \"#utility.yul\":2459:2494   */\n      swap1\n      pop\n        /* \"#utility.yul\":2404:2500   */\n      swap2\n      swap1\n      pop\n      jump\t// out\n        /* \"#utility.yul\":2506:2624   */\n    tag_143:\n        /* \"#utility.yul\":2593:2617   */\n      tag_211\n        /* \"#utility.yul\":2611:2616   */\n      dup2\n        /* \"#utility.yul\":2593:2617   */\n      tag_142\n      jump\t// in\n    tag_211:\n        /* \"#utility.yul\":2588:2591   */\n      dup3\n        /* \"#utility.yul\":2581:2618   */\n      mstore\n        /* \"#utility.yul\":2506:2624   */\n      pop\n      pop\n      jump\t// out\n        /* \"#utility.yul\":2630:3678   */\n    tag_19:\n        /* \"#utility.yul\":2923:2927   */\n      0x00\n        /* \"#utility.yul\":2961:2964   */\n      0xc0\n        /* \"#utility.yul\":2950:2959   */\n      dup3\n        /* \"#utility.yul\":2946:2965   */\n      add\n        /* \"#utility.yul\":2938:2965   */\n      swap1\n      pop\n        /* \"#utility.yul\":3011:3020   */\n      dup2\n        /* \"#utility.yul\":3005:3009   */\n      dup2\n        /* \"#utility.yul\":3001:3021   */\n      sub\n        /* \"#utility.yul\":2997:2998   */\n      0x00\n        /* \"#utility.yul\":2986:2995   */\n      dup4\n        /* \"#utility.yul\":2982:2999   */\n      add\n        /* \"#utility.yul\":2975:3022   */\n      mstore\n        /* \"#utility.yul\":3039:3117   */\n      tag_213\n        /* \"#utility.yul\":3112:3116   */\n      dup2\n        /* \"#utility.yul\":3103:3109   */\n      dup10\n        /* \"#utility.yul\":3039:3117   */\n      tag_137\n      jump\t// in\n    tag_213:\n        /* \"#utility.yul\":3031:3117   */\n      swap1\n      pop\n        /* \"#utility.yul\":3164:3173   */\n      dup2\n        /* \"#utility.yul\":3158:3162   */\n      dup2\n        /* \"#utility.yul\":3154:3174   */\n      sub\n        /* \"#utility.yul\":3149:3151   */\n      0x20\n        /* \"#utility.yul\":3138:3147   */\n      dup4\n        /* \"#utility.yul\":3134:3152   */\n      add\n        /* \"#utility.yul\":3127:3175   */\n      mstore\n        /* \"#utility.yul\":3192:3270   */\n      tag_214\n        /* \"#utility.yul\":3265:3269   */\n      dup2\n        /* \"#utility.yul\":3256:3262   */\n      dup9\n        /* \"#utility.yul\":3192:3270   */\n      tag_137\n      jump\t// in\n    tag_214:\n        /* \"#utility.yul\":3184:3270   */\n      swap1\n      pop\n        /* \"#utility.yul\":3317:3326   */\n      dup2\n        /* \"#utility.yul\":3311:3315   */\n      dup2\n        /* \"#utility.yul\":3307:3327   */\n      sub\n        /* \"#utility.yul\":3302:3304   */\n      0x40\n        /* \"#utility.yul\":3291:3300   */\n      dup4\n        /* \"#utility.yul\":3287:3305   */\n      add\n        /* \"#utility.yul\":3280:3328   */\n      mstore\n        /* \"#utility.yul\":3345:3423   */\n      tag_215\n        /* \"#utility.yul\":3418:3422   */\n      dup2\n        /* \"#utility.yul\":3409:3415   */\n      dup8\n        /* \"#utility.yul\":3345:3423   */\n      tag_137\n      jump\t// in\n    tag_215:\n        /* \"#utility.yul\":3337:3423   */\n      swap1\n      pop\n        /* \"#utility.yul\":3433:3505   */\n      tag_216\n        /* \"#utility.yul\":3501:3503   */\n      0x60\n        /* \"#utility.yul\":3490:3499   */\n      dup4\n        /* \"#utility.yul\":3486:3504   */\n      add\n        /* \"#utility.yul\":3477:3483   */\n      dup7\n        /* \"#utility.yul\":3433:3505   */\n      tag_139\n      jump\t// in\n    tag_216:\n        /* \"#utility.yul\":3515:3588   */\n      tag_217\n        /* \"#utility.yul\":3583:3586   */\n      0x80\n        /* \"#utility.yul\":3572:3581   */\n      dup4\n        /* \"#utility.yul\":3568:3587   */\n      add\n        /* \"#utility.yul\":3559:3565   */\n      dup6\n        /* \"#utility.yul\":3515:3588   */\n      tag_140\n      jump\t// in\n    tag_217:\n        /* \"#utility.yul\":3598:3671   */\n      tag_218\n        /* \"#utility.yul\":3666:3669   */\n      0xa0\n        /* \"#utility.yul\":3655:3664   */\n      dup4\n        /* \"#utility.yul\":3651:3670   */\n      add\n        /* \"#utility.yul\":3642:3648   */\n      dup5\n        /* \"#utility.yul\":3598:3671   */\n      tag_143\n      jump\t// in\n    tag_218:\n        /* \"#utility.yul\":2630:3678   */\n      swap8\n      swap7\n      pop\n      pop\n      pop\n      pop\n      pop\n      pop\n      pop\n      jump\t// out\n        /* \"#utility.yul\":3684:3906   */\n    tag_23:\n        /* \"#utility.yul\":3777:3781   */\n      0x00\n        /* \"#utility.yul\":3815:3817   */\n      0x20\n        /* \"#utility.yul\":3804:3813   */\n      dup3\n        /* \"#utility.yul\":3800:3818   */\n      add\n        /* \"#utility.yul\":3792:3818   */\n      swap1\n      pop\n        /* \"#utility.yul\":3828:3899   */\n      tag_220\n        /* \"#utility.yul\":3896:3897   */\n      0x00\n        /* \"#utility.yul\":3885:3894   */\n      dup4\n        /* \"#utility.yul\":3881:3898   */\n      add\n        /* \"#utility.yul\":3872:3878   */\n      dup5\n        /* \"#utility.yul\":3828:3899   */\n      tag_139\n      jump\t// in\n    tag_220:\n        /* \"#utility.yul\":3684:3906   */\n      swap3\n      swap2\n      pop\n      pop\n      jump\t// out\n        /* \"#utility.yul\":3912:4029   */\n    tag_144:\n        /* \"#utility.yul\":4021:4022   */\n      0x00\n        /* \"#utility.yul\":4018:4019   */\n      0x00\n        /* \"#utility.yul\":4011:4023   */\n      revert\n        /* \"#utility.yul\":4035:4152   */\n    tag_145:\n        /* \"#utility.yul\":4144:4145   */\n      0x00\n        /* \"#utility.yul\":4141:4142   */\n      0x00\n        /* \"#utility.yul\":4134:4146   */\n      revert\n        /* \"#utility.yul\":4158:4338   */\n    tag_146:\n        /* \"#utility.yul\":4206:4283   */\n      0x4e487b7100000000000000000000000000000000000000000000000000000000\n        /* \"#utility.yul\":4203:4204   */\n      0x00\n        /* \"#utility.yul\":4196:4284   */\n      mstore\n        /* \"#utility.yul\":4303:4307   */\n      0x41\n        /* \"#utility.yul\":4300:4301   */\n      0x04\n        /* \"#utility.yul\":4293:4308   */\n      mstore\n        /* \"#utility.yul\":4327:4331   */\n      0x24\n        /* \"#utility.yul\":4324:4325   */\n      0x00\n        /* \"#utility.yul\":4317:4332   */\n      revert\n        /* \"#utility.yul\":4344:4625   */\n    tag_147:\n        /* \"#utility.yul\":4427:4454   */\n      tag_225\n        /* \"#utility.yul\":4449:4453   */\n      dup3\n        /* \"#utility.yul\":4427:4454   */\n      tag_136\n      jump\t// in\n    tag_225:\n        /* \"#utility.yul\":4419:4425   */\n      dup2\n        /* \"#utility.yul\":4415:4455   */\n      add\n        /* \"#utility.yul\":4557:4563   */\n      dup2\n        /* \"#utility.yul\":4545:4555   */\n      dup2\n        /* \"#utility.yul\":4542:4564   */\n      lt\n        /* \"#utility.yul\":4521:4539   */\n      0xffffffffffffffff\n        /* \"#utility.yul\":4509:4519   */\n      dup3\n        /* \"#utility.yul\":4506:4540   */\n      gt\n        /* \"#utility.yul\":4503:4565   */\n      or\n        /* \"#utility.yul\":4500:4588   */\n      iszero\n      tag_226\n      jumpi\n        /* \"#utility.yul\":4568:4586   */\n      tag_227\n      tag_146\n      jump\t// in\n    tag_227:\n        /* \"#utility.yul\":4500:4588   */\n    tag_226:\n        /* \"#utility.yul\":4608:4618   */\n      dup1\n        /* \"#utility.yul\":4604:4606   */\n      0x40\n        /* \"#utility.yul\":4597:4619   */\n      mstore\n        /* \"#utility.yul\":4387:4625   */\n      pop\n        /* \"#utility.yul\":4344:4625   */\n      pop\n      pop\n      jump\t// out\n        /* \"#utility.yul\":4631:4760   */\n    tag_148:\n        /* \"#utility.yul\":4665:4671   */\n      0x00\n        /* \"#utility.yul\":4692:4712   */\n      tag_229\n      tag_127\n      jump\t// in\n    tag_229:\n        /* \"#utility.yul\":4682:4712   */\n      swap1\n      pop\n        /* \"#utility.yul\":4721:4754   */\n      tag_230\n        /* \"#utility.yul\":4749:4753   */\n      dup3\n        /* \"#utility.yul\":4741:4747   */\n      dup3\n        /* \"#utility.yul\":4721:4754   */\n      tag_147\n      jump\t// in\n    tag_230:\n        /* \"#utility.yul\":4631:4760   */\n      swap2\n      swap1\n      pop\n      jump\t// out\n        /* \"#utility.yul\":4766:5074   */\n    tag_149:\n        /* \"#utility.yul\":4828:4832   */\n      0x00\n        /* \"#utility.yul\":4918:4936   */\n      0xffffffffffffffff\n        /* \"#utility.yul\":4910:4916   */\n      dup3\n        /* \"#utility.yul\":4907:4937   */\n      gt\n        /* \"#utility.yul\":4904:4960   */\n      iszero\n      tag_232\n      jumpi\n        /* \"#utility.yul\":4940:4958   */\n      tag_233\n      tag_146\n      jump\t// in\n    tag_233:\n        /* \"#utility.yul\":4904:4960   */\n    tag_232:\n        /* \"#utility.yul\":4978:5007   */\n      tag_234\n        /* \"#utility.yul\":5000:5006   */\n      dup3\n        /* \"#utility.yul\":4978:5007   */\n      tag_136\n      jump\t// in\n    tag_234:\n        /* \"#utility.yul\":4970:5007   */\n      swap1\n      pop\n        /* \"#utility.yul\":5062:5066   */\n      0x20\n        /* \"#utility.yul\":5056:5060   */\n      dup2\n        /* \"#utility.yul\":5052:5067   */\n      add\n        /* \"#utility.yul\":5044:5067   */\n      swap1\n      pop\n        /* \"#utility.yul\":4766:5074   */\n      swap2\n      swap1\n      pop\n      jump\t// out\n        /* \"#utility.yul\":5080:5228   */\n    tag_150:\n        /* \"#utility.yul\":5178:5184   */\n      dup3\n        /* \"#utility.yul\":5173:5176   */\n      dup2\n        /* \"#utility.yul\":5168:5171   */\n      dup4\n        /* \"#utility.yul\":5155:5185   */\n      calldatacopy\n        /* \"#utility.yul\":5219:5220   */\n      0x00\n        /* \"#utility.yul\":5210:5216   */\n      dup4\n        /* \"#utility.yul\":5205:5208   */\n      dup4\n        /* \"#utility.yul\":5201:5217   */\n      add\n        /* \"#utility.yul\":5194:5221   */\n      mstore\n        /* \"#utility.yul\":5080:5228   */\n      pop\n      pop\n      pop\n      jump\t// out\n        /* \"#utility.yul\":5234:5659   */\n    tag_151:\n        /* \"#utility.yul\":5312:5317   */\n      0x00\n        /* \"#utility.yul\":5337:5403   */\n      tag_237\n        /* \"#utility.yul\":5353:5402   */\n      tag_238\n        /* \"#utility.yul\":5395:5401   */\n      dup5\n        /* \"#utility.yul\":5353:5402   */\n      tag_149\n      jump\t// in\n    tag_238:\n        /* \"#utility.yul\":5337:5403   */\n      tag_148\n      jump\t// in\n    tag_237:\n        /* \"#utility.yul\":5328:5403   */\n      swap1\n      pop\n        /* \"#utility.yul\":5426:5432   */\n      dup3\n        /* \"#utility.yul\":5419:5424   */\n      dup2\n        /* \"#utility.yul\":5412:5433   */\n      mstore\n        /* \"#utility.yul\":5464:5468   */\n      0x20\n        /* \"#utility.yul\":5457:5462   */\n      dup2\n        /* \"#utility.yul\":5453:5469   */\n      add\n        /* \"#utility.yul\":5502:5505   */\n      dup5\n        /* \"#utility.yul\":5493:5499   */\n      dup5\n        /* \"#utility.yul\":5488:5491   */\n      dup5\n        /* \"#utility.yul\":5484:5500   */\n      add\n        /* \"#utility.yul\":5481:5506   */\n      gt\n        /* \"#utility.yul\":5478:5590   */\n      iszero\n      tag_239\n      jumpi\n        /* \"#utility.yul\":5509:5588   */\n      tag_240\n      tag_145\n      jump\t// in\n    tag_240:\n        /* \"#utility.yul\":5478:5590   */\n    tag_239:\n        /* \"#utility.yul\":5599:5653   */\n      tag_241\n        /* \"#utility.yul\":5646:5652   */\n      dup5\n        /* \"#utility.yul\":5641:5644   */\n      dup3\n        /* \"#utility.yul\":5636:5639   */\n      dup6\n        /* \"#utility.yul\":5599:5653   */\n      tag_150\n      jump\t// in\n    tag_241:\n        /* \"#utility.yul\":5318:5659   */\n      pop\n        /* \"#utility.yul\":5234:5659   */\n      swap4\n      swap3\n      pop\n      pop\n      pop\n      jump\t// out\n        /* \"#utility.yul\":5679:6019   */\n    tag_152:\n        /* \"#utility.yul\":5735:5740   */\n      0x00\n        /* \"#utility.yul\":5784:5787   */\n      dup3\n        /* \"#utility.yul\":5777:5781   */\n      0x1f\n        /* \"#utility.yul\":5769:5775   */\n      dup4\n        /* \"#utility.yul\":5765:5782   */\n      add\n        /* \"#utility.yul\":5761:5788   */\n      slt\n        /* \"#utility.yul\":5751:5873   */\n      tag_243\n      jumpi\n        /* \"#utility.yul\":5792:5871   */\n      tag_244\n      tag_144\n      jump\t// in\n    tag_244:\n        /* \"#utility.yul\":5751:5873   */\n    tag_243:\n        /* \"#utility.yul\":5909:5915   */\n      dup2\n        /* \"#utility.yul\":5896:5916   */\n      calldataload\n        /* \"#utility.yul\":5934:6013   */\n      tag_245\n        /* \"#utility.yul\":6009:6012   */\n      dup5\n        /* \"#utility.yul\":6001:6007   */\n      dup3\n        /* \"#utility.yul\":5994:5998   */\n      0x20\n        /* \"#utility.yul\":5986:5992   */\n      dup7\n        /* \"#utility.yul\":5982:5999   */\n      add\n        /* \"#utility.yul\":5934:6013   */\n      tag_151\n      jump\t// in\n    tag_245:\n        /* \"#utility.yul\":5925:6013   */\n      swap2\n      pop\n        /* \"#utility.yul\":5741:6019   */\n      pop\n        /* \"#utility.yul\":5679:6019   */\n      swap3\n      swap2\n      pop\n      pop\n      jump\t// out\n        /* \"#utility.yul\":6025:7330   */\n    tag_26:\n        /* \"#utility.yul\":6141:6147   */\n      0x00\n        /* \"#utility.yul\":6149:6155   */\n      0x00\n        /* \"#utility.yul\":6157:6163   */\n      0x00\n        /* \"#utility.yul\":6165:6171   */\n      0x00\n        /* \"#utility.yul\":6214:6217   */\n      0x80\n        /* \"#utility.yul\":6202:6211   */\n      dup6\n        /* \"#utility.yul\":6193:6200   */\n      dup8\n        /* \"#utility.yul\":6189:6212   */\n      sub\n        /* \"#utility.yul\":6185:6218   */\n      slt\n        /* \"#utility.yul\":6182:6302   */\n      iszero\n      tag_247\n      jumpi\n        /* \"#utility.yul\":6221:6300   */\n      tag_248\n      tag_128\n      jump\t// in\n    tag_248:\n        /* \"#utility.yul\":6182:6302   */\n    tag_247:\n        /* \"#utility.yul\":6369:6370   */\n      0x00\n        /* \"#utility.yul\":6358:6367   */\n      dup6\n        /* \"#utility.yul\":6354:6371   */\n      add\n        /* \"#utility.yul\":6341:6372   */\n      calldataload\n        /* \"#utility.yul\":6399:6417   */\n      0xffffffffffffffff\n        /* \"#utility.yul\":6391:6397   */\n      dup2\n        /* \"#utility.yul\":6388:6418   */\n      gt\n        /* \"#utility.yul\":6385:6502   */\n      iszero\n      tag_249\n      jumpi\n        /* \"#utility.yul\":6421:6500   */\n      tag_250\n      tag_129\n      jump\t// in\n    tag_250:\n        /* \"#utility.yul\":6385:6502   */\n    tag_249:\n        /* \"#utility.yul\":6526:6589   */\n      tag_251\n        /* \"#utility.yul\":6581:6588   */\n      dup8\n        /* \"#utility.yul\":6572:6578   */\n      dup3\n        /* \"#utility.yul\":6561:6570   */\n      dup9\n        /* \"#utility.yul\":6557:6579   */\n      add\n        /* \"#utility.yul\":6526:6589   */\n      tag_152\n      jump\t// in\n    tag_251:\n        /* \"#utility.yul\":6516:6589   */\n      swap5\n      pop\n        /* \"#utility.yul\":6312:6599   */\n      pop\n        /* \"#utility.yul\":6666:6668   */\n      0x20\n        /* \"#utility.yul\":6655:6664   */\n      dup6\n        /* \"#utility.yul\":6651:6669   */\n      add\n        /* \"#utility.yul\":6638:6670   */\n      calldataload\n        /* \"#utility.yul\":6697:6715   */\n      0xffffffffffffffff\n        /* \"#utility.yul\":6689:6695   */\n      dup2\n        /* \"#utility.yul\":6686:6716   */\n      gt\n        /* \"#utility.yul\":6683:6800   */\n      iszero\n      tag_252\n      jumpi\n        /* \"#utility.yul\":6719:6798   */\n      tag_253\n      tag_129\n      jump\t// in\n    tag_253:\n        /* \"#utility.yul\":6683:6800   */\n    tag_252:\n        /* \"#utility.yul\":6824:6887   */\n      tag_254\n        /* \"#utility.yul\":6879:6886   */\n      dup8\n        /* \"#utility.yul\":6870:6876   */\n      dup3\n        /* \"#utility.yul\":6859:6868   */\n      dup9\n        /* \"#utility.yul\":6855:6877   */\n      add\n        /* \"#utility.yul\":6824:6887   */\n      tag_152\n      jump\t// in\n    tag_254:\n        /* \"#utility.yul\":6814:6887   */\n      swap4\n      pop\n        /* \"#utility.yul\":6609:6897   */\n      pop\n        /* \"#utility.yul\":6964:6966   */\n      0x40\n        /* \"#utility.yul\":6953:6962   */\n      dup6\n        /* \"#utility.yul\":6949:6967   */\n      add\n        /* \"#utility.yul\":6936:6968   */\n      calldataload\n        /* \"#utility.yul\":6995:7013   */\n      0xffffffffffffffff\n        /* \"#utility.yul\":6987:6993   */\n      dup2\n        /* \"#utility.yul\":6984:7014   */\n      gt\n        /* \"#utility.yul\":6981:7098   */\n      iszero\n      tag_255\n      jumpi\n        /* \"#utility.yul\":7017:7096   */\n      tag_256\n      tag_129\n      jump\t// in\n    tag_256:\n        /* \"#utility.yul\":6981:7098   */\n    tag_255:\n        /* \"#utility.yul\":7122:7185   */\n      tag_257\n        /* \"#utility.yul\":7177:7184   */\n      dup8\n        /* \"#utility.yul\":7168:7174   */\n      dup3\n        /* \"#utility.yul\":7157:7166   */\n      dup9\n        /* \"#utility.yul\":7153:7175   */\n      add\n        /* \"#utility.yul\":7122:7185   */\n      tag_152\n      jump\t// in\n    tag_257:\n        /* \"#utility.yul\":7112:7185   */\n      swap3\n      pop\n        /* \"#utility.yul\":6907:7195   */\n      pop\n        /* \"#utility.yul\":7234:7236   */\n      0x60\n        /* \"#utility.yul\":7260:7313   */\n      tag_258\n        /* \"#utility.yul\":7305:7312   */\n      dup8\n        /* \"#utility.yul\":7296:7302   */\n      dup3\n        /* \"#utility.yul\":7285:7294   */\n      dup9\n        /* \"#utility.yul\":7281:7303   */\n      add\n        /* \"#utility.yul\":7260:7313   */\n      tag_132\n      jump\t// in\n    tag_258:\n        /* \"#utility.yul\":7250:7313   */\n      swap2\n      pop\n        /* \"#utility.yul\":7205:7323   */\n      pop\n        /* \"#utility.yul\":6025:7330   */\n      swap3\n      swap6\n      swap2\n      swap5\n      pop\n      swap3\n      pop\n      jump\t// out\n        /* \"#utility.yul\":7336:7426   */\n    tag_153:\n        /* \"#utility.yul\":7370:7377   */\n      0x00\n        /* \"#utility.yul\":7413:7418   */\n      dup2\n        /* \"#utility.yul\":7406:7419   */\n      iszero\n        /* \"#utility.yul\":7399:7420   */\n      iszero\n        /* \"#utility.yul\":7388:7420   */\n      swap1\n      pop\n        /* \"#utility.yul\":7336:7426   */\n      swap2\n      swap1\n      pop\n      jump\t// out\n        /* \"#utility.yul\":7432:7541   */\n    tag_154:\n        /* \"#utility.yul\":7513:7534   */\n      tag_261\n        /* \"#utility.yul\":7528:7533   */\n      dup2\n        /* \"#utility.yul\":7513:7534   */\n      tag_153\n      jump\t// in\n    tag_261:\n        /* \"#utility.yul\":7508:7511   */\n      dup3\n        /* \"#utility.yul\":7501:7535   */\n      mstore\n        /* \"#utility.yul\":7432:7541   */\n      pop\n      pop\n      jump\t// out\n        /* \"#utility.yul\":7547:7757   */\n    tag_29:\n        /* \"#utility.yul\":7634:7638   */\n      0x00\n        /* \"#utility.yul\":7672:7674   */\n      0x20\n        /* \"#utility.yul\":7661:7670   */\n      dup3\n        /* \"#utility.yul\":7657:7675   */\n      add\n        /* \"#utility.yul\":7649:7675   */\n      swap1\n      pop\n        /* \"#utility.yul\":7685:7750   */\n      tag_263\n        /* \"#utility.yul\":7747:7748   */\n      0x00\n        /* \"#utility.yul\":7736:7745   */\n      dup4\n        /* \"#utility.yul\":7732:7749   */\n      add\n        /* \"#utility.yul\":7723:7729   */\n      dup5\n        /* \"#utility.yul\":7685:7750   */\n      tag_154\n      jump\t// in\n    tag_263:\n        /* \"#utility.yul\":7547:7757   */\n      swap3\n      swap2\n      pop\n      pop\n      jump\t// out\n        /* \"#utility.yul\":7763:8597   */\n    tag_32:\n        /* \"#utility.yul\":7851:7857   */\n      0x00\n        /* \"#utility.yul\":7859:7865   */\n      0x00\n        /* \"#utility.yul\":7908:7910   */\n      0x40\n        /* \"#utility.yul\":7896:7905   */\n      dup4\n        /* \"#utility.yul\":7887:7894   */\n      dup6\n        /* \"#utility.yul\":7883:7906   */\n      sub\n        /* \"#utility.yul\":7879:7911   */\n      slt\n        /* \"#utility.yul\":7876:7995   */\n      iszero\n      tag_265\n      jumpi\n        /* \"#utility.yul\":7914:7993   */\n      tag_266\n      tag_128\n      jump\t// in\n    tag_266:\n        /* \"#utility.yul\":7876:7995   */\n    tag_265:\n        /* \"#utility.yul\":8062:8063   */\n      0x00\n        /* \"#utility.yul\":8051:8060   */\n      dup4\n        /* \"#utility.yul\":8047:8064   */\n      add\n        /* \"#utility.yul\":8034:8065   */\n      calldataload\n        /* \"#utility.yul\":8092:8110   */\n      0xffffffffffffffff\n        /* \"#utility.yul\":8084:8090   */\n      dup2\n        /* \"#utility.yul\":8081:8111   */\n      gt\n        /* \"#utility.yul\":8078:8195   */\n      iszero\n      tag_267\n      jumpi\n        /* \"#utility.yul\":8114:8193   */\n      tag_268\n      tag_129\n      jump\t// in\n    tag_268:\n        /* \"#utility.yul\":8078:8195   */\n    tag_267:\n        /* \"#utility.yul\":8219:8282   */\n      tag_269\n        /* \"#utility.yul\":8274:8281   */\n      dup6\n        /* \"#utility.yul\":8265:8271   */\n      dup3\n        /* \"#utility.yul\":8254:8263   */\n      dup7\n        /* \"#utility.yul\":8250:8272   */\n      add\n        /* \"#utility.yul\":8219:8282   */\n      tag_152\n      jump\t// in\n    tag_269:\n        /* \"#utility.yul\":8209:8282   */\n      swap3\n      pop\n        /* \"#utility.yul\":8005:8292   */\n      pop\n        /* \"#utility.yul\":8359:8361   */\n      0x20\n        /* \"#utility.yul\":8348:8357   */\n      dup4\n        /* \"#utility.yul\":8344:8362   */\n      add\n        /* \"#utility.yul\":8331:8363   */\n      calldataload\n        /* \"#utility.yul\":8390:8408   */\n      0xffffffffffffffff\n        /* \"#utility.yul\":8382:8388   */\n      dup2\n        /* \"#utility.yul\":8379:8409   */\n      gt\n        /* \"#utility.yul\":8376:8493   */\n      iszero\n      tag_270\n      jumpi\n        /* \"#utility.yul\":8412:8491   */\n      tag_271\n      tag_129\n      jump\t// in\n    tag_271:\n        /* \"#utility.yul\":8376:8493   */\n    tag_270:\n        /* \"#utility.yul\":8517:8580   */\n      tag_272\n        /* \"#utility.yul\":8572:8579   */\n      dup6\n        /* \"#utility.yul\":8563:8569   */\n      dup3\n        /* \"#utility.yul\":8552:8561   */\n      dup7\n        /* \"#utility.yul\":8548:8570   */\n      add\n        /* \"#utility.yul\":8517:8580   */\n      tag_152\n      jump\t// in\n    tag_272:\n        /* \"#utility.yul\":8507:8580   */\n      swap2\n      pop\n        /* \"#utility.yul\":8302:8590   */\n      pop\n        /* \"#utility.yul\":7763:8597   */\n      swap3\n      pop\n      swap3\n      swap1\n      pop\n      jump\t// out\n        /* \"#utility.yul\":8603:8825   */\n    tag_38:\n        /* \"#utility.yul\":8696:8700   */\n      0x00\n        /* \"#utility.yul\":8734:8736   */\n      0x20\n        /* \"#utility.yul\":8723:8732   */\n      dup3\n        /* \"#utility.yul\":8719:8737   */\n      add\n        /* \"#utility.yul\":8711:8737   */\n      swap1\n      pop\n        /* \"#utility.yul\":8747:8818   */\n      tag_274\n        /* \"#utility.yul\":8815:8816   */\n      0x00\n        /* \"#utility.yul\":8804:8813   */\n      dup4\n        /* \"#utility.yul\":8800:8817   */\n      add\n        /* \"#utility.yul\":8791:8797   */\n      dup5\n        /* \"#utility.yul\":8747:8818   */\n      tag_143\n      jump\t// in\n    tag_274:\n        /* \"#utility.yul\":8603:8825   */\n      swap3\n      swap2\n      pop\n      pop\n      jump\t// out\n        /* \"#utility.yul\":8831:8953   */\n    tag_155:\n        /* \"#utility.yul\":8904:8928   */\n      tag_276\n        /* \"#utility.yul\":8922:8927   */\n      dup2\n        /* \"#utility.yul\":8904:8928   */\n      tag_138\n      jump\t// in\n    tag_276:\n        /* \"#utility.yul\":8897:8902   */\n      dup2\n        /* \"#utility.yul\":8894:8929   */\n      eq\n        /* \"#utility.yul\":8884:8947   */\n      tag_277\n      jumpi\n        /* \"#utility.yul\":8943:8944   */\n      0x00\n        /* \"#utility.yul\":8940:8941   */\n      0x00\n        /* \"#utility.yul\":8933:8945   */\n      revert\n        /* \"#utility.yul\":8884:8947   */\n    tag_277:\n        /* \"#utility.yul\":8831:8953   */\n      pop\n      jump\t// out\n        /* \"#utility.yul\":8959:9098   */\n    tag_156:\n        /* \"#utility.yul\":9005:9010   */\n      0x00\n        /* \"#utility.yul\":9043:9049   */\n      dup2\n        /* \"#utility.yul\":9030:9050   */\n      calldataload\n        /* \"#utility.yul\":9021:9050   */\n      swap1\n      pop\n        /* \"#utility.yul\":9059:9092   */\n      tag_279\n        /* \"#utility.yul\":9086:9091   */\n      dup2\n        /* \"#utility.yul\":9059:9092   */\n      tag_155\n      jump\t// in\n    tag_279:\n        /* \"#utility.yul\":8959:9098   */\n      swap3\n      swap2\n      pop\n      pop\n      jump\t// out\n        /* \"#utility.yul\":9104:9433   */\n    tag_41:\n        /* \"#utility.yul\":9163:9169   */\n      0x00\n        /* \"#utility.yul\":9212:9214   */\n      0x20\n        /* \"#utility.yul\":9200:9209   */\n      dup3\n        /* \"#utility.yul\":9191:9198   */\n      dup5\n        /* \"#utility.yul\":9187:9210   */\n      sub\n        /* \"#utility.yul\":9183:9215   */\n      slt\n        /* \"#utility.yul\":9180:9299   */\n      iszero\n      tag_281\n      jumpi\n        /* \"#utility.yul\":9218:9297   */\n      tag_282\n      tag_128\n      jump\t// in\n    tag_282:\n        /* \"#utility.yul\":9180:9299   */\n    tag_281:\n        /* \"#utility.yul\":9338:9339   */\n      0x00\n        /* \"#utility.yul\":9363:9416   */\n      tag_283\n        /* \"#utility.yul\":9408:9415   */\n      dup5\n        /* \"#utility.yul\":9399:9405   */\n      dup3\n        /* \"#utility.yul\":9388:9397   */\n      dup6\n        /* \"#utility.yul\":9384:9406   */\n      add\n        /* \"#utility.yul\":9363:9416   */\n      tag_156\n      jump\t// in\n    tag_283:\n        /* \"#utility.yul\":9353:9416   */\n      swap2\n      pop\n        /* \"#utility.yul\":9309:9426   */\n      pop\n        /* \"#utility.yul\":9104:9433   */\n      swap3\n      swap2\n      pop\n      pop\n      jump\t// out\n        /* \"#utility.yul\":9439:9661   */\n    tag_44:\n        /* \"#utility.yul\":9532:9536   */\n      0x00\n        /* \"#utility.yul\":9570:9572   */\n      0x20\n        /* \"#utility.yul\":9559:9568   */\n      dup3\n        /* \"#utility.yul\":9555:9573   */\n      add\n        /* \"#utility.yul\":9547:9573   */\n      swap1\n      pop\n        /* \"#utility.yul\":9583:9654   */\n      tag_285\n        /* \"#utility.yul\":9651:9652   */\n      0x00\n        /* \"#utility.yul\":9640:9649   */\n      dup4\n        /* \"#utility.yul\":9636:9653   */\n      add\n        /* \"#utility.yul\":9627:9633   */\n      dup5\n        /* \"#utility.yul\":9583:9654   */\n      tag_140\n      jump\t// in\n    tag_285:\n        /* \"#utility.yul\":9439:9661   */\n      swap3\n      swap2\n      pop\n      pop\n      jump\t// out\n        /* \"#utility.yul\":9667:10604   */\n    tag_49:\n        /* \"#utility.yul\":9932:9936   */\n      0x00\n        /* \"#utility.yul\":9970:9973   */\n      0xa0\n        /* \"#utility.yul\":9959:9968   */\n      dup3\n        /* \"#utility.yul\":9955:9974   */\n      add\n        /* \"#utility.yul\":9947:9974   */\n      swap1\n      pop\n        /* \"#utility.yul\":10020:10029   */\n      dup2\n        /* \"#utility.yul\":10014:10018   */\n      dup2\n        /* \"#utility.yul\":10010:10030   */\n      sub\n        /* \"#utility.yul\":10006:10007   */\n      0x00\n        /* \"#utility.yul\":9995:10004   */\n      dup4\n        /* \"#utility.yul\":9991:10008   */\n      add\n        /* \"#utility.yul\":9984:10031   */\n      mstore\n        /* \"#utility.yul\":10048:10126   */\n      tag_287\n        /* \"#utility.yul\":10121:10125   */\n      dup2\n        /* \"#utility.yul\":10112:10118   */\n      dup9\n        /* \"#utility.yul\":10048:10126   */\n      tag_137\n      jump\t// in\n    tag_287:\n        /* \"#utility.yul\":10040:10126   */\n      swap1\n      pop\n        /* \"#utility.yul\":10173:10182   */\n      dup2\n        /* \"#utility.yul\":10167:10171   */\n      dup2\n        /* \"#utility.yul\":10163:10183   */\n      sub\n        /* \"#utility.yul\":10158:10160   */\n      0x20\n        /* \"#utility.yul\":10147:10156   */\n      dup4\n        /* \"#utility.yul\":10143:10161   */\n      add\n        /* \"#utility.yul\":10136:10184   */\n      mstore\n        /* \"#utility.yul\":10201:10279   */\n      tag_288\n        /* \"#utility.yul\":10274:10278   */\n      dup2\n        /* \"#utility.yul\":10265:10271   */\n      dup8\n        /* \"#utility.yul\":10201:10279   */\n      tag_137\n      jump\t// in\n    tag_288:\n        /* \"#utility.yul\":10193:10279   */\n      swap1\n      pop\n        /* \"#utility.yul\":10326:10335   */\n      dup2\n        /* \"#utility.yul\":10320:10324   */\n      dup2\n        /* \"#utility.yul\":10316:10336   */\n      sub\n        /* \"#utility.yul\":10311:10313   */\n      0x40\n        /* \"#utility.yul\":10300:10309   */\n      dup4\n        /* \"#utility.yul\":10296:10314   */\n      add\n        /* \"#utility.yul\":10289:10337   */\n      mstore\n        /* \"#utility.yul\":10354:10432   */\n      tag_289\n        /* \"#utility.yul\":10427:10431   */\n      dup2\n        /* \"#utility.yul\":10418:10424   */\n      dup7\n        /* \"#utility.yul\":10354:10432   */\n      tag_137\n      jump\t// in\n    tag_289:\n        /* \"#utility.yul\":10346:10432   */\n      swap1\n      pop\n        /* \"#utility.yul\":10442:10514   */\n      tag_290\n        /* \"#utility.yul\":10510:10512   */\n      0x60\n        /* \"#utility.yul\":10499:10508   */\n      dup4\n        /* \"#utility.yul\":10495:10513   */\n      add\n        /* \"#utility.yul\":10486:10492   */\n      dup6\n        /* \"#utility.yul\":10442:10514   */\n      tag_139\n      jump\t// in\n    tag_290:\n        /* \"#utility.yul\":10524:10597   */\n      tag_291\n        /* \"#utility.yul\":10592:10595   */\n      0x80\n        /* \"#utility.yul\":10581:10590   */\n      dup4\n        /* \"#utility.yul\":10577:10596   */\n      add\n        /* \"#utility.yul\":10568:10574   */\n      dup5\n        /* \"#utility.yul\":10524:10597   */\n      tag_143\n      jump\t// in\n    tag_291:\n        /* \"#utility.yul\":9667:10604   */\n      swap7\n      swap6\n      pop\n      pop\n      pop\n      pop\n      pop\n      pop\n      jump\t// out\n        /* \"#utility.yul\":10610:11084   */\n    tag_56:\n        /* \"#utility.yul\":10678:10684   */\n      0x00\n        /* \"#utility.yul\":10686:10692   */\n      0x00\n        /* \"#utility.yul\":10735:10737   */\n      0x40\n        /* \"#utility.yul\":10723:10732   */\n      dup4\n        /* \"#utility.yul\":10714:10721   */\n      dup6\n        /* \"#utility.yul\":10710:10733   */\n      sub\n        /* \"#utility.yul\":10706:10738   */\n      slt\n        /* \"#utility.yul\":10703:10822   */\n      iszero\n      tag_293\n      jumpi\n        /* \"#utility.yul\":10741:10820   */\n      tag_294\n      tag_128\n      jump\t// in\n    tag_294:\n        /* \"#utility.yul\":10703:10822   */\n    tag_293:\n        /* \"#utility.yul\":10861:10862   */\n      0x00\n        /* \"#utility.yul\":10886:10939   */\n      tag_295\n        /* \"#utility.yul\":10931:10938   */\n      dup6\n        /* \"#utility.yul\":10922:10928   */\n      dup3\n        /* \"#utility.yul\":10911:10920   */\n      dup7\n        /* \"#utility.yul\":10907:10929   */\n      add\n        /* \"#utility.yul\":10886:10939   */\n      tag_132\n      jump\t// in\n    tag_295:\n        /* \"#utility.yul\":10876:10939   */\n      swap3\n      pop\n        /* \"#utility.yul\":10832:10949   */\n      pop\n        /* \"#utility.yul\":10988:10990   */\n      0x20\n        /* \"#utility.yul\":11014:11067   */\n      tag_296\n        /* \"#utility.yul\":11059:11066   */\n      dup6\n        /* \"#utility.yul\":11050:11056   */\n      dup3\n        /* \"#utility.yul\":11039:11048   */\n      dup7\n        /* \"#utility.yul\":11035:11057   */\n      add\n        /* \"#utility.yul\":11014:11067   */\n      tag_156\n      jump\t// in\n    tag_296:\n        /* \"#utility.yul\":11004:11067   */\n      swap2\n      pop\n        /* \"#utility.yul\":10959:11077   */\n      pop\n        /* \"#utility.yul\":10610:11084   */\n      swap3\n      pop\n      swap3\n      swap1\n      pop\n      jump\t// out\n        /* \"#utility.yul\":11090:12069   */\n    tag_61:\n        /* \"#utility.yul\":11187:11193   */\n      0x00\n        /* \"#utility.yul\":11195:11201   */\n      0x00\n        /* \"#utility.yul\":11203:11209   */\n      0x00\n        /* \"#utility.yul\":11252:11254   */\n      0x60\n        /* \"#utility.yul\":11240:11249   */\n      dup5\n        /* \"#utility.yul\":11231:11238   */\n      dup7\n        /* \"#utility.yul\":11227:11250   */\n      sub\n        /* \"#utility.yul\":11223:11255   */\n      slt\n        /* \"#utility.yul\":11220:11339   */\n      iszero\n      tag_298\n      jumpi\n        /* \"#utility.yul\":11258:11337   */\n      tag_299\n      tag_128\n      jump\t// in\n    tag_299:\n        /* \"#utility.yul\":11220:11339   */\n    tag_298:\n        /* \"#utility.yul\":11406:11407   */\n      0x00\n        /* \"#utility.yul\":11395:11404   */\n      dup5\n        /* \"#utility.yul\":11391:11408   */\n      add\n        /* \"#utility.yul\":11378:11409   */\n      calldataload\n        /* \"#utility.yul\":11436:11454   */\n      0xffffffffffffffff\n        /* \"#utility.yul\":11428:11434   */\n      dup2\n        /* \"#utility.yul\":11425:11455   */\n      gt\n        /* \"#utility.yul\":11422:11539   */\n      iszero\n      tag_300\n      jumpi\n        /* \"#utility.yul\":11458:11537   */\n      tag_301\n      tag_129\n      jump\t// in\n    tag_301:\n        /* \"#utility.yul\":11422:11539   */\n    tag_300:\n        /* \"#utility.yul\":11563:11626   */\n      tag_302\n        /* \"#utility.yul\":11618:11625   */\n      dup7\n        /* \"#utility.yul\":11609:11615   */\n      dup3\n        /* \"#utility.yul\":11598:11607   */\n      dup8\n        /* \"#utility.yul\":11594:11616   */\n      add\n        /* \"#utility.yul\":11563:11626   */\n      tag_152\n      jump\t// in\n    tag_302:\n        /* \"#utility.yul\":11553:11626   */\n      swap4\n      pop\n        /* \"#utility.yul\":11349:11636   */\n      pop\n        /* \"#utility.yul\":11703:11705   */\n      0x20\n        /* \"#utility.yul\":11692:11701   */\n      dup5\n        /* \"#utility.yul\":11688:11706   */\n      add\n        /* \"#utility.yul\":11675:11707   */\n      calldataload\n        /* \"#utility.yul\":11734:11752   */\n      0xffffffffffffffff\n        /* \"#utility.yul\":11726:11732   */\n      dup2\n        /* \"#utility.yul\":11723:11753   */\n      gt\n        /* \"#utility.yul\":11720:11837   */\n      iszero\n      tag_303\n      jumpi\n        /* \"#utility.yul\":11756:11835   */\n      tag_304\n      tag_129\n      jump\t// in\n    tag_304:\n        /* \"#utility.yul\":11720:11837   */\n    tag_303:\n        /* \"#utility.yul\":11861:11924   */\n      tag_305\n        /* \"#utility.yul\":11916:11923   */\n      dup7\n        /* \"#utility.yul\":11907:11913   */\n      dup3\n        /* \"#utility.yul\":11896:11905   */\n      dup8\n        /* \"#utility.yul\":11892:11914   */\n      add\n        /* \"#utility.yul\":11861:11924   */\n      tag_152\n      jump\t// in\n    tag_305:\n        /* \"#utility.yul\":11851:11924   */\n      swap3\n      pop\n        /* \"#utility.yul\":11646:11934   */\n      pop\n        /* \"#utility.yul\":11973:11975   */\n      0x40\n        /* \"#utility.yul\":11999:12052   */\n      tag_306\n        /* \"#utility.yul\":12044:12051   */\n      dup7\n        /* \"#utility.yul\":12035:12041   */\n      dup3\n        /* \"#utility.yul\":12024:12033   */\n      dup8\n        /* \"#utility.yul\":12020:12042   */\n      add\n        /* \"#utility.yul\":11999:12052   */\n      tag_156\n      jump\t// in\n    tag_306:\n        /* \"#utility.yul\":11989:12052   */\n      swap2\n      pop\n        /* \"#utility.yul\":11944:12062   */\n      pop\n        /* \"#utility.yul\":11090:12069   */\n      swap3\n      pop\n      swap3\n      pop\n      swap3\n      jump\t// out\n        /* \"#utility.yul\":12075:12255   */\n    tag_157:\n        /* \"#utility.yul\":12123:12200   */\n      0x4e487b7100000000000000000000000000000000000000000000000000000000\n        /* \"#utility.yul\":12120:12121   */\n      0x00\n        /* \"#utility.yul\":12113:12201   */\n      mstore\n        /* \"#utility.yul\":12220:12224   */\n      0x22\n        /* \"#utility.yul\":12217:12218   */\n      0x04\n        /* \"#utility.yul\":12210:12225   */\n      mstore\n        /* \"#utility.yul\":12244:12248   */\n      0x24\n        /* \"#utility.yul\":12241:12242   */\n      0x00\n        /* \"#utility.yul\":12234:12249   */\n      revert\n        /* \"#utility.yul\":12261:12581   */\n    tag_65:\n        /* \"#utility.yul\":12305:12311   */\n      0x00\n        /* \"#utility.yul\":12342:12343   */\n      0x02\n        /* \"#utility.yul\":12336:12340   */\n      dup3\n        /* \"#utility.yul\":12332:12344   */\n      div\n        /* \"#utility.yul\":12322:12344   */\n      swap1\n      pop\n        /* \"#utility.yul\":12389:12390   */\n      0x01\n        /* \"#utility.yul\":12383:12387   */\n      dup3\n        /* \"#utility.yul\":12379:12391   */\n      and\n        /* \"#utility.yul\":12410:12428   */\n      dup1\n        /* \"#utility.yul\":12400:12481   */\n      tag_309\n      jumpi\n        /* \"#utility.yul\":12466:12470   */\n      0x7f\n        /* \"#utility.yul\":12458:12464   */\n      dup3\n        /* \"#utility.yul\":12454:12471   */\n      and\n        /* \"#utility.yul\":12444:12471   */\n      swap2\n      pop\n        /* \"#utility.yul\":12400:12481   */\n    tag_309:\n        /* \"#utility.yul\":12528:12530   */\n      0x20\n        /* \"#utility.yul\":12520:12526   */\n      dup3\n        /* \"#utility.yul\":12517:12531   */\n      lt\n        /* \"#utility.yul\":12497:12515   */\n      dup2\n        /* \"#utility.yul\":12494:12532   */\n      sub\n        /* \"#utility.yul\":12491:12575   */\n      tag_310\n      jumpi\n        /* \"#utility.yul\":12547:12565   */\n      tag_311\n      tag_157\n      jump\t// in\n    tag_311:\n        /* \"#utility.yul\":12491:12575   */\n    tag_310:\n        /* \"#utility.yul\":12312:12581   */\n      pop\n        /* \"#utility.yul\":12261:12581   */\n      swap2\n      swap1\n      pop\n      jump\t// out\n        /* \"#utility.yul\":12587:12728   */\n    tag_158:\n        /* \"#utility.yul\":12636:12640   */\n      0x00\n        /* \"#utility.yul\":12659:12662   */\n      dup2\n        /* \"#utility.yul\":12651:12662   */\n      swap1\n      pop\n        /* \"#utility.yul\":12682:12685   */\n      dup2\n        /* \"#utility.yul\":12679:12680   */\n      0x00\n        /* \"#utility.yul\":12672:12686   */\n      mstore\n        /* \"#utility.yul\":12716:12720   */\n      0x20\n        /* \"#utility.yul\":12713:12714   */\n      0x00\n        /* \"#utility.yul\":12703:12721   */\n      keccak256\n        /* \"#utility.yul\":12695:12721   */\n      swap1\n      pop\n        /* \"#utility.yul\":12587:12728   */\n      swap2\n      swap1\n      pop\n      jump\t// out\n        /* \"#utility.yul\":12734:12827   */\n    tag_159:\n        /* \"#utility.yul\":12771:12777   */\n      0x00\n        /* \"#utility.yul\":12818:12820   */\n      0x20\n        /* \"#utility.yul\":12813:12815   */\n      0x1f\n        /* \"#utility.yul\":12806:12811   */\n      dup4\n        /* \"#utility.yul\":12802:12816   */\n      add\n        /* \"#utility.yul\":12798:12821   */\n      div\n        /* \"#utility.yul\":12788:12821   */\n      swap1\n      pop\n        /* \"#utility.yul\":12734:12827   */\n      swap2\n      swap1\n      pop\n      jump\t// out\n        /* \"#utility.yul\":12833:12940   */\n    tag_160:\n        /* \"#utility.yul\":12877:12885   */\n      0x00\n        /* \"#utility.yul\":12927:12932   */\n      dup3\n        /* \"#utility.yul\":12921:12925   */\n      dup3\n        /* \"#utility.yul\":12917:12933   */\n      shl\n        /* \"#utility.yul\":12896:12933   */\n      swap1\n      pop\n        /* \"#utility.yul\":12833:12940   */\n      swap3\n      swap2\n      pop\n      pop\n      jump\t// out\n        /* \"#utility.yul\":12946:13339   */\n    tag_161:\n        /* \"#utility.yul\":13015:13021   */\n      0x00\n        /* \"#utility.yul\":13065:13066   */\n      0x08\n        /* \"#utility.yul\":13053:13063   */\n      dup4\n        /* \"#utility.yul\":13049:13067   */\n      mul\n        /* \"#utility.yul\":13088:13185   */\n      tag_316\n        /* \"#utility.yul\":13118:13184   */\n      0xffffffffffffffffffffffffffffffffffffffffffffffffffffffffffffffff\n        /* \"#utility.yul\":13107:13116   */\n      dup3\n        /* \"#utility.yul\":13088:13185   */\n      tag_160\n      jump\t// in\n    tag_316:\n        /* \"#utility.yul\":13206:13245   */\n      tag_317\n        /* \"#utility.yul\":13236:13244   */\n      dup7\n        /* \"#utility.yul\":13225:13234   */\n      dup4\n        /* \"#utility.yul\":13206:13245   */\n      tag_160\n      jump\t// in\n    tag_317:\n        /* \"#utility.yul\":13194:13245   */\n      swap6\n      pop\n        /* \"#utility.yul\":13278:13282   */\n      dup1\n        /* \"#utility.yul\":13274:13283   */\n      not\n        /* \"#utility.yul\":13267:13272   */\n      dup5\n        /* \"#utility.yul\":13263:13284   */\n      and\n        /* \"#utility.yul\":13254:13284   */\n      swap4\n      pop\n        /* \"#utility.yul\":13327:13331   */\n      dup1\n        /* \"#utility.yul\":13317:13325   */\n      dup7\n        /* \"#utility.yul\":13313:13332   */\n      and\n        /* \"#utility.yul\":13306:13311   */\n      dup5\n        /* \"#utility.yul\":13303:13333   */\n      or\n        /* \"#utility.yul\":13293:13333   */\n      swap3\n      pop\n        /* \"#utility.yul\":13022:13339   */\n      pop\n      pop\n        /* \"#utility.yul\":12946:13339   */\n      swap4\n      swap3\n      pop\n      pop\n      pop\n      jump\t// out\n        /* \"#utility.yul\":13345:13405   */\n    tag_162:\n        /* \"#utility.yul\":13373:13376   */\n      0x00\n        /* \"#utility.yul\":13394:13399   */\n      dup2\n        /* \"#utility.yul\":13387:13399   */\n      swap1\n      pop\n        /* \"#utility.yul\":13345:13405   */\n      swap2\n      swap1\n      pop\n      jump\t// out\n        /* \"#utility.yul\":13411:13553   */\n    tag_163:\n        /* \"#utility.yul\":13461:13470   */\n      0x00\n        /* \"#utility.yul\":13494:13547   */\n      tag_320\n        /* \"#utility.yul\":13512:13546   */\n      tag_321\n        /* \"#utility.yul\":13521:13545   */\n      tag_322\n        /* \"#utility.yul\":13539:13544   */\n      dup5\n        /* \"#utility.yul\":13521:13545   */\n      tag_138\n      jump\t// in\n    tag_322:\n        /* \"#utility.yul\":13512:13546   */\n      tag_162\n      jump\t// in\n    tag_321:\n        /* \"#utility.yul\":13494:13547   */\n      tag_138\n      jump\t// in\n    tag_320:\n        /* \"#utility.yul\":13481:13547   */\n      swap1\n      pop\n        /* \"#utility.yul\":13411:13553   */\n      swap2\n      swap1\n      pop\n      jump\t// out\n        /* \"#utility.yul\":13559:13634   */\n    tag_164:\n        /* \"#utility.yul\":13602:13605   */\n      0x00\n        /* \"#utility.yul\":13623:13628   */\n      dup2\n        /* \"#utility.yul\":13616:13628   */\n      swap1\n      pop\n        /* \"#utility.yul\":13559:13634   */\n      swap2\n      swap1\n      pop\n      jump\t// out\n        /* \"#utility.yul\":13640:13909   */\n    tag_165:\n        /* \"#utility.yul\":13750:13789   */\n      tag_325\n        /* \"#utility.yul\":13781:13788   */\n      dup4\n        /* \"#utility.yul\":13750:13789   */\n      tag_163\n      jump\t// in\n    tag_325:\n        /* \"#utility.yul\":13811:13902   */\n      tag_326\n        /* \"#utility.yul\":13860:13901   */\n      tag_327\n        /* \"#utility.yul\":13884:13900   */\n      dup3\n        /* \"#utility.yul\":13860:13901   */\n      tag_164\n      jump\t// in\n    tag_327:\n        /* \"#utility.yul\":13852:13858   */\n      dup5\n        /* \"#utility.yul\":13845:13849   */\n      dup5\n        /* \"#utility.yul\":13839:13850   */\n      sload\n        /* \"#utility.yul\":13811:13902   */\n      tag_161\n      jump\t// in\n    tag_326:\n        /* \"#utility.yul\":13805:13809   */\n      dup3\n        /* \"#utility.yul\":13798:13903   */\n      sstore\n        /* \"#utility.yul\":13716:13909   */\n      pop\n        /* \"#utility.yul\":13640:13909   */\n      pop\n      pop\n      pop\n      jump\t// out\n        /* \"#utility.yul\":13915:13988   */\n    tag_166:\n        /* \"#utility.yul\":13960:13963   */\n      0x00\n        /* \"#utility.yul\":13981:13982   */\n      0x00\n        /* \"#utility.yul\":13974:13982   */\n      swap1\n      pop\n        /* \"#utility.yul\":13915:13988   */\n      swap1\n      jump\t// out\n        /* \"#utility.yul\":13994:14183   */\n    tag_167:\n        /* \"#utility.yul\":14071:14103   */\n      tag_330\n      tag_166\n      jump\t// in\n    tag_330:\n        /* \"#utility.yul\":14112:14177   */\n      tag_331\n        /* \"#utility.yul\":14170:14176   */\n      dup2\n        /* \"#utility.yul\":14162:14168   */\n      dup5\n        /* \"#utility.yul\":14156:14160   */\n      dup5\n        /* \"#utility.yul\":14112:14177   */\n      tag_165\n      jump\t// in\n    tag_331:\n        /* \"#utility.yul\":14047:14183   */\n      pop\n        /* \"#utility.yul\":13994:14183   */\n      pop\n      pop\n      jump\t// out\n        /* \"#utility.yul\":14189:14375   */\n    tag_168:\n        /* \"#utility.yul\":14249:14369   */\n    tag_333:\n        /* \"#utility.yul\":14266:14269   */\n      dup2\n        /* \"#utility.yul\":14259:14264   */\n      dup2\n        /* \"#utility.yul\":14256:14270   */\n      lt\n        /* \"#utility.yul\":14249:14369   */\n      iszero\n      tag_335\n      jumpi\n        /* \"#utility.yul\":14320:14359   */\n      tag_336\n        /* \"#utility.yul\":14357:14358   */\n      0x00\n        /* \"#utility.yul\":14350:14355   */\n      dup3\n        /* \"#utility.yul\":14320:14359   */\n      tag_167\n      jump\t// in\n    tag_336:\n        /* \"#utility.yul\":14293:14294   */\n      0x01\n        /* \"#utility.yul\":14286:14291   */\n      dup2\n        /* \"#utility.yul\":14282:14295   */\n      add\n        /* \"#utility.yul\":14273:14295   */\n      swap1\n      pop\n        /* \"#utility.yul\":14249:14369   */\n      jump(tag_333)\n    tag_335:\n        /* \"#utility.yul\":14189:14375   */\n      pop\n      pop\n      jump\t// out\n        /* \"#utility.yul\":14381:14924   */\n    tag_169:\n        /* \"#utility.yul\":14482:14484   */\n      0x1f\n        /* \"#utility.yul\":14477:14480   */\n      dup3\n        /* \"#utility.yul\":14474:14485   */\n      gt\n        /* \"#utility.yul\":14471:14917   */\n      iszero\n      tag_338\n      jumpi\n        /* \"#utility.yul\":14516:14554   */\n      tag_339\n        /* \"#utility.yul\":14548:14553   */\n      dup2\n        /* \"#utility.yul\":14516:14554   */\n      tag_158\n      jump\t// in\n    tag_339:\n        /* \"#utility.yul\":14600:14629   */\n      tag_340\n        /* \"#utility.yul\":14618:14628   */\n      dup5\n        /* \"#utility.yul\":14600:14629   */\n      tag_159\n      jump\t// in\n    tag_340:\n        /* \"#utility.yul\":14590:14598   */\n      dup2\n        /* \"#utility.yul\":14586:14630   */\n      add\n        /* \"#utility.yul\":14783:14785   */\n      0x20\n        /* \"#utility.yul\":14771:14781   */\n      dup6\n        /* \"#utility.yul\":14768:14786   */\n      lt\n        /* \"#utility.yul\":14765:14814   */\n      iszero\n      tag_341\n      jumpi\n        /* \"#utility.yul\":14804:14812   */\n      dup2\n        /* \"#utility.yul\":14789:14812   */\n      swap1\n      pop\n        /* \"#utility.yul\":14765:14814   */\n    tag_341:\n        /* \"#utility.yul\":14827:14907   */\n      tag_342\n        /* \"#utility.yul\":14883:14905   */\n      tag_343\n        /* \"#utility.yul\":14901:14904   */\n      dup6\n        /* \"#utility.yul\":14883:14905   */\n      tag_159\n      jump\t// in\n    tag_343:\n        /* \"#utility.yul\":14873:14881   */\n      dup4\n        /* \"#utility.yul\":14869:14906   */\n      add\n        /* \"#utility.yul\":14856:14867   */\n      dup3\n        /* \"#utility.yul\":14827:14907   */\n      tag_168\n      jump\t// in\n    tag_342:\n        /* \"#utility.yul\":14486:14917   */\n      pop\n      pop\n        /* \"#utility.yul\":14471:14917   */\n    tag_338:\n        /* \"#utility.yul\":14381:14924   */\n      pop\n      pop\n      pop\n      jump\t// out\n        /* \"#utility.yul\":14930:15047   */\n    tag_170:\n        /* \"#utility.yul\":14984:14992   */\n      0x00\n        /* \"#utility.yul\":15034:15039   */\n      dup3\n        /* \"#utility.yul\":15028:15032   */\n      dup3\n        /* \"#utility.yul\":15024:15040   */\n      shr\n        /* \"#utility.yul\":15003:15040   */\n      swap1\n      pop\n        /* \"#utility.yul\":14930:15047   */\n      swap3\n      swap2\n      pop\n      pop\n      jump\t// out\n        /* \"#utility.yul\":15053:15222   */\n    tag_171:\n        /* \"#utility.yul\":15097:15103   */\n      0x00\n        /* \"#utility.yul\":15130:15181   */\n      tag_346\n        /* \"#utility.yul\":15178:15179   */\n      0x00\n        /* \"#utility.yul\":15174:15180   */\n      not\n        /* \"#utility.yul\":15166:15171   */\n      dup5\n        /* \"#utility.yul\":15163:15164   */\n      0x08\n        /* \"#utility.yul\":15159:15172   */\n      mul\n        /* \"#utility.yul\":15130:15181   */\n      tag_170\n      jump\t// in\n    tag_346:\n        /* \"#utility.yul\":15126:15182   */\n      not\n        /* \"#utility.yul\":15211:15215   */\n      dup1\n        /* \"#utility.yul\":15205:15209   */\n      dup4\n        /* \"#utility.yul\":15201:15216   */\n      and\n        /* \"#utility.yul\":15191:15216   */\n      swap2\n      pop\n        /* \"#utility.yul\":15104:15222   */\n      pop\n        /* \"#utility.yul\":15053:15222   */\n      swap3\n      swap2\n      pop\n      pop\n      jump\t// out\n        /* \"#utility.yul\":15227:15522   */\n    tag_172:\n        /* \"#utility.yul\":15303:15307   */\n      0x00\n        /* \"#utility.yul\":15449:15478   */\n      tag_348\n        /* \"#utility.yul\":15474:15477   */\n      dup4\n        /* \"#utility.yul\":15468:15472   */\n      dup4\n        /* \"#utility.yul\":15449:15478   */\n      tag_171\n      jump\t// in\n    tag_348:\n        /* \"#utility.yul\":15441:15478   */\n      swap2\n      pop\n        /* \"#utility.yul\":15511:15514   */\n      dup3\n        /* \"#utility.yul\":15508:15509   */\n      0x02\n        /* \"#utility.yul\":15504:15515   */\n      mul\n        /* \"#utility.yul\":15498:15502   */\n      dup3\n        /* \"#utility.yul\":15495:15516   */\n      or\n        /* \"#utility.yul\":15487:15516   */\n      swap1\n      pop\n        /* \"#utility.yul\":15227:15522   */\n      swap3\n      swap2\n      pop\n      pop\n      jump\t// out\n        /* \"#utility.yul\":15527:16922   */\n    tag_83:\n        /* \"#utility.yul\":15644:15681   */\n      tag_350\n        /* \"#utility.yul\":15677:15680   */\n      dup3\n        /* \"#utility.yul\":15644:15681   */\n      tag_133\n      jump\t// in\n    tag_350:\n        /* \"#utility.yul\":15746:15764   */\n      0xffffffffffffffff\n        /* \"#utility.yul\":15738:15744   */\n      dup2\n        /* \"#utility.yul\":15735:15765   */\n      gt\n        /* \"#utility.yul\":15732:15788   */\n      iszero\n      tag_351\n      jumpi\n        /* \"#utility.yul\":15768:15786   */\n      tag_352\n      tag_146\n      jump\t// in\n    tag_352:\n        /* \"#utility.yul\":15732:15788   */\n    tag_351:\n        /* \"#utility.yul\":15812:15850   */\n      tag_353\n        /* \"#utility.yul\":15844:15848   */\n      dup3\n        /* \"#utility.yul\":15838:15849   */\n      sload\n        /* \"#utility.yul\":15812:15850   */\n      tag_65\n      jump\t// in\n    tag_353:\n        /* \"#utility.yul\":15897:15964   */\n      tag_354\n        /* \"#utility.yul\":15957:15963   */\n      dup3\n        /* \"#utility.yul\":15949:15955   */\n      dup3\n        /* \"#utility.yul\":15943:15947   */\n      dup6\n        /* \"#utility.yul\":15897:15964   */\n      tag_169\n      jump\t// in\n    tag_354:\n        /* \"#utility.yul\":15991:15992   */\n      0x00\n        /* \"#utility.yul\":16015:16019   */\n      0x20\n        /* \"#utility.yul\":16002:16019   */\n      swap1\n      pop\n        /* \"#utility.yul\":16047:16049   */\n      0x1f\n        /* \"#utility.yul\":16039:16045   */\n      dup4\n        /* \"#utility.yul\":16036:16050   */\n      gt\n        /* \"#utility.yul\":16064:16065   */\n      0x01\n        /* \"#utility.yul\":16059:16677   */\n      dup2\n      eq\n      tag_356\n      jumpi\n        /* \"#utility.yul\":16721:16722   */\n      0x00\n        /* \"#utility.yul\":16738:16744   */\n      dup5\n        /* \"#utility.yul\":16735:16812   */\n      iszero\n      tag_357\n      jumpi\n        /* \"#utility.yul\":16787:16796   */\n      dup3\n        /* \"#utility.yul\":16782:16785   */\n      dup8\n        /* \"#utility.yul\":16778:16797   */\n      add\n        /* \"#utility.yul\":16772:16798   */\n      mload\n        /* \"#utility.yul\":16763:16798   */\n      swap1\n      pop\n        /* \"#utility.yul\":16735:16812   */\n    tag_357:\n        /* \"#utility.yul\":16838:16905   */\n      tag_358\n        /* \"#utility.yul\":16898:16904   */\n      dup6\n        /* \"#utility.yul\":16891:16896   */\n      dup3\n        /* \"#utility.yul\":16838:16905   */\n      tag_172\n      jump\t// in\n    tag_358:\n        /* \"#utility.yul\":16832:16836   */\n      dup7\n        /* \"#utility.yul\":16825:16906   */\n      sstore\n        /* \"#utility.yul\":16694:16916   */\n      pop\n        /* \"#utility.yul\":16029:16916   */\n      jump(tag_355)\n        /* \"#utility.yul\":16059:16677   */\n    tag_356:\n        /* \"#utility.yul\":16111:16115   */\n      0x1f\n        /* \"#utility.yul\":16107:16116   */\n      not\n        /* \"#utility.yul\":16099:16105   */\n      dup5\n        /* \"#utility.yul\":16095:16117   */\n      and\n        /* \"#utility.yul\":16145:16182   */\n      tag_359\n        /* \"#utility.yul\":16177:16181   */\n      dup7\n        /* \"#utility.yul\":16145:16182   */\n      tag_158\n      jump\t// in\n    tag_359:\n        /* \"#utility.yul\":16204:16205   */\n      0x00\n        /* \"#utility.yul\":16218:16426   */\n    tag_360:\n        /* \"#utility.yul\":16232:16239   */\n      dup3\n        /* \"#utility.yul\":16229:16230   */\n      dup2\n        /* \"#utility.yul\":16226:16240   */\n      lt\n        /* \"#utility.yul\":16218:16426   */\n      iszero\n      tag_362\n      jumpi\n        /* \"#utility.yul\":16311:16320   */\n      dup5\n        /* \"#utility.yul\":16306:16309   */\n      dup10\n        /* \"#utility.yul\":16302:16321   */\n      add\n        /* \"#utility.yul\":16296:16322   */\n      mload\n        /* \"#utility.yul\":16288:16294   */\n      dup3\n        /* \"#utility.yul\":16281:16323   */\n      sstore\n        /* \"#utility.yul\":16362:16363   */\n      0x01\n        /* \"#utility.yul\":16354:16360   */\n      dup3\n        /* \"#utility.yul\":16350:16364   */\n      add\n        /* \"#utility.yul\":16340:16364   */\n      swap2\n      pop\n        /* \"#utility.yul\":16409:16411   */\n      0x20\n        /* \"#utility.yul\":16398:16407   */\n      dup6\n        /* \"#utility.yul\":16394:16412   */\n      add\n        /* \"#utility.yul\":16381:16412   */\n      swap5\n      pop\n        /* \"#utility.yul\":16255:16259   */\n      0x20\n        /* \"#utility.yul\":16252:16253   */\n      dup2\n        /* \"#utility.yul\":16248:16260   */\n      add\n        /* \"#utility.yul\":16243:16260   */\n      swap1\n      pop\n        /* \"#utility.yul\":16218:16426   */\n      jump(tag_360)\n    tag_362:\n        /* \"#utility.yul\":16454:16460   */\n      dup7\n        /* \"#utility.yul\":16445:16452   */\n      dup4\n        /* \"#utility.yul\":16442:16461   */\n      lt\n        /* \"#utility.yul\":16439:16618   */\n      iszero\n      tag_363\n      jumpi\n        /* \"#utility.yul\":16512:16521   */\n      dup5\n        /* \"#utility.yul\":16507:16510   */\n      dup10\n        /* \"#utility.yul\":16503:16522   */\n      add\n        /* \"#utility.yul\":16497:16523   */\n      mload\n        /* \"#utility.yul\":16555:16603   */\n      tag_364\n        /* \"#utility.yul\":16597:16601   */\n      0x1f\n        /* \"#utility.yul\":16589:16595   */\n      dup10\n        /* \"#utility.yul\":16585:16602   */\n      and\n        /* \"#utility.yul\":16574:16583   */\n      dup3\n        /* \"#utility.yul\":16555:16603   */\n      tag_171\n      jump\t// in\n    tag_364:\n        /* \"#utility.yul\":16547:16553   */\n      dup4\n        /* \"#utility.yul\":16540:16604   */\n      sstore\n        /* \"#utility.yul\":16462:16618   */\n      pop\n        /* \"#utility.yul\":16439:16618   */\n    tag_363:\n        /* \"#utility.yul\":16664:16665   */\n      0x01\n        /* \"#utility.yul\":16660:16661   */\n      0x02\n        /* \"#utility.yul\":16652:16658   */\n      dup9\n        /* \"#utility.yul\":16648:16662   */\n      mul\n        /* \"#utility.yul\":16644:16666   */\n      add\n        /* \"#utility.yul\":16638:16642   */\n      dup9\n        /* \"#utility.yul\":16631:16667   */\n      sstore\n        /* \"#utility.yul\":16066:16677   */\n      pop\n      pop\n      pop\n        /* \"#utility.yul\":16029:16916   */\n    tag_355:\n      pop\n        /* \"#utility.yul\":15619:16922   */\n      pop\n      pop\n      pop\n        /* \"#utility.yul\":15527:16922   */\n      pop\n      pop\n      jump\t// out\n        /* \"#utility.yul\":16928:17754   */\n    tag_91:\n        /* \"#utility.yul\":17165:17169   */\n      0x00\n        /* \"#utility.yul\":17203:17206   */\n      0x80\n        /* \"#utility.yul\":17192:17201   */\n      dup3\n        /* \"#utility.yul\":17188:17207   */\n      add\n        /* \"#utility.yul\":17180:17207   */\n      swap1\n      pop\n        /* \"#utility.yul\":17253:17262   */\n      dup2\n        /* \"#utility.yul\":17247:17251   */\n      dup2\n        /* \"#utility.yul\":17243:17263   */\n      sub\n        /* \"#utility.yul\":17239:17240   */\n      0x00\n        /* \"#utility.yul\":17228:17237   */\n      dup4\n        /* \"#utility.yul\":17224:17241   */\n      add\n        /* \"#utility.yul\":17217:17264   */\n      mstore\n        /* \"#utility.yul\":17281:17359   */\n      tag_366\n        /* \"#utility.yul\":17354:17358   */\n      dup2\n        /* \"#utility.yul\":17345:17351   */\n      dup8\n        /* \"#utility.yul\":17281:17359   */\n      tag_137\n      jump\t// in\n    tag_366:\n        /* \"#utility.yul\":17273:17359   */\n      swap1\n      pop\n        /* \"#utility.yul\":17406:17415   */\n      dup2\n        /* \"#utility.yul\":17400:17404   */\n      dup2\n        /* \"#utility.yul\":17396:17416   */\n      sub\n        /* \"#utility.yul\":17391:17393   */\n      0x20\n        /* \"#utility.yul\":17380:17389   */\n      dup4\n        /* \"#utility.yul\":17376:17394   */\n      add\n        /* \"#utility.yul\":17369:17417   */\n      mstore\n        /* \"#utility.yul\":17434:17512   */\n      tag_367\n        /* \"#utility.yul\":17507:17511   */\n      dup2\n        /* \"#utility.yul\":17498:17504   */\n      dup7\n        /* \"#utility.yul\":17434:17512   */\n      tag_137\n      jump\t// in\n    tag_367:\n        /* \"#utility.yul\":17426:17512   */\n      swap1\n      pop\n        /* \"#utility.yul\":17559:17568   */\n      dup2\n        /* \"#utility.yul\":17553:17557   */\n      dup2\n        /* \"#utility.yul\":17549:17569   */\n      sub\n        /* \"#utility.yul\":17544:17546   */\n      0x40\n        /* \"#utility.yul\":17533:17542   */\n      dup4\n        /* \"#utility.yul\":17529:17547   */\n      add\n        /* \"#utility.yul\":17522:17570   */\n      mstore\n        /* \"#utility.yul\":17587:17665   */\n      tag_368\n        /* \"#utility.yul\":17660:17664   */\n      dup2\n        /* \"#utility.yul\":17651:17657   */\n      dup6\n        /* \"#utility.yul\":17587:17665   */\n      tag_137\n      jump\t// in\n    tag_368:\n        /* \"#utility.yul\":17579:17665   */\n      swap1\n      pop\n        /* \"#utility.yul\":17675:17747   */\n      tag_369\n        /* \"#utility.yul\":17743:17745   */\n      0x60\n        /* \"#utility.yul\":17732:17741   */\n      dup4\n        /* \"#utility.yul\":17728:17746   */\n      add\n        /* \"#utility.yul\":17719:17725   */\n      dup5\n        /* \"#utility.yul\":17675:17747   */\n      tag_139\n      jump\t// in\n    tag_369:\n        /* \"#utility.yul\":16928:17754   */\n      swap6\n      swap5\n      pop\n      pop\n      pop\n      pop\n      pop\n      jump\t// out\n        /* \"#utility.yul\":17760:17929   */\n    tag_173:\n        /* \"#utility.yul\":17900:17921   */\n      0x496e646578206f7574206f6620626f756e647300000000000000000000000000\n        /* \"#utility.yul\":17896:17897   */\n      0x00\n        /* \"#utility.yul\":17888:17894   */\n      dup3\n        /* \"#utility.yul\":17884:17898   */\n      add\n        /* \"#utility.yul\":17877:17922   */\n      mstore\n        /* \"#utility.yul\":17760:17929   */\n      pop\n      jump\t// out\n        /* \"#utility.yul\":17935:18301   */\n    tag_174:\n        /* \"#utility.yul\":18077:18080   */\n      0x00\n        /* \"#utility.yul\":18098:18165   */\n      tag_372\n        /* \"#utility.yul\":18162:18164   */\n      0x13\n        /* \"#utility.yul\":18157:18160   */\n      dup4\n        /* \"#utility.yul\":18098:18165   */\n      tag_134\n      jump\t// in\n    tag_372:\n        /* \"#utility.yul\":18091:18165   */\n      swap2\n      pop\n        /* \"#utility.yul\":18174:18267   */\n      tag_373\n        /* \"#utility.yul\":18263:18266   */\n      dup3\n        /* \"#utility.yul\":18174:18267   */\n      tag_173\n      jump\t// in\n    tag_373:\n        /* \"#utility.yul\":18292:18294   */\n      0x20\n        /* \"#utility.yul\":18287:18290   */\n      dup3\n        /* \"#utility.yul\":18283:18295   */\n      add\n        /* \"#utility.yul\":18276:18295   */\n      swap1\n      pop\n        /* \"#utility.yul\":17935:18301   */\n      swap2\n      swap1\n      pop\n      jump\t// out\n        /* \"#utility.yul\":18307:18726   */\n    tag_119:\n        /* \"#utility.yul\":18473:18477   */\n      0x00\n        /* \"#utility.yul\":18511:18513   */\n      0x20\n        /* \"#utility.yul\":18500:18509   */\n      dup3\n        /* \"#utility.yul\":18496:18514   */\n      add\n        /* \"#utility.yul\":18488:18514   */\n      swap1\n      pop\n        /* \"#utility.yul\":18560:18569   */\n      dup2\n        /* \"#utility.yul\":18554:18558   */\n      dup2\n        /* \"#utility.yul\":18550:18570   */\n      sub\n        /* \"#utility.yul\":18546:18547   */\n      0x00\n        /* \"#utility.yul\":18535:18544   */\n      dup4\n        /* \"#utility.yul\":18531:18548   */\n      add\n        /* \"#utility.yul\":18524:18571   */\n      mstore\n        /* \"#utility.yul\":18588:18719   */\n      tag_375\n        /* \"#utility.yul\":18714:18718   */\n      dup2\n        /* \"#utility.yul\":18588:18719   */\n      tag_174\n      jump\t// in\n    tag_375:\n        /* \"#utility.yul\":18580:18719   */\n      swap1\n      pop\n        /* \"#utility.yul\":18307:18726   */\n      swap2\n      swap1\n      pop\n      jump\t// out\n        /* \"#utility.yul\":18732:18912   */\n    tag_122:\n        /* \"#utility.yul\":18780:18857   */\n      0x4e487b7100000000000000000000000000000000000000000000000000000000\n        /* \"#utility.yul\":18777:18778   */\n      0x00\n        /* \"#utility.yul\":18770:18858   */\n      mstore\n        /* \"#utility.yul\":18877:18881   */\n      0x32\n        /* \"#utility.yul\":18874:18875   */\n      0x04\n        /* \"#utility.yul\":18867:18882   */\n      mstore\n        /* \"#utility.yul\":18901:18905   */\n      0x24\n        /* \"#utility.yul\":18898:18899   */\n      0x00\n        /* \"#utility.yul\":18891:18906   */\n      revert\n        /* \"#utility.yul\":18918:19066   */\n    tag_175:\n        /* \"#utility.yul\":19020:19031   */\n      0x00\n        /* \"#utility.yul\":19057:19060   */\n      dup2\n        /* \"#utility.yul\":19042:19060   */\n      swap1\n      pop\n        /* \"#utility.yul\":18918:19066   */\n      swap3\n      swap2\n      pop\n      pop\n      jump\t// out\n        /* \"#utility.yul\":19072:19462   */\n    tag_176:\n        /* \"#utility.yul\":19178:19181   */\n      0x00\n        /* \"#utility.yul\":19206:19245   */\n      tag_379\n        /* \"#utility.yul\":19239:19244   */\n      dup3\n        /* \"#utility.yul\":19206:19245   */\n      tag_133\n      jump\t// in\n    tag_379:\n        /* \"#utility.yul\":19261:19350   */\n      tag_380\n        /* \"#utility.yul\":19343:19349   */\n      dup2\n        /* \"#utility.yul\":19338:19341   */\n      dup6\n        /* \"#utility.yul\":19261:19350   */\n      tag_175\n      jump\t// in\n    tag_380:\n        /* \"#utility.yul\":19254:19350   */\n      swap4\n      pop\n        /* \"#utility.yul\":19359:19424   */\n      tag_381\n        /* \"#utility.yul\":19417:19423   */\n      dup2\n        /* \"#utility.yul\":19412:19415   */\n      dup6\n        /* \"#utility.yul\":19405:19409   */\n      0x20\n        /* \"#utility.yul\":19398:19403   */\n      dup7\n        /* \"#utility.yul\":19394:19410   */\n      add\n        /* \"#utility.yul\":19359:19424   */\n      tag_135\n      jump\t// in\n    tag_381:\n        /* \"#utility.yul\":19449:19455   */\n      dup1\n        /* \"#utility.yul\":19444:19447   */\n      dup5\n        /* \"#utility.yul\":19440:19456   */\n      add\n        /* \"#utility.yul\":19433:19456   */\n      swap2\n      pop\n        /* \"#utility.yul\":19182:19462   */\n      pop\n        /* \"#utility.yul\":19072:19462   */\n      swap3\n      swap2\n      pop\n      pop\n      jump\t// out\n        /* \"#utility.yul\":19468:19619   */\n    tag_177:\n        /* \"#utility.yul\":19608:19611   */\n      0x3a00000000000000000000000000000000000000000000000000000000000000\n        /* \"#utility.yul\":19604:19605   */\n      0x00\n        /* \"#utility.yul\":19596:19602   */\n      dup3\n        /* \"#utility.yul\":19592:19606   */\n      add\n        /* \"#utility.yul\":19585:19612   */\n      mstore\n        /* \"#utility.yul\":19468:19619   */\n      pop\n      jump\t// out\n        /* \"#utility.yul\":19625:20025   */\n    tag_178:\n        /* \"#utility.yul\":19785:19788   */\n      0x00\n        /* \"#utility.yul\":19806:19890   */\n      tag_384\n        /* \"#utility.yul\":19888:19889   */\n      0x01\n        /* \"#utility.yul\":19883:19886   */\n      dup4\n        /* \"#utility.yul\":19806:19890   */\n      tag_175\n      jump\t// in\n    tag_384:\n        /* \"#utility.yul\":19799:19890   */\n      swap2\n      pop\n        /* \"#utility.yul\":19899:19992   */\n      tag_385\n        /* \"#utility.yul\":19988:19991   */\n      dup3\n        /* \"#utility.yul\":19899:19992   */\n      tag_177\n      jump\t// in\n    tag_385:\n        /* \"#utility.yul\":20017:20018   */\n      0x01\n        /* \"#utility.yul\":20012:20015   */\n      dup3\n        /* \"#utility.yul\":20008:20019   */\n      add\n        /* \"#utility.yul\":20001:20019   */\n      swap1\n      pop\n        /* \"#utility.yul\":19625:20025   */\n      swap2\n      swap1\n      pop\n      jump\t// out\n        /* \"#utility.yul\":20031:20732   */\n    tag_126:\n        /* \"#utility.yul\":20312:20315   */\n      0x00\n        /* \"#utility.yul\":20334:20429   */\n      tag_387\n        /* \"#utility.yul\":20425:20428   */\n      dup3\n        /* \"#utility.yul\":20416:20422   */\n      dup6\n        /* \"#utility.yul\":20334:20429   */\n      tag_176\n      jump\t// in\n    tag_387:\n        /* \"#utility.yul\":20327:20429   */\n      swap2\n      pop\n        /* \"#utility.yul\":20446:20594   */\n      tag_388\n        /* \"#utility.yul\":20590:20593   */\n      dup3\n        /* \"#utility.yul\":20446:20594   */\n      tag_178\n      jump\t// in\n    tag_388:\n        /* \"#utility.yul\":20439:20594   */\n      swap2\n      pop\n        /* \"#utility.yul\":20611:20706   */\n      tag_389\n        /* \"#utility.yul\":20702:20705   */\n      dup3\n        /* \"#utility.yul\":20693:20699   */\n      dup5\n        /* \"#utility.yul\":20611:20706   */\n      tag_176\n      jump\t// in\n    tag_389:\n        /* \"#utility.yul\":20604:20706   */\n      swap2\n      pop\n        /* \"#utility.yul\":20723:20726   */\n      dup2\n        /* \"#utility.yul\":20716:20726   */\n      swap1\n      pop\n        /* \"#utility.yul\":20031:20732   */\n      swap4\n      swap3\n      pop\n      pop\n      pop\n      jump\t// out\n\n    auxdata: 0xa2646970667358221220c56d343c80f0fafa361e88751522ddfe6f65a8746b454f2ce0f321309a2cf74464736f6c634300081d0033\n}\n",
    "bytecode": {
      "linkReferences": {},
      "object": "6080604052348015600e575f5ffd5b50335f5f6101000a81548173ffffffffffffffffffffffffffffffffffffffff021916908373ffffffffffffffffffffffffffffffffffffffff1602179055506114f38061005b5f395ff3fe608060405234801561000f575f5ffd5b506004361061009c575f3560e01c80638e383c6b116100645780638e383c6b14610171578063b10d6b41146101a1578063cbfe6d41146101d5578063d64bfe6c14610205578063eaed5bd3146102355761009c565b80632b2805db146100a05780633d1c2273146100d55780636a8609e5146100f35780637882a36a146101235780638da5cb5b14610153575b5f5ffd5b6100ba60048036038101906100b59190610a84565b610265565b6040516100cc96959493929190610b85565b60405180910390f35b6100dd61044e565b6040516100ea9190610bf9565b60405180910390f35b61010d60048036038101906101089190610d3e565b61045a565b60405161011a9190610e10565b60405180910390f35b61013d60048036038101906101389190610e29565b610604565b60405161014a9190610bf9565b60405180910390f35b61015b610630565b6040516101689190610e9f565b60405180910390f35b61018b60048036038101906101869190610ee2565b610654565b6040516101989190610f0d565b60405180910390f35b6101bb60048036038101906101b69190610a84565b610674565b6040516101cc959493929190610f26565b60405180910390f35b6101ef60048036038101906101ea9190610a84565b6108de565b6040516101fc9190610e10565b60405180910390f35b61021f600480360381019061021a9190610f8c565b610949565b60405161022c9190610f0d565b60405180910390f35b61024f600480360381019061024a9190610fca565b610974565b60405161025c9190610f0d565b60405180910390f35b6001602052805f5260405f205f91509050805f0180546102849061107f565b80601f01602080910402602001604051908101604052809291908181526020018280546102b09061107f565b80156102fb5780601f106102d2576101008083540402835291602001916102fb565b820191905f5260205f20905b8154815290600101906020018083116102de57829003601f168201915b5050505050908060010180546103109061107f565b80601f016020809104026020016040519081016040528092919081815260200182805461033c9061107f565b80156103875780601f1061035e57610100808354040283529160200191610387565b820191905f5260205f20905b81548152906001019060200180831161036a57829003601f168201915b50505050509080600201805461039c9061107f565b80601f01602080910402602001604051908101604052809291908181526020018280546103c89061107f565b80156104135780601f106103ea57610100808354040283529160200191610413565b820191905f5260205f20905b8154815290600101906020018083116103f657829003601f168201915b505050505090806003015490806004015490806005015f9054906101000a900473ffffffffffffffffffffffffffffffffffffffff16905086565b5f600280549050905090565b5f5f6040518060c001604052808781526020018681526020018581526020014281526020018481526020013373ffffffffffffffffffffffffffffffffffffffff1681525090508060015f8581526020019081526020015f205f820151815f0190816104c6919061124f565b5060208201518160010190816104dc919061124f565b5060408201518160020190816104f2919061124f565b50606082015181600301556080820151816004015560a0820151816005015f6101000a81548173ffffffffffffffffffffffffffffffffffffffff021916908373ffffffffffffffffffffffffffffffffffffffff160217905550905050600283908060018154018082558091505060019003905f5260205f20015f90919091909150555f6105818787610a0e565b905060035f8281526020019081526020015f2084908060018154018082558091505060019003905f5260205f20015f9091909190915055837f8e5250826d83ebb40f2d67b0302958b2c22670a3694d4a96969565060bcc4658888888426040516105ee949392919061131e565b60405180910390a2600192505050949350505050565b5f5f6106108484610a0e565b905060035f8281526020019081526020015f208054905091505092915050565b5f5f9054906101000a900473ffffffffffffffffffffffffffffffffffffffff1681565b60028181548110610663575f80fd5b905f5260205f20015f915090505481565b60608060605f5f5f60015f8881526020019081526020015f206040518060c00160405290815f820180546106a79061107f565b80601f01602080910402602001604051908101604052809291908181526020018280546106d39061107f565b801561071e5780601f106106f55761010080835404028352916020019161071e565b820191905f5260205f20905b81548152906001019060200180831161070157829003601f168201915b505050505081526020016001820180546107379061107f565b80601f01602080910402602001604051908101604052809291908181526020018280546107639061107f565b80156107ae5780601f10610785576101008083540402835291602001916107ae565b820191905f5260205f20905b81548152906001019060200180831161079157829003601f168201915b505050505081526020016002820180546107c79061107f565b80601f01602080910402602001604051908101604052809291908181526020018280546107f39061107f565b801561083e5780601f106108155761010080835404028352916020019161083e565b820191905f5260205f20905b81548152906001019060200180831161082157829003601f168201915b505050505081526020016003820154815260200160048201548152602001600582015f9054906101000a900473ffffffffffffffffffffffffffffffffffffffff1673ffffffffffffffffffffffffffffffffffffffff1673ffffffffffffffffffffffffffffffffffffffff16815250509050805f01518160200151826040015183606001518460a00151955095509550955095505091939590929450565b5f5f73ffffffffffffffffffffffffffffffffffffffff1660015f8481526020019081526020015f206005015f9054906101000a900473ffffffffffffffffffffffffffffffffffffffff1673ffffffffffffffffffffffffffffffffffffffff1614159050919050565b6003602052815f5260405f208181548110610962575f80fd5b905f5260205f20015f91509150505481565b5f5f6109808585610a0e565b905060035f8281526020019081526020015f208054905083106109d8576040517f08c379a00000000000000000000000000000000000000000000000000000000081526004016109cf906113c0565b60405180910390fd5b60035f8281526020019081526020015f2083815481106109fb576109fa6113de565b5b905f5260205f2001549150509392505050565b5f8282604051602001610a2292919061148f565b60405160208183030381529060405280519060200120905092915050565b5f604051905090565b5f5ffd5b5f5ffd5b5f819050919050565b610a6381610a51565b8114610a6d575f5ffd5b50565b5f81359050610a7e81610a5a565b92915050565b5f60208284031215610a9957610a98610a49565b5b5f610aa684828501610a70565b91505092915050565b5f81519050919050565b5f82825260208201905092915050565b8281835e5f83830152505050565b5f601f19601f8301169050919050565b5f610af182610aaf565b610afb8185610ab9565b9350610b0b818560208601610ac9565b610b1481610ad7565b840191505092915050565b5f819050919050565b610b3181610b1f565b82525050565b610b4081610a51565b82525050565b5f73ffffffffffffffffffffffffffffffffffffffff82169050919050565b5f610b6f82610b46565b9050919050565b610b7f81610b65565b82525050565b5f60c0820190508181035f830152610b9d8189610ae7565b90508181036020830152610bb18188610ae7565b90508181036040830152610bc58187610ae7565b9050610bd46060830186610b28565b610be16080830185610b37565b610bee60a0830184610b76565b979650505050505050565b5f602082019050610c0c5f830184610b28565b92915050565b5f5ffd5b5f5ffd5b7f4e487b71000000000000000000000000000000000000000000000000000000005f52604160045260245ffd5b610c5082610ad7565b810181811067ffffffffffffffff82111715610c6f57610c6e610c1a565b5b80604052505050565b5f610c81610a40565b9050610c8d8282610c47565b919050565b5f67ffffffffffffffff821115610cac57610cab610c1a565b5b610cb582610ad7565b9050602081019050919050565b828183375f83830152505050565b5f610ce2610cdd84610c92565b610c78565b905082815260208101848484011115610cfe57610cfd610c16565b5b610d09848285610cc2565b509392505050565b5f82601f830112610d2557610d24610c12565b5b8135610d35848260208601610cd0565b91505092915050565b5f5f5f5f60808587031215610d5657610d55610a49565b5b5f85013567ffffffffffffffff811115610d7357610d72610a4d565b5b610d7f87828801610d11565b945050602085013567ffffffffffffffff811115610da057610d9f610a4d565b5b610dac87828801610d11565b935050604085013567ffffffffffffffff811115610dcd57610dcc610a4d565b5b610dd987828801610d11565b9250506060610dea87828801610a70565b91505092959194509250565b5f8115159050919050565b610e0a81610df6565b82525050565b5f602082019050610e235f830184610e01565b92915050565b5f5f60408385031215610e3f57610e3e610a49565b5b5f83013567ffffffffffffffff811115610e5c57610e5b610a4d565b5b610e6885828601610d11565b925050602083013567ffffffffffffffff811115610e8957610e88610a4d565b5b610e9585828601610d11565b9150509250929050565b5f602082019050610eb25f830184610b76565b92915050565b610ec181610b1f565b8114610ecb575f5ffd5b50565b5f81359050610edc81610eb8565b92915050565b5f60208284031215610ef757610ef6610a49565b5b5f610f0484828501610ece565b91505092915050565b5f602082019050610f205f830184610b37565b92915050565b5f60a0820190508181035f830152610f3e8188610ae7565b90508181036020830152610f528187610ae7565b90508181036040830152610f668186610ae7565b9050610f756060830185610b28565b610f826080830184610b76565b9695505050505050565b5f5f60408385031215610fa257610fa1610a49565b5b5f610faf85828601610a70565b9250506020610fc085828601610ece565b9150509250929050565b5f5f5f60608486031215610fe157610fe0610a49565b5b5f84013567ffffffffffffffff811115610ffe57610ffd610a4d565b5b61100a86828701610d11565b935050602084013567ffffffffffffffff81111561102b5761102a610a4d565b5b61103786828701610d11565b925050604061104886828701610ece565b9150509250925092565b7f4e487b71000000000000000000000000000000000000000000000000000000005f52602260045260245ffd5b5f600282049050600182168061109657607f821691505b6020821081036110a9576110a8611052565b5b50919050565b5f819050815f5260205f209050919050565b5f6020601f8301049050919050565b5f82821b905092915050565b5f6008830261110b7fffffffffffffffffffffffffffffffffffffffffffffffffffffffffffffffff826110d0565b61111586836110d0565b95508019841693508086168417925050509392505050565b5f819050919050565b5f61115061114b61114684610b1f565b61112d565b610b1f565b9050919050565b5f819050919050565b61116983611136565b61117d61117582611157565b8484546110dc565b825550505050565b5f5f905090565b611194611185565b61119f818484611160565b505050565b5b818110156111c2576111b75f8261118c565b6001810190506111a5565b5050565b601f821115611207576111d8816110af565b6111e1846110c1565b810160208510156111f0578190505b6112046111fc856110c1565b8301826111a4565b50505b505050565b5f82821c905092915050565b5f6112275f198460080261120c565b1980831691505092915050565b5f61123f8383611218565b9150826002028217905092915050565b61125882610aaf565b67ffffffffffffffff81111561127157611270610c1a565b5b61127b825461107f565b6112868282856111c6565b5f60209050601f8311600181146112b7575f84156112a5578287015190505b6112af8582611234565b865550611316565b601f1984166112c5866110af565b5f5b828110156112ec578489015182556001820191506020850194506020810190506112c7565b868310156113095784890151611305601f891682611218565b8355505b6001600288020188555050505b505050505050565b5f6080820190508181035f8301526113368187610ae7565b9050818103602083015261134a8186610ae7565b9050818103604083015261135e8185610ae7565b905061136d6060830184610b28565b95945050505050565b7f496e646578206f7574206f6620626f756e6473000000000000000000000000005f82015250565b5f6113aa601383610ab9565b91506113b582611376565b602082019050919050565b5f6020820190508181035f8301526113d78161139e565b9050919050565b7f4e487b71000000000000000000000000000000000000000000000000000000005f52603260045260245ffd5b5f81905092915050565b5f61141f82610aaf565b611429818561140b565b9350611439818560208601610ac9565b80840191505092915050565b7f3a000000000000000000000000000000000000000000000000000000000000005f82015250565b5f61147960018361140b565b915061148482611445565b600182019050919050565b5f61149a8285611415565b91506114a58261146d565b91506114b18284611415565b9150819050939250505056fea2646970667358221220c56d343c80f0fafa361e88751522ddfe6f65a8746b454f2ce0f321309a2cf74464736f6c634300081d0033",
      "opcodes": "PUSH1 0x80 PUSH1 0x40 MSTORE CALLVALUE DUP1 ISZERO PUSH1 0xE JUMPI PUSH0 PUSH0 REVERT JUMPDEST POP CALLER PUSH0 PUSH0 PUSH2 0x100 EXP DUP2 SLOAD DUP2 PUSH20 0xFFFFFFFFFFFFFFFFFFFFFFFFFFFFFFFFFFFFFFFF MUL NOT AND SWAP1 DUP4 PUSH20 0xFFFFFFFFFFFFFFFFFFFFFFFFFFFFFFFFFFFFFFFF AND MUL OR SWAP1 SSTORE POP PUSH2 0x14F3 DUP1 PUSH2 0x5B PUSH0 CODECOPY PUSH0 RETURN INVALID PUSH1 0x80 PUSH1 0x40 MSTORE CALLVALUE DUP1 ISZERO PUSH2 0xF JUMPI PUSH0 PUSH0 REVERT JUMPDEST POP PUSH1 0x4 CALLDATASIZE LT PUSH2 0x9C JUMPI PUSH0 CALLDATALOAD PUSH1 0xE0 SHR DUP1 PUSH4 0x8E383C6B GT PUSH2 0x64 JUMPI DUP1 PUSH4 0x8E383C6B EQ PUSH2 0x171 JUMPI DUP1 PUSH4 0xB10D6B41 EQ PUSH2 0x1A1 JUMPI DUP1 PUSH4 0xCBFE6D41 EQ PUSH2 0x1D5 JUMPI DUP1 PUSH4 0xD64BFE6C EQ PUSH2 0x205 JUMPI DUP1 PUSH4 0xEAED5BD3 EQ PUSH2 0x235 JUMPI PUSH2 0x9C JUMP JUMPDEST DUP1 PUSH4 0x2B2805DB EQ PUSH2 0xA0 JUMPI DUP1 PUSH4 0x3D1C2273 EQ PUSH2 0xD5 JUMPI DUP1 PUSH4 0x6A8609E5 EQ PUSH2 0xF3 JUMPI DUP1 PUSH4 0x7882A36A EQ PUSH2 0x123 JUMPI DUP1 PUSH4 0x8DA5CB5B EQ PUSH2 0x153 JUMPI JUMPDEST PUSH0 PUSH0 REVERT JUMPDEST PUSH2 0xBA PUSH1 0x4 DUP1 CALLDATASIZE SUB DUP2 ADD SWAP1 PUSH2 0xB5 SWAP2 SWAP1 PUSH2 0xA84 JUMP JUMPDEST PUSH2 0x265 JUMP JUMPDEST PUSH1 0x40 MLOAD PUSH2 0xCC SWAP7 SWAP6 SWAP5 SWAP4 SWAP3 SWAP2 SWAP1 PUSH2 0xB85 JUMP JUMPDEST PUSH1 0x40 MLOAD DUP1 SWAP2 SUB SWAP1 RETURN JUMPDEST PUSH2 0xDD PUSH2 0x44E JUMP JUMPDEST PUSH1 0x40 MLOAD PUSH2 0xEA SWAP2 SWAP1 PUSH2 0xBF9 JUMP JUMPDEST PUSH1 0x40 MLOAD DUP1 SWAP2 SUB SWAP1 RETURN JUMPDEST PUSH2 0x10D PUSH1 0x4 DUP1 CALLDATASIZE SUB DUP2 ADD SWAP1 PUSH2 0x108 SWAP2 SWAP1 PUSH2 0xD3E JUMP JUMPDEST PUSH2 0x45A JUMP JUMPDEST PUSH1 0x40 MLOAD PUSH2 0x11A SWAP2 SWAP1 PUSH2 0xE10 JUMP JUMPDEST PUSH1 0x40 MLOAD DUP1 SWAP2 SUB SWAP1 RETURN JUMPDEST PUSH2 0x13D PUSH1 0x4 DUP1 CALLDATASIZE SUB DUP2 ADD SWAP1 PUSH2 0x138 SWAP2 SWAP1 PUSH2 0xE29 JUMP JUMPDEST PUSH2 0x604 JUMP JUMPDEST PUSH1 0x40 MLOAD PUSH2 0x14A SWAP2 SWAP1 PUSH2 0xBF9 JUMP JUMPDEST PUSH1 0x40 MLOAD DUP1 SWAP2 SUB SWAP1 RETURN JUMPDEST PUSH2 0x15B PUSH2 0x630 JUMP JUMPDEST PUSH1 0x40 MLOAD PUSH2 0x168 SWAP2 SWAP1 PUSH2 0xE9F JUMP JUMPDEST PUSH1 0x40 MLOAD DUP1 SWAP2 SUB SWAP1 RETURN JUMPDEST PUSH2 0x18B PUSH1 0x4 DUP1 CALLDATASIZE SUB DUP2 ADD SWAP1 PUSH2 0x186 SWAP2 SWAP1 PUSH2 0xEE2 JUMP JUMPDEST PUSH2 0x654 JUMP JUMPDEST PUSH1 0x40 MLOAD PUSH2 0x198 SWAP2 SWAP1 PUSH2 0xF0D JUMP JUMPDEST PUSH1 0x40 MLOAD DUP1 SWAP2 SUB SWAP1 RETURN JUMPDEST PUSH2 0x1BB PUSH1 0x4 DUP1 CALLDATASIZE SUB DUP2 ADD SWAP1 PUSH2 0x1B6 SWAP2 SWAP1 PUSH2 0xA84 JUMP JUMPDEST PUSH2 0x674 JUMP JUMPDEST PUSH1 0x40 MLOAD PUSH2 0x1CC SWAP6 SWAP5 SWAP4 SWAP3 SWAP2 SWAP1 PUSH2 0xF26 JUMP JUMPDEST PUSH1 0x40 MLOAD DUP1 SWAP2 SUB SWAP1 RETURN JUMPDEST PUSH2 0x1EF PUSH1 0x4 DUP1 CALLDATASIZE SUB DUP2 ADD SWAP1 PUSH2 0x1EA SWAP2 SWAP1 PUSH2 0xA84 JUMP JUMPDEST PUSH2 0x8DE JUMP JUMPDEST PUSH1 0x40 MLOAD PUSH2 0x1FC SWAP2 SWAP1 PUSH2 0xE10 JUMP JUMPDEST PUSH1 0x40 MLOAD DUP1 SWAP2 SUB SWAP1 RETURN JUMPDEST PUSH2 0x21F PUSH1 0x4 DUP1 CALLDATASIZE SUB DUP2 ADD SWAP1 PUSH2 0x21A SWAP2 SWAP1 PUSH2 0xF8C JUMP JUMPDEST PUSH2 0x949 JUMP JUMPDEST PUSH1 0x40 MLOAD PUSH2 0x22C SWAP2 SWAP1 PUSH2 0xF0D JUMP JUMPDEST PUSH1 0x40 MLOAD DUP1 SWAP2 SUB SWAP1 RETURN JUMPDEST PUSH2 0x24F PUSH1 0x4 DUP1 CALLDATASIZE SUB DUP2 ADD SWAP1 PUSH2 0x24A SWAP2 SWAP1 PUSH2 0xFCA JUMP JUMPDEST PUSH2 0x974 JUMP JUMPDEST PUSH1 0x40 MLOAD PUSH2 0x25C SWAP2 SWAP1 PUSH2 0xF0D JUMP JUMPDEST PUSH1 0x40 MLOAD DUP1 SWAP2 SUB SWAP1 RETURN JUMPDEST PUSH1 0x1 PUSH1 0x20 MSTORE DUP1 PUSH0 MSTORE PUSH1 0x40 PUSH0 KECCAK256 PUSH0 SWAP2 POP SWAP1 POP DUP1 PUSH0 ADD DUP1 SLOAD PUSH2 0x284 SWAP1 PUSH2 0x107F JUMP JUMPDEST DUP1 PUSH1 0x1F ADD PUSH1 0x20 DUP1 SWAP2 DIV MUL PUSH1 0x20 ADD PUSH1 0x40 MLOAD SWAP1 DUP2 ADD PUSH1 0x40 MSTORE DUP1 SWAP3 SWAP2 SWAP1 DUP2 DUP2 MSTORE PUSH1 0x20 ADD DUP3 DUP1 SLOAD PUSH2 0x2B0 SWAP1 PUSH2 0x107F JUMP JUMPDEST DUP1 ISZERO PUSH2 0x2FB JUMPI DUP1 PUSH1 0x1F LT PUSH2 0x2D2 JUMPI PUSH2 0x100 DUP1 DUP4 SLOAD DIV MUL DUP4 MSTORE SWAP2 PUSH1 0x20 ADD SWAP2 PUSH2 0x2FB JUMP JUMPDEST DUP3 ADD SWAP2 SWAP1 PUSH0 MSTORE PUSH1 0x20 PUSH0 KECCAK256 SWAP1 JUMPDEST DUP2 SLOAD DUP2 MSTORE SWAP1 PUSH1 0x1 ADD SWAP1 PUSH1 0x20 ADD DUP1 DUP4 GT PUSH2 0x2DE JUMPI DUP3 SWAP1 SUB PUSH1 0x1F AND DUP3 ADD SWAP2 JUMPDEST POP POP POP POP POP SWAP1 DUP1 PUSH1 0x1 ADD DUP1 SLOAD PUSH2 0x310 SWAP1 PUSH2 0x107F JUMP JUMPDEST DUP1 PUSH1 0x1F ADD PUSH1 0x20 DUP1 SWAP2 DIV MUL PUSH1 0x20 ADD PUSH1 0x40 MLOAD SWAP1 DUP2 ADD PUSH1 0x40 MSTORE DUP1 SWAP3 SWAP2 SWAP1 DUP2 DUP2 MSTORE PUSH1 0x20 ADD DUP3 DUP1 SLOAD PUSH2 0x33C SWAP1 PUSH2 0x107F JUMP JUMPDEST DUP1 ISZERO PUSH2 0x387 JUMPI DUP1 PUSH1 0x1F LT PUSH2 0x35E JUMPI PUSH2 0x100 DUP1 DUP4 SLOAD DIV MUL DUP4 MSTORE SWAP2 PUSH1 0x20 ADD SWAP2 PUSH2 0x387 JUMP JUMPDEST DUP3 ADD SWAP2 SWAP1 PUSH0 MSTORE PUSH1 0x20 PUSH0 KECCAK256 SWAP1 JUMPDEST DUP2 SLOAD DUP2 MSTORE SWAP1 PUSH1 0x1 ADD SWAP1 PUSH1 0x20 ADD DUP1 DUP4 GT PUSH2 0x36A JUMPI DUP3 SWAP1 SUB PUSH1 0x1F AND DUP3 ADD SWAP2 JUMPDEST POP POP POP POP POP SWAP1 DUP1 PUSH1 0x2 ADD DUP1 SLOAD PUSH2 0x39C SWAP1 PUSH2 0x107F JUMP JUMPDEST DUP1 PUSH1 0x1F ADD PUSH1 0x20 DUP1 SWAP2 DIV MUL PUSH1 0x20 ADD PUSH1 0x40 MLOAD SWAP1 DUP2 ADD PUSH1 0x40 MSTORE DUP1 SWAP3 SWAP2 SWAP1 DUP2 DUP2 MSTORE PUSH1 0x20 ADD DUP3 DUP1 SLOAD PUSH2 0x3C8 SWAP1 PUSH2 0x107F JUMP JUMPDEST DUP1 ISZERO PUSH2 0x413 JUMPI DUP1 PUSH1 0x1F LT PUSH2 0x3EA JUMPI PUSH2 0x100 DUP1 DUP4 SLOAD DIV MUL DUP4 MSTORE SWAP2 PUSH1 0x20 ADD SWAP2 PUSH2 0x413 JUMP JUMPDEST DUP3 ADD SWAP2 SWAP1 PUSH0 MSTORE PUSH1 0x20 PUSH0 KECCAK256 SWAP1 JUMPDEST DUP2 SLOAD DUP2 MSTORE SWAP1 PUSH1 0x1 ADD SWAP1 PUSH1 0x20 ADD DUP1 DUP4 GT PUSH2 0x3F6 JUMPI DUP3 SWAP1 SUB PUSH1 0x1F AND DUP3 ADD SWAP2 JUMPDEST POP POP POP POP POP SWAP1 DUP1 PUSH1 0x3 ADD SLOAD SWAP1 DUP1 PUSH1 0x4 ADD SLOAD SWAP1 DUP1 PUSH1 0x5 ADD PUSH0 SWAP1 SLOAD SWAP1 PUSH2 0x100 EXP SWAP1 DIV PUSH20 0xFFFFFFFFFFFFFFFFFFFFFFFFFFFFFFFFFFFFFFFF AND SWAP1 POP DUP7 JUMP JUMPDEST PUSH0 PUSH1 0x2 DUP1 SLOAD SWAP1 POP SWAP1 POP SWAP1 JUMP JUMPDEST PUSH0 PUSH0 PUSH1 0x40 MLOAD DUP1 PUSH1 0xC0 ADD PUSH1 0x40 MSTORE DUP1 DUP8 DUP2 MSTORE PUSH1 0x20 ADD DUP7 DUP2 MSTORE PUSH1 0x20 ADD DUP6 DUP2 MSTORE PUSH1 0x20 ADD TIMESTAMP DUP2 MSTORE PUSH1 0x20 ADD DUP5 DUP2 MSTORE PUSH1 0x20 ADD CALLER PUSH20 0xFFFFFFFFFFFFFFFFFFFFFFFFFFFFFFFFFFFFFFFF AND DUP2 MSTORE POP SWAP1 POP DUP1 PUSH1 0x1 PUSH0 DUP6 DUP2 MSTORE PUSH1 0x20 ADD SWAP1 DUP2 MSTORE PUSH1 0x20 ADD PUSH0 KECCAK256 PUSH0 DUP3 ADD MLOAD DUP2 PUSH0 ADD SWAP1 DUP2 PUSH2 0x4C6 SWAP2 SWAP1 PUSH2 0x124F JUMP JUMPDEST POP PUSH1 0x20 DUP3 ADD MLOAD DUP2 PUSH1 0x1 ADD SWAP1 DUP2 PUSH2 0x4DC SWAP2 SWAP1 PUSH2 0x124F JUMP JUMPDEST POP PUSH1 0x40 DUP3 ADD MLOAD DUP2 PUSH1 0x2 ADD SWAP1 DUP2 PUSH2 0x4F2 SWAP2 SWAP1 PUSH2 0x124F JUMP JUMPDEST POP PUSH1 0x60 DUP3 ADD MLOAD DUP2 PUSH1 0x3 ADD SSTORE PUSH1 0x80 DUP3 ADD MLOAD DUP2 PUSH1 0x4 ADD SSTORE PUSH1 0xA0 DUP3 ADD MLOAD DUP2 PUSH1 0x5 ADD PUSH0 PUSH2 0x100 EXP DUP2 SLOAD DUP2 PUSH20 0xFFFFFFFFFFFFFFFFFFFFFFFFFFFFFFFFFFFFFFFF MUL NOT AND SWAP1 DUP4 PUSH20 0xFFFFFFFFFFFFFFFFFFFFFFFFFFFFFFFFFFFFFFFF AND MUL OR SWAP1 SSTORE POP SWAP1 POP POP PUSH1 0x2 DUP4 SWAP1 DUP1 PUSH1 0x1 DUP2 SLOAD ADD DUP1 DUP3 SSTORE DUP1 SWAP2 POP POP PUSH1 0x1 SWAP1 SUB SWAP1 PUSH0 MSTORE PUSH1 0x20 PUSH0 KECCAK256 ADD PUSH0 SWAP1 SWAP2 SWAP1 SWAP2 SWAP1 SWAP2 POP SSTORE PUSH0 PUSH2 0x581 DUP8 DUP8 PUSH2 0xA0E JUMP JUMPDEST SWAP1 POP PUSH1 0x3 PUSH0 DUP3 DUP2 MSTORE PUSH1 0x20 ADD SWAP1 DUP2 MSTORE PUSH1 0x20 ADD PUSH0 KECCAK256 DUP5 SWAP1 DUP1 PUSH1 0x1 DUP2 SLOAD ADD DUP1 DUP3 SSTORE DUP1 SWAP2 POP POP PUSH1 0x1 SWAP1 SUB SWAP1 PUSH0 MSTORE PUSH1 0x20 PUSH0 KECCAK256 ADD PUSH0 SWAP1 SWAP2 SWAP1 SWAP2 SWAP1 SWAP2 POP SSTORE DUP4 PUSH32 0x8E5250826D83EBB40F2D67B0302958B2C22670A3694D4A96969565060BCC4658 DUP9 DUP9 DUP9 TIMESTAMP PUSH1 0x40 MLOAD PUSH2 0x5EE SWAP5 SWAP4 SWAP3 SWAP2 SWAP1 PUSH2 0x131E JUMP JUMPDEST PUSH1 0x40 MLOAD DUP1 SWAP2 SUB SWAP1 LOG2 PUSH1 0x1 SWAP3 POP POP POP SWAP5 SWAP4 POP POP POP POP JUMP JUMPDEST PUSH0 PUSH0 PUSH2 0x610 DUP5 DUP5 PUSH2 0xA0E JUMP JUMPDEST SWAP1 POP PUSH1 0x3 PUSH0 DUP3 DUP2 MSTORE PUSH1 0x20 ADD SWAP1 DUP2 MSTORE PUSH1 0x20 ADD PUSH0 KECCAK256 DUP1 SLOAD SWAP1 POP SWAP2 POP POP SWAP3 SWAP2 POP POP JUMP JUMPDEST PUSH0 PUSH0 SWAP1 SLOAD SWAP1 PUSH2 0x100 EXP SWAP1 DIV PUSH20 0xFFFFFFFFFFFFFFFFFFFFFFFFFFFFFFFFFFFFFFFF AND DUP2 JUMP JUMPDEST PUSH1 0x2 DUP2 DUP2 SLOAD DUP2 LT PUSH2 0x663 JUMPI PUSH0 DUP1 REVERT JUMPDEST SWAP1 PUSH0 MSTORE PUSH1 0x20 PUSH0 KECCAK256 ADD PUSH0 SWAP2 POP SWAP1 POP SLOAD DUP2 JUMP JUMPDEST PUSH1 0x60 DUP1 PUSH1 0x60 PUSH0 PUSH0 PUSH0 PUSH1 0x1 PUSH0 DUP9 DUP2 MSTORE PUSH1 0x20 ADD SWAP1 DUP2 MSTORE PUSH1 0x20 ADD PUSH0 KECCAK256 PUSH1 0x40 MLOAD DUP1 PUSH1 0xC0 ADD PUSH1 0x40 MSTORE SWAP1 DUP2 PUSH0 DUP3 ADD DUP1 SLOAD PUSH2 0x6A7 SWAP1 PUSH2 0x107F JUMP JUMPDEST DUP1 PUSH1 0x1F ADD PUSH1 0x20 DUP1 SWAP2 DIV MUL PUSH1 0x20 ADD PUSH1 0x40 MLOAD SWAP1 DUP2 ADD PUSH1 0x40 MSTORE DUP1 SWAP3 SWAP2 SWAP1 DUP2 DUP2 MSTORE PUSH1 0x20 ADD DUP3 DUP1 SLOAD PUSH2 0x6D3 SWAP1 PUSH2 0x107F JUMP JUMPDEST DUP1 ISZERO PUSH2 0x71E JUMPI DUP1 PUSH1 0x1F LT PUSH2 0x6F5 JUMPI PUSH2 0x100 DUP1 DUP4 SLOAD DIV MUL DUP4 MSTORE SWAP2 PUSH1 0x20 ADD SWAP2 PUSH2 0x71E JUMP JUMPDEST DUP3 ADD SWAP2 SWAP1 PUSH0 MSTORE PUSH1 0x20 PUSH0 KECCAK256 SWAP1 JUMPDEST DUP2 SLOAD DUP2 MSTORE SWAP1 PUSH1 0x1 ADD SWAP1 PUSH1 0x20 ADD DUP1 DUP4 GT PUSH2 0x701 JUMPI DUP3 SWAP1 SUB PUSH1 0x1F AND DUP3 ADD SWAP2 JUMPDEST POP POP POP POP POP DUP2 MSTORE PUSH1 0x20 ADD PUSH1 0x1 DUP3 ADD DUP1 SLOAD PUSH2 0x737 SWAP1 PUSH2 0x107F JUMP JUMPDEST DUP1 PUSH1 0x1F ADD PUSH1 0x20 DUP1 SWAP2 DIV MUL PUSH1 0x20 ADD PUSH1 0x40 MLOAD SWAP1 DUP2 ADD PUSH1 0x40 MSTORE DUP1 SWAP3 SWAP2 SWAP1 DUP2 DUP2 MSTORE PUSH1 0x20 ADD DUP3 DUP1 SLOAD PUSH2 0x763 SWAP1 PUSH2 0x107F JUMP JUMPDEST DUP1 ISZERO PUSH2 0x7AE JUMPI DUP1 PUSH1 0x1F LT PUSH2 0x785 JUMPI PUSH2 0x100 DUP1 DUP4 SLOAD DIV MUL DUP4 MSTORE SWAP2 PUSH1 0x20 ADD SWAP2 PUSH2 0x7AE JUMP JUMPDEST DUP3 ADD SWAP2 SWAP1 PUSH0 MSTORE PUSH1 0x20 PUSH0 KECCAK256 SWAP1 JUMPDEST DUP2 SLOAD DUP2 MSTORE SWAP1 PUSH1 0x1 ADD SWAP1 PUSH1 0x20 ADD DUP1 DUP4 GT PUSH2 0x791 JUMPI DUP3 SWAP1 SUB PUSH1 0x1F AND DUP3 ADD SWAP2 JUMPDEST POP POP POP POP POP DUP2 MSTORE PUSH1 0x20 ADD PUSH1 0x2 DUP3 ADD DUP1 SLOAD PUSH2 0x7C7 SWAP1 PUSH2 0x107F JUMP JUMPDEST DUP1 PUSH1 0x1F ADD PUSH1 0x20 DUP1 SWAP2 DIV MUL PUSH1 0x20 ADD PUSH1 0x40 MLOAD SWAP1 DUP2 ADD PUSH1 0x40 MSTORE DUP1 SWAP3 SWAP2 SWAP1 DUP2 DUP2 MSTORE PUSH1 0x20 ADD DUP3 DUP1 SLOAD PUSH2 0x7F3 SWAP1 PUSH2 0x107F JUMP JUMPDEST DUP1 ISZERO PUSH2 0x83E JUMPI DUP1 PUSH1 0x1F LT PUSH2 0x815 JUMPI PUSH2 0x100 DUP1 DUP4 SLOAD DIV MUL DUP4 MSTORE SWAP2 PUSH1 0x20 ADD SWAP2 PUSH2 0x83E JUMP JUMPDEST DUP3 ADD SWAP2 SWAP1 PUSH0 MSTORE PUSH1 0x20 PUSH0 KECCAK256 SWAP1 JUMPDEST DUP2 SLOAD DUP2 MSTORE SWAP1 PUSH1 0x1 ADD SWAP1 PUSH1 0x20 ADD DUP1 DUP4 GT PUSH2 0x821 JUMPI DUP3 SWAP1 SUB PUSH1 0x1F AND DUP3 ADD SWAP2 JUMPDEST POP POP POP POP POP DUP2 MSTORE PUSH1 0x20 ADD PUSH1 0x3 DUP3 ADD SLOAD DUP2 MSTORE PUSH1 0x20 ADD PUSH1 0x4 DUP3 ADD SLOAD DUP2 MSTORE PUSH1 0x20 ADD PUSH1 0x5 DUP3 ADD PUSH0 SWAP1 SLOAD SWAP1 PUSH2 0x100 EXP SWAP1 DIV PUSH20 0xFFFFFFFFFFFFFFFFFFFFFFFFFFFFFFFFFFFFFFFF AND PUSH20 0xFFFFFFFFFFFFFFFFFFFFFFFFFFFFFFFFFFFFFFFF AND PUSH20 0xFFFFFFFFFFFFFFFFFFFFFFFFFFFFFFFFFFFFFFFF AND DUP2 MSTORE POP POP SWAP1 POP DUP1 PUSH0 ADD MLOAD DUP2 PUSH1 0x20 ADD MLOAD DUP3 PUSH1 0x40 ADD MLOAD DUP4 PUSH1 0x60 ADD MLOAD DUP5 PUSH1 0xA0 ADD MLOAD SWAP6 POP SWAP6 POP SWAP6 POP SWAP6 POP SWAP6 POP POP SWAP2 SWAP4 SWAP6 SWAP1 SWAP3 SWAP5 POP JUMP JUMPDEST PUSH0 PUSH0 PUSH20 0xFFFFFFFFFFFFFFFFFFFFFFFFFFFFFFFFFFFFFFFF AND PUSH1 0x1 PUSH0 DUP5 DUP2 MSTORE PUSH1 0x20 ADD SWAP1 DUP2 MSTORE PUSH1 0x20 ADD PUSH0 KECCAK256 PUSH1 0x5 ADD PUSH0 SWAP1 SLOAD SWAP1 PUSH2 0x100 EXP SWAP1 DIV PUSH20 0xFFFFFFFFFFFFFFFFFFFFFFFFFFFFFFFFFFFFFFFF AND PUSH20 0xFFFFFFFFFFFFFFFFFFFFFFFFFFFFFFFFFFFFFFFF AND EQ ISZERO SWAP1 POP SWAP2 SWAP1 POP JUMP JUMPDEST PUSH1 0x3 PUSH1 0x20 MSTORE DUP2 PUSH0 MSTORE PUSH1 0x40 PUSH0 KECCAK256 DUP2 DUP2 SLOAD DUP2 LT PUSH2 0x962 JUMPI PUSH0 DUP1 REVERT JUMPDEST SWAP1 PUSH0 MSTORE PUSH1 0x20 PUSH0 KECCAK256 ADD PUSH0 SWAP2 POP SWAP2 POP POP SLOAD DUP2 JUMP JUMPDEST PUSH0 PUSH0 PUSH2 0x980 DUP6 DUP6 PUSH2 0xA0E JUMP JUMPDEST SWAP1 POP PUSH1 0x3 PUSH0 DUP3 DUP2 MSTORE PUSH1 0x20 ADD SWAP1 DUP2 MSTORE PUSH1 0x20 ADD PUSH0 KECCAK256 DUP1 SLOAD SWAP1 POP DUP4 LT PUSH2 0x9D8 JUMPI PUSH1 0x40 MLOAD PUSH32 0x8C379A000000000000000000000000000000000000000000000000000000000 DUP2 MSTORE PUSH1 0x4 ADD PUSH2 0x9CF SWAP1 PUSH2 0x13C0 JUMP JUMPDEST PUSH1 0x40 MLOAD DUP1 SWAP2 SUB SWAP1 REVERT JUMPDEST PUSH1 0x3 PUSH0 DUP3 DUP2 MSTORE PUSH1 0x20 ADD SWAP1 DUP2 MSTORE PUSH1 0x20 ADD PUSH0 KECCAK256 DUP4 DUP2 SLOAD DUP2 LT PUSH2 0x9FB JUMPI PUSH2 0x9FA PUSH2 0x13DE JUMP JUMPDEST JUMPDEST SWAP1 PUSH0 MSTORE PUSH1 0x20 PUSH0 KECCAK256 ADD SLOAD SWAP2 POP POP SWAP4 SWAP3 POP POP POP JUMP JUMPDEST PUSH0 DUP3 DUP3 PUSH1 0x40 MLOAD PUSH1 0x20 ADD PUSH2 0xA22 SWAP3 SWAP2 SWAP1 PUSH2 0x148F JUMP JUMPDEST PUSH1 0x40 MLOAD PUSH1 0x20 DUP2 DUP4 SUB SUB DUP2 MSTORE SWAP1 PUSH1 0x40 MSTORE DUP1 MLOAD SWAP1 PUSH1 0x20 ADD KECCAK256 SWAP1 POP SWAP3 SWAP2 POP POP JUMP JUMPDEST PUSH0 PUSH1 0x40 MLOAD SWAP1 POP SWAP1 JUMP JUMPDEST PUSH0 PUSH0 REVERT JUMPDEST PUSH0 PUSH0 REVERT JUMPDEST PUSH0 DUP2 SWAP1 POP SWAP2 SWAP1 POP JUMP JUMPDEST PUSH2 0xA63 DUP2 PUSH2 0xA51 JUMP JUMPDEST DUP2 EQ PUSH2 0xA6D JUMPI PUSH0 PUSH0 REVERT JUMPDEST POP JUMP JUMPDEST PUSH0 DUP2 CALLDATALOAD SWAP1 POP PUSH2 0xA7E DUP2 PUSH2 0xA5A JUMP JUMPDEST SWAP3 SWAP2 POP POP JUMP JUMPDEST PUSH0 PUSH1 0x20 DUP3 DUP5 SUB SLT ISZERO PUSH2 0xA99 JUMPI PUSH2 0xA98 PUSH2 0xA49 JUMP JUMPDEST JUMPDEST PUSH0 PUSH2 0xAA6 DUP5 DUP3 DUP6 ADD PUSH2 0xA70 JUMP JUMPDEST SWAP2 POP POP SWAP3 SWAP2 POP POP JUMP JUMPDEST PUSH0 DUP2 MLOAD SWAP1 POP SWAP2 SWAP1 POP JUMP JUMPDEST PUSH0 DUP3 DUP3 MSTORE PUSH1 0x20 DUP3 ADD SWAP1 POP SWAP3 SWAP2 POP POP JUMP JUMPDEST DUP3 DUP2 DUP4 MCOPY PUSH0 DUP4 DUP4 ADD MSTORE POP POP POP JUMP JUMPDEST PUSH0 PUSH1 0x1F NOT PUSH1 0x1F DUP4 ADD AND SWAP1 POP SWAP2 SWAP1 POP JUMP JUMPDEST PUSH0 PUSH2 0xAF1 DUP3 PUSH2 0xAAF JUMP JUMPDEST PUSH2 0xAFB DUP2 DUP6 PUSH2 0xAB9 JUMP JUMPDEST SWAP4 POP PUSH2 0xB0B DUP2 DUP6 PUSH1 0x20 DUP7 ADD PUSH2 0xAC9 JUMP JUMPDEST PUSH2 0xB14 DUP2 PUSH2 0xAD7 JUMP JUMPDEST DUP5 ADD SWAP2 POP POP SWAP3 SWAP2 POP POP JUMP JUMPDEST PUSH0 DUP2 SWAP1 POP SWAP2 SWAP1 POP JUMP JUMPDEST PUSH2 0xB31 DUP2 PUSH2 0xB1F JUMP JUMPDEST DUP3 MSTORE POP POP JUMP JUMPDEST PUSH2 0xB40 DUP2 PUSH2 0xA51 JUMP JUMPDEST DUP3 MSTORE POP POP JUMP JUMPDEST PUSH0 PUSH20 0xFFFFFFFFFFFFFFFFFFFFFFFFFFFFFFFFFFFFFFFF DUP3 AND SWAP1 POP SWAP2 SWAP1 POP JUMP JUMPDEST PUSH0 PUSH2 0xB6F DUP3 PUSH2 0xB46 JUMP JUMPDEST SWAP1 POP SWAP2 SWAP1 POP JUMP JUMPDEST PUSH2 0xB7F DUP2 PUSH2 0xB65 JUMP JUMPDEST DUP3 MSTORE POP POP JUMP JUMPDEST PUSH0 PUSH1 0xC0 DUP3 ADD SWAP1 POP DUP2 DUP2 SUB PUSH0 DUP4 ADD MSTORE PUSH2 0xB9D DUP2 DUP10 PUSH2 0xAE7 JUMP JUMPDEST SWAP1 POP DUP2 DUP2 SUB PUSH1 0x20 DUP4 ADD MSTORE PUSH2 0xBB1 DUP2 DUP9 PUSH2 0xAE7 JUMP JUMPDEST SWAP1 POP DUP2 DUP2 SUB PUSH1 0x40 DUP4 ADD MSTORE PUSH2 0xBC5 DUP2 DUP8 PUSH2 0xAE7 JUMP JUMPDEST SWAP1 POP PUSH2 0xBD4 PUSH1 0x60 DUP4 ADD DUP7 PUSH2 0xB28 JUMP JUMPDEST PUSH2 0xBE1 PUSH1 0x80 DUP4 ADD DUP6 PUSH2 0xB37 JUMP JUMPDEST PUSH2 0xBEE PUSH1 0xA0 DUP4 ADD DUP5 PUSH2 0xB76 JUMP JUMPDEST SWAP8 SWAP7 POP POP POP POP POP POP POP JUMP JUMPDEST PUSH0 PUSH1 0x20 DUP3 ADD SWAP1 POP PUSH2 0xC0C PUSH0 DUP4 ADD DUP5 PUSH2 0xB28 JUMP JUMPDEST SWAP3 SWAP2 POP POP JUMP JUMPDEST PUSH0 PUSH0 REVERT JUMPDEST PUSH0 PUSH0 REVERT JUMPDEST PUSH32 0x4E487B7100000000000000000000000000000000000000000000000000000000 PUSH0 MSTORE PUSH1 0x41 PUSH1 0x4 MSTORE PUSH1 0x24 PUSH0 REVERT JUMPDEST PUSH2 0xC50 DUP3 PUSH2 0xAD7 JUMP JUMPDEST DUP2 ADD DUP2 DUP2 LT PUSH8 0xFFFFFFFFFFFFFFFF DUP3 GT OR ISZERO PUSH2 0xC6F JUMPI PUSH2 0xC6E PUSH2 0xC1A JUMP JUMPDEST JUMPDEST DUP1 PUSH1 0x40 MSTORE POP POP POP JUMP JUMPDEST PUSH0 PUSH2 0xC81 PUSH2 0xA40 JUMP JUMPDEST SWAP1 POP PUSH2 0xC8D DUP3 DUP3 PUSH2 0xC47 JUMP JUMPDEST SWAP2 SWAP1 POP JUMP JUMPDEST PUSH0 PUSH8 0xFFFFFFFFFFFFFFFF DUP3 GT ISZERO PUSH2 0xCAC JUMPI PUSH2 0xCAB PUSH2 0xC1A JUMP JUMPDEST JUMPDEST PUSH2 0xCB5 DUP3 PUSH2 0xAD7 JUMP JUMPDEST SWAP1 POP PUSH1 0x20 DUP2 ADD SWAP1 POP SWAP2 SWAP1 POP JUMP JUMPDEST DUP3 DUP2 DUP4 CALLDATACOPY PUSH0 DUP4 DUP4 ADD MSTORE POP POP POP JUMP JUMPDEST PUSH0 PUSH2 0xCE2 PUSH2 0xCDD DUP5 PUSH2 0xC92 JUMP JUMPDEST PUSH2 0xC78 JUMP JUMPDEST SWAP1 POP DUP3 DUP2 MSTORE PUSH1 0x20 DUP2 ADD DUP5 DUP5 DUP5 ADD GT ISZERO PUSH2 0xCFE JUMPI PUSH2 0xCFD PUSH2 0xC16 JUMP JUMPDEST JUMPDEST PUSH2 0xD09 DUP5 DUP3 DUP6 PUSH2 0xCC2 JUMP JUMPDEST POP SWAP4 SWAP3 POP POP POP JUMP JUMPDEST PUSH0 DUP3 PUSH1 0x1F DUP4 ADD SLT PUSH2 0xD25 JUMPI PUSH2 0xD24 PUSH2 0xC12 JUMP JUMPDEST JUMPDEST DUP2 CALLDATALOAD PUSH2 0xD35 DUP5 DUP3 PUSH1 0x20 DUP7 ADD PUSH2 0xCD0 JUMP JUMPDEST SWAP2 POP POP SWAP3 SWAP2 POP POP JUMP JUMPDEST PUSH0 PUSH0 PUSH0 PUSH0 PUSH1 0x80 DUP6 DUP8 SUB SLT ISZERO PUSH2 0xD56 JUMPI PUSH2 0xD55 PUSH2 0xA49 JUMP JUMPDEST JUMPDEST PUSH0 DUP6 ADD CALLDATALOAD PUSH8 0xFFFFFFFFFFFFFFFF DUP2 GT ISZERO PUSH2 0xD73 JUMPI PUSH2 0xD72 PUSH2 0xA4D JUMP JUMPDEST JUMPDEST PUSH2 0xD7F DUP8 DUP3 DUP9 ADD PUSH2 0xD11 JUMP JUMPDEST SWAP5 POP POP PUSH1 0x20 DUP6 ADD CALLDATALOAD PUSH8 0xFFFFFFFFFFFFFFFF DUP2 GT ISZERO PUSH2 0xDA0 JUMPI PUSH2 0xD9F PUSH2 0xA4D JUMP JUMPDEST JUMPDEST PUSH2 0xDAC DUP8 DUP3 DUP9 ADD PUSH2 0xD11 JUMP JUMPDEST SWAP4 POP POP PUSH1 0x40 DUP6 ADD CALLDATALOAD PUSH8 0xFFFFFFFFFFFFFFFF DUP2 GT ISZERO PUSH2 0xDCD JUMPI PUSH2 0xDCC PUSH2 0xA4D JUMP JUMPDEST JUMPDEST PUSH2 0xDD9 DUP8 DUP3 DUP9 ADD PUSH2 0xD11 JUMP JUMPDEST SWAP3 POP POP PUSH1 0x60 PUSH2 0xDEA DUP8 DUP3 DUP9 ADD PUSH2 0xA70 JUMP JUMPDEST SWAP2 POP POP SWAP3 SWAP6 SWAP2 SWAP5 POP SWAP3 POP JUMP JUMPDEST PUSH0 DUP2 ISZERO ISZERO SWAP1 POP SWAP2 SWAP1 POP JUMP JUMPDEST PUSH2 0xE0A DUP2 PUSH2 0xDF6 JUMP JUMPDEST DUP3 MSTORE POP POP JUMP JUMPDEST PUSH0 PUSH1 0x20 DUP3 ADD SWAP1 POP PUSH2 0xE23 PUSH0 DUP4 ADD DUP5 PUSH2 0xE01 JUMP JUMPDEST SWAP3 SWAP2 POP POP JUMP JUMPDEST PUSH0 PUSH0 PUSH1 0x40 DUP4 DUP6 SUB SLT ISZERO PUSH2 0xE3F JUMPI PUSH2 0xE3E PUSH2 0xA49 JUMP JUMPDEST JUMPDEST PUSH0 DUP4 ADD CALLDATALOAD PUSH8 0xFFFFFFFFFFFFFFFF DUP2 GT ISZERO PUSH2 0xE5C JUMPI PUSH2 0xE5B PUSH2 0xA4D JUMP JUMPDEST JUMPDEST PUSH2 0xE68 DUP6 DUP3 DUP7 ADD PUSH2 0xD11 JUMP JUMPDEST SWAP3 POP POP PUSH1 0x20 DUP4 ADD CALLDATALOAD PUSH8 0xFFFFFFFFFFFFFFFF DUP2 GT ISZERO PUSH2 0xE89 JUMPI PUSH2 0xE88 PUSH2 0xA4D JUMP JUMPDEST JUMPDEST PUSH2 0xE95 DUP6 DUP3 DUP7 ADD PUSH2 0xD11 JUMP JUMPDEST SWAP2 POP POP SWAP3 POP SWAP3 SWAP1 POP JUMP JUMPDEST PUSH0 PUSH1 0x20 DUP3 ADD SWAP1 POP PUSH2 0xEB2 PUSH0 DUP4 ADD DUP5 PUSH2 0xB76 JUMP JUMPDEST SWAP3 SWAP2 POP POP JUMP JUMPDEST PUSH2 0xEC1 DUP2 PUSH2 0xB1F JUMP JUMPDEST DUP2 EQ PUSH2 0xECB JUMPI PUSH0 PUSH0 REVERT JUMPDEST POP JUMP JUMPDEST PUSH0 DUP2 CALLDATALOAD SWAP1 POP PUSH2 0xEDC DUP2 PUSH2 0xEB8 JUMP JUMPDEST SWAP3 SWAP2 POP POP JUMP JUMPDEST PUSH0 PUSH1 0x20 DUP3 DUP5 SUB SLT ISZERO PUSH2 0xEF7 JUMPI PUSH2 0xEF6 PUSH2 0xA49 JUMP JUMPDEST JUMPDEST PUSH0 PUSH2 0xF04 DUP5 DUP3 DUP6 ADD PUSH2 0xECE JUMP JUMPDEST SWAP2 POP POP SWAP3 SWAP2 POP POP JUMP JUMPDEST PUSH0 PUSH1 0x20 DUP3 ADD SWAP1 POP PUSH2 0xF20 PUSH0 DUP4 ADD DUP5 PUSH2 0xB37 JUMP JUMPDEST SWAP3 SWAP2 POP POP JUMP JUMPDEST PUSH0 PUSH1 0xA0 DUP3 ADD SWAP1 POP DUP2 DUP2 SUB PUSH0 DUP4 ADD MSTORE PUSH2 0xF3E DUP2 DUP9 PUSH2 0xAE7 JUMP JUMPDEST SWAP1 POP DUP2 DUP2 SUB PUSH1 0x20 DUP4 ADD MSTORE PUSH2 0xF52 DUP2 DUP8 PUSH2 0xAE7 JUMP JUMPDEST SWAP1 POP DUP2 DUP2 SUB PUSH1 0x40 DUP4 ADD MSTORE PUSH2 0xF66 DUP2 DUP7 PUSH2 0xAE7 JUMP JUMPDEST SWAP1 POP PUSH2 0xF75 PUSH1 0x60 DUP4 ADD DUP6 PUSH2 0xB28 JUMP JUMPDEST PUSH2 0xF82 PUSH1 0x80 DUP4 ADD DUP5 PUSH2 0xB76 JUMP JUMPDEST SWAP7 SWAP6 POP POP POP POP POP POP JUMP JUMPDEST PUSH0 PUSH0 PUSH1 0x40 DUP4 DUP6 SUB SLT ISZERO PUSH2 0xFA2 JUMPI PUSH2 0xFA1 PUSH2 0xA49 JUMP JUMPDEST JUMPDEST PUSH0 PUSH2 0xFAF DUP6 DUP3 DUP7 ADD PUSH2 0xA70 JUMP JUMPDEST SWAP3 POP POP PUSH1 0x20 PUSH2 0xFC0 DUP6 DUP3 DUP7 ADD PUSH2 0xECE JUMP JUMPDEST SWAP2 POP POP SWAP3 POP SWAP3 SWAP1 POP JUMP JUMPDEST PUSH0 PUSH0 PUSH0 PUSH1 0x60 DUP5 DUP7 SUB SLT ISZERO PUSH2 0xFE1 JUMPI PUSH2 0xFE0 PUSH2 0xA49 JUMP JUMPDEST JUMPDEST PUSH0 DUP5 ADD CALLDATALOAD PUSH8 0xFFFFFFFFFFFFFFFF DUP2 GT ISZERO PUSH2 0xFFE JUMPI PUSH2 0xFFD PUSH2 0xA4D JUMP JUMPDEST JUMPDEST PUSH2 0x100A DUP7 DUP3 DUP8 ADD PUSH2 0xD11 JUMP JUMPDEST SWAP4 POP POP PUSH1 0x20 DUP5 ADD CALLDATALOAD PUSH8 0xFFFFFFFFFFFFFFFF DUP2 GT ISZERO PUSH2 0x102B JUMPI PUSH2 0x102A PUSH2 0xA4D JUMP JUMPDEST JUMPDEST PUSH2 0x1037 DUP7 DUP3 DUP8 ADD PUSH2 0xD11 JUMP JUMPDEST SWAP3 POP POP PUSH1 0x40 PUSH2 0x1048 DUP7 DUP3 DUP8 ADD PUSH2 0xECE JUMP JUMPDEST SWAP2 POP POP SWAP3 POP SWAP3 POP SWAP3 JUMP JUMPDEST PUSH32 0x4E487B7100000000000000000000000000000000000000000000000000000000 PUSH0 MSTORE PUSH1 0x22 PUSH1 0x4 MSTORE PUSH1 0x24 PUSH0 REVERT JUMPDEST PUSH0 PUSH1 0x2 DUP3 DIV SWAP1 POP PUSH1 0x1 DUP3 AND DUP1 PUSH2 0x1096 JUMPI PUSH1 0x7F DUP3 AND SWAP2 POP JUMPDEST PUSH1 0x20 DUP3 LT DUP2 SUB PUSH2 0x10A9 JUMPI PUSH2 0x10A8 PUSH2 0x1052 JUMP JUMPDEST JUMPDEST POP SWAP2 SWAP1 POP JUMP JUMPDEST PUSH0 DUP2 SWAP1 POP DUP2 PUSH0 MSTORE PUSH1 0x20 PUSH0 KECCAK256 SWAP1 POP SWAP2 SWAP1 POP JUMP JUMPDEST PUSH0 PUSH1 0x20 PUSH1 0x1F DUP4 ADD DIV SWAP1 POP SWAP2 SWAP1 POP JUMP JUMPDEST PUSH0 DUP3 DUP3 SHL SWAP1 POP SWAP3 SWAP2 POP POP JUMP JUMPDEST PUSH0 PUSH1 0x8 DUP4 MUL PUSH2 0x110B PUSH32 0xFFFFFFFFFFFFFFFFFFFFFFFFFFFFFFFFFFFFFFFFFFFFFFFFFFFFFFFFFFFFFFFF DUP3 PUSH2 0x10D0 JUMP JUMPDEST PUSH2 0x1115 DUP7 DUP4 PUSH2 0x10D0 JUMP JUMPDEST SWAP6 POP DUP1 NOT DUP5 AND SWAP4 POP DUP1 DUP7 AND DUP5 OR SWAP3 POP POP POP SWAP4 SWAP3 POP POP POP JUMP JUMPDEST PUSH0 DUP2 SWAP1 POP SWAP2 SWAP1 POP JUMP JUMPDEST PUSH0 PUSH2 0x1150 PUSH2 0x114B PUSH2 0x1146 DUP5 PUSH2 0xB1F JUMP JUMPDEST PUSH2 0x112D JUMP JUMPDEST PUSH2 0xB1F JUMP JUMPDEST SWAP1 POP SWAP2 SWAP1 POP JUMP JUMPDEST PUSH0 DUP2 SWAP1 POP SWAP2 SWAP1 POP JUMP JUMPDEST PUSH2 0x1169 DUP4 PUSH2 0x1136 JUMP JUMPDEST PUSH2 0x117D PUSH2 0x1175 DUP3 PUSH2 0x1157 JUMP JUMPDEST DUP5 DUP5 SLOAD PUSH2 0x10DC JUMP JUMPDEST DUP3 SSTORE POP POP POP POP JUMP JUMPDEST PUSH0 PUSH0 SWAP1 POP SWAP1 JUMP JUMPDEST PUSH2 0x1194 PUSH2 0x1185 JUMP JUMPDEST PUSH2 0x119F DUP2 DUP5 DUP5 PUSH2 0x1160 JUMP JUMPDEST POP POP POP JUMP JUMPDEST JUMPDEST DUP2 DUP2 LT ISZERO PUSH2 0x11C2 JUMPI PUSH2 0x11B7 PUSH0 DUP3 PUSH2 0x118C JUMP JUMPDEST PUSH1 0x1 DUP2 ADD SWAP1 POP PUSH2 0x11A5 JUMP JUMPDEST POP POP JUMP JUMPDEST PUSH1 0x1F DUP3 GT ISZERO PUSH2 0x1207 JUMPI PUSH2 0x11D8 DUP2 PUSH2 0x10AF JUMP JUMPDEST PUSH2 0x11E1 DUP5 PUSH2 0x10C1 JUMP JUMPDEST DUP2 ADD PUSH1 0x20 DUP6 LT ISZERO PUSH2 0x11F0 JUMPI DUP2 SWAP1 POP JUMPDEST PUSH2 0x1204 PUSH2 0x11FC DUP6 PUSH2 0x10C1 JUMP JUMPDEST DUP4 ADD DUP3 PUSH2 0x11A4 JUMP JUMPDEST POP POP JUMPDEST POP POP POP JUMP JUMPDEST PUSH0 DUP3 DUP3 SHR SWAP1 POP SWAP3 SWAP2 POP POP JUMP JUMPDEST PUSH0 PUSH2 0x1227 PUSH0 NOT DUP5 PUSH1 0x8 MUL PUSH2 0x120C JUMP JUMPDEST NOT DUP1 DUP4 AND SWAP2 POP POP SWAP3 SWAP2 POP POP JUMP JUMPDEST PUSH0 PUSH2 0x123F DUP4 DUP4 PUSH2 0x1218 JUMP JUMPDEST SWAP2 POP DUP3 PUSH1 0x2 MUL DUP3 OR SWAP1 POP SWAP3 SWAP2 POP POP JUMP JUMPDEST PUSH2 0x1258 DUP3 PUSH2 0xAAF JUMP JUMPDEST PUSH8 0xFFFFFFFFFFFFFFFF DUP2 GT ISZERO PUSH2 0x1271 JUMPI PUSH2 0x1270 PUSH2 0xC1A JUMP JUMPDEST JUMPDEST PUSH2 0x127B DUP3 SLOAD PUSH2 0x107F JUMP JUMPDEST PUSH2 0x1286 DUP3 DUP3 DUP6 PUSH2 0x11C6 JUMP JUMPDEST PUSH0 PUSH1 0x20 SWAP1 POP PUSH1 0x1F DUP4 GT PUSH1 0x1 DUP2 EQ PUSH2 0x12B7 JUMPI PUSH0 DUP5 ISZERO PUSH2 0x12A5 JUMPI DUP3 DUP8 ADD MLOAD SWAP1 POP JUMPDEST PUSH2 0x12AF DUP6 DUP3 PUSH2 0x1234 JUMP JUMPDEST DUP7 SSTORE POP PUSH2 0x1316 JUMP JUMPDEST PUSH1 0x1F NOT DUP5 AND PUSH2 0x12C5 DUP7 PUSH2 0x10AF JUMP JUMPDEST PUSH0 JUMPDEST DUP3 DUP2 LT ISZERO PUSH2 0x12EC JUMPI DUP5 DUP10 ADD MLOAD DUP3 SSTORE PUSH1 0x1 DUP3 ADD SWAP2 POP PUSH1 0x20 DUP6 ADD SWAP5 POP PUSH1 0x20 DUP2 ADD SWAP1 POP PUSH2 0x12C7 JUMP JUMPDEST DUP7 DUP4 LT ISZERO PUSH2 0x1309 JUMPI DUP5 DUP10 ADD MLOAD PUSH2 0x1305 PUSH1 0x1F DUP10 AND DUP3 PUSH2 0x1218 JUMP JUMPDEST DUP4 SSTORE POP JUMPDEST PUSH1 0x1 PUSH1 0x2 DUP9 MUL ADD DUP9 SSTORE POP POP POP JUMPDEST POP POP POP POP POP POP JUMP JUMPDEST PUSH0 PUSH1 0x80 DUP3 ADD SWAP1 POP DUP2 DUP2 SUB PUSH0 DUP4 ADD MSTORE PUSH2 0x1336 DUP2 DUP8 PUSH2 0xAE7 JUMP JUMPDEST SWAP1 POP DUP2 DUP2 SUB PUSH1 0x20 DUP4 ADD MSTORE PUSH2 0x134A DUP2 DUP7 PUSH2 0xAE7 JUMP JUMPDEST SWAP1 POP DUP2 DUP2 SUB PUSH1 0x40 DUP4 ADD MSTORE PUSH2 0x135E DUP2 DUP6 PUSH2 0xAE7 JUMP JUMPDEST SWAP1 POP PUSH2 0x136D PUSH1 0x60 DUP4 ADD DUP5 PUSH2 0xB28 JUMP JUMPDEST SWAP6 SWAP5 POP POP POP POP POP JUMP JUMPDEST PUSH32 0x496E646578206F7574206F6620626F756E647300000000000000000000000000 PUSH0 DUP3 ADD MSTORE POP JUMP JUMPDEST PUSH0 PUSH2 0x13AA PUSH1 0x13 DUP4 PUSH2 0xAB9 JUMP JUMPDEST SWAP2 POP PUSH2 0x13B5 DUP3 PUSH2 0x1376 JUMP JUMPDEST PUSH1 0x20 DUP3 ADD SWAP1 POP SWAP2 SWAP1 POP JUMP JUMPDEST PUSH0 PUSH1 0x20 DUP3 ADD SWAP1 POP DUP2 DUP2 SUB PUSH0 DUP4 ADD MSTORE PUSH2 0x13D7 DUP2 PUSH2 0x139E JUMP JUMPDEST SWAP1 POP SWAP2 SWAP1 POP JUMP JUMPDEST PUSH32 0x4E487B7100000000000000000000000000000000000000000000000000000000 PUSH0 MSTORE PUSH1 0x32 PUSH1 0x4 MSTORE PUSH1 0x24 PUSH0 REVERT JUMPDEST PUSH0 DUP2 SWAP1 POP SWAP3 SWAP2 POP POP JUMP JUMPDEST PUSH0 PUSH2 0x141F DUP3 PUSH2 0xAAF JUMP JUMPDEST PUSH2 0x1429 DUP2 DUP6 PUSH2 0x140B JUMP JUMPDEST SWAP4 POP PUSH2 0x1439 DUP2 DUP6 PUSH1 0x20 DUP7 ADD PUSH2 0xAC9 JUMP JUMPDEST DUP1 DUP5 ADD SWAP2 POP POP SWAP3 SWAP2 POP POP JUMP JUMPDEST PUSH32 0x3A00000000000000000000000000000000000000000000000000000000000000 PUSH0 DUP3 ADD MSTORE POP JUMP JUMPDEST PUSH0 PUSH2 0x1479 PUSH1 0x1 DUP4 PUSH2 0x140B JUMP JUMPDEST SWAP2 POP PUSH2 0x1484 DUP3 PUSH2 0x1445 JUMP JUMPDEST PUSH1 0x1 DUP3 ADD SWAP1 POP SWAP2 SWAP1 POP JUMP JUMPDEST PUSH0 PUSH2 0x149A DUP3 DUP6 PUSH2 0x1415 JUMP JUMPDEST SWAP2 POP PUSH2 0x14A5 DUP3 PUSH2 0x146D JUMP JUMPDEST SWAP2 POP PUSH2 0x14B1 DUP3 DUP5 PUSH2 0x1415 JUMP JUMPDEST SWAP2 POP DUP2 SWAP1 POP SWAP4 SWAP3 POP POP POP JUMP INVALID LOG2 PUSH5 0x6970667358 0x22 SLT KECCAK256 0xC5 PUSH14 0x343C80F0FAFA361E88751522DDFE PUSH16 0x65A8746B454F2CE0F321309A2CF74464 PUSH20 0x6F6C634300081D00330000000000000000000000 "
    },
    "gasEstimates": {
      "creation": {
        "codeDepositCost": "1072600",
        "executionCost": "25376",
        "totalCost": "1097976"
      },
      "external": {
        "documentExists(bytes32)": "2880",
        "documentHashes(uint256)": "4871",
        "documentHistory(bytes32,uint256)": "infinite",
        "documents(bytes32)": "infinite",
        "getDocument(bytes32)": "infinite",
        "getDocumentCount()": "2463",
        "getDocumentHistoryCount(string,string)": "infinite",
        "getDocumentHistoryHash(string,string,uint256)": "infinite",
        "owner()": "2596",
        "recordDocument(string,string,string,bytes32)": "infinite"
      },
      "internal": {
        "_createDocumentKey(string memory,string memory)": "infinite"
      }
    },
    "methodIdentifiers": {
      "documentExists(bytes32)": "cbfe6d41",
      "documentHashes(uint256)": "8e383c6b",
      "documentHistory(bytes32,uint256)": "d64bfe6c",
      "documents(bytes32)": "2b2805db",
      "getDocument(bytes32)": "b10d6b41",
      "getDocumentCount()": "3d1c2273",
      "getDocumentHistoryCount(string,string)": "7882a36a",
      "getDocumentHistoryHash(string,string,uint256)": "eaed5bd3",
      "owner()": "8da5cb5b",
      "recordDocument(string,string,string,bytes32)": "6a8609e5"
    }
  },
  "storageLayout": {
    "storage": [
      {
        "astId": 4,
        "contract": "ERPStorage.sol:ERPStorage",
        "label": "owner",
        "offset": 0,
        "slot": "0",
        "type": "t_address"
      },
      {
        "astId": 22,
        "contract": "ERPStorage.sol:ERPStorage",
        "label": "documents",
        "offset": 0,
        "slot": "1",
        "type": "t_mapping(t_bytes32,t_struct(Document)17_storage)"
      },
      {
        "astId": 25,
        "contract": "ERPStorage.sol:ERPStorage",
        "label": "documentHashes",
        "offset": 0,
        "slot": "2",
        "type": "t_array(t_bytes32)dyn_storage"
      },
      {
        "astId": 30,
        "contract": "ERPStorage.sol:ERPStorage",
        "label": "documentHistory",
        "offset": 0,
        "slot": "3",
        "type": "t_mapping(t_bytes32,t_array(t_bytes32)dyn_storage)"
      }
    ],
    "types": {
      "t_address": {
        "encoding": "inplace",
        "label": "address",
        "numberOfBytes": "20"
      },
      "t_array(t_bytes32)dyn_storage": {
        "base": "t_bytes32",
        "encoding": "dynamic_array",
        "label": "bytes32[]",
        "numberOfBytes": "32"
      },
      "t_bytes32": {
        "encoding": "inplace",
        "label": "bytes32",
        "numberOfBytes": "32"
      },
      "t_mapping(t_bytes32,t_array(t_bytes32)dyn_storage)": {
        "encoding": "mapping",
        "key": "t_bytes32",
        "label": "mapping(bytes32 => bytes32[])",
        "numberOfBytes": "32",
        "value": "t_array(t_bytes32)dyn_storage"
      },
      "t_mapping(t_bytes32,t_struct(Document)17_storage)": {
        "encoding": "mapping",
        "key": "t_bytes32",
        "label": "mapping(bytes32 => struct ERPStorage.Document)",
        "numberOfBytes": "32",
        "value": "t_struct(Document)17_storage"
      },
      "t_string_storage": {
        "encoding": "bytes",
        "label": "string",
        "numberOfBytes": "32"
      },
      "t_struct(Document)17_storage": {
        "encoding": "inplace",
        "label": "struct ERPStorage.Document",
        "members": [
          {
            "astId": 6,
            "contract": "ERPStorage.sol:ERPStorage",
            "label": "doctype",
            "offset": 0,
            "slot": "0",
            "type": "t_string_storage"
          },
          {
            "astId": 8,
            "contract": "ERPStorage.sol:ERPStorage",
            "label": "name",
            "offset": 0,
            "slot": "1",
            "type": "t_string_storage"
          },
          {
            "astId": 10,
            "contract": "ERPStorage.sol:ERPStorage",
            "label": "eventType",
            "offset": 0,
            "slot": "2",
            "type": "t_string_storage"
          },
          {
            "astId": 12,
            "contract": "ERPStorage.sol:ERPStorage",
            "label": "timestamp",
            "offset": 0,
            "slot": "3",
            "type": "t_uint256"
          },
          {
            "astId": 14,
            "contract": "ERPStorage.sol:ERPStorage",
            "label": "dataHash",
            "offset": 0,
            "slot": "4",
            "type": "t_bytes32"
          },
          {
            "astId": 16,
            "contract": "ERPStorage.sol:ERPStorage",
            "label": "recorder",
            "offset": 0,
            "slot": "5",
            "type": "t_address"
          }
        ],
        "numberOfBytes": "192"
      },
      "t_uint256": {
        "encoding": "inplace",
        "label": "uint256",
        "numberOfBytes": "32"
      }
    }
  },
  "transientStorageLayout": {
    "storage": [],
    "types": null
  },
  "userdoc": {
    "kind": "user",
    "methods": {},
    "version": 1
  }
}