{
  "contractName": "AttendanceStorage",
  "abi": [
    {
      "anonymous": false,
      "inputs": [
        {
          "indexed": true,
          "internalType": "string",
          "name": "recordId",
          "type": "string"
        },
        {
          "indexed": false,
          "internalType": "uint256",
          "name": "createdTimestamp",
          "type": "uint256"
        },
        {
          "indexed": false,
          "internalType": "uint256",
          "name": "modifiedTimestamp",
          "type": "uint256"
        }
      ],
      "name": "AttendanceStored",
      "type": "event"
    },
    {
      "anonymous": false,
      "inputs": [
        {
          "indexed": true,
          "internalType": "string",
          "name": "recordId",
          "type": "string"
        },
        {
          "indexed": false,
          "internalType": "uint256",
          "name": "modifiedTimestamp",
          "type": "uint256"
        }
      ],
      "name": "AttendanceUpdated",
      "type": "event"
    },
    {
      "inputs": [
        {
          "internalType": "string",
          "name": "",
          "type": "string"
        }
      ],
      "name": "attendanceExists",
      "outputs": [
        {
          "internalType": "bool",
          "name": "",
          "type": "bool"
        }
      ],
      "stateMutability": "view",
      "type": "function",
      "constant": true
    },
    {
      "inputs": [
        {
          "internalType": "uint256",
          "name": "",
          "type": "uint256"
        }
      ],
      "name": "attendanceIds",
      "outputs": [
        {
          "internalType": "string",
          "name": "",
          "type": "string"
        }
      ],
      "stateMutability": "view",
      "type": "function",
      "constant": true
    },
    {
      "inputs": [
        {
          "internalType": "string",
          "name": "",
          "type": "string"
        }
      ],
      "name": "attendances",
      "outputs": [
        {
          "internalType": "string",
          "name": "recordId",
          "type": "string"
        },
        {
          "internalType": "uint256",
          "name": "createdTimestamp",
          "type": "uint256"
        },
        {
          "internalType": "uint256",
          "name": "modifiedTimestamp",
          "type": "uint256"
        },
        {
          "internalType": "string",
          "name": "modifiedBy",
          "type": "string"
        },
        {
          "internalType": "string",
          "name": "allData",
          "type": "string"
        }
      ],
      "stateMutability": "view",
      "type": "function",
      "constant": true
    },
    {
      "inputs": [
        {
          "internalType": "string",
          "name": "_recordId",
          "type": "string"
        },
        {
          "internalType": "uint256",
          "name": "_createdTimestamp",
          "type": "uint256"
        },
        {
          "internalType": "uint256",
          "name": "_modifiedTimestamp",
          "type": "uint256"
        },
        {
          "internalType": "string",
          "name": "_modifiedBy",
          "type": "string"
        },
        {
          "internalType": "string",
          "name": "_allData",
          "type": "string"
        }
      ],
      "name": "storeAttendance",
      "outputs": [
        {
          "internalType": "bool",
          "name": "",
          "type": "bool"
        }
      ],
      "stateMutability": "nonpayable",
      "type": "function"
    },
    {
      "inputs": [
        {
          "internalType": "string",
          "name": "_recordId",
          "type": "string"
        }
      ],
      "name": "getAttendance",
      "outputs": [
        {
          "internalType": "string",
          "name": "recordId",
          "type": "string"
        },
        {
          "internalType": "uint256",
          "name": "createdTimestamp",
          "type": "uint256"
        },
        {
          "internalType": "uint256",
          "name": "modifiedTimestamp",
          "type": "uint256"
        },
        {
          "internalType": "string",
          "name": "modifiedBy",
          "type": "string"
        },
        {
          "internalType": "string",
          "name": "allData",
          "type": "string"
        }
      ],
      "stateMutability": "view",
      "type": "function",
      "constant": true
    },
    {
      "inputs": [],
      "name": "getTotalAttendances",
      "outputs": [
        {
          "internalType": "uint256",
          "name": "",
          "type": "uint256"
        }
      ],
      "stateMutability": "view",
      "type": "function",
      "constant": true
    },
    {
      "inputs": [
        {
          "internalType": "uint256",
          "name": "_index",
          "type": "uint256"
        }
      ],
      "name": "getAttendanceIdByIndex",
      "outputs": [
        {
          "internalType": "string",
          "name": "",
          "type": "string"
        }
      ],
      "stateMutability": "view",
      "type": "function",
      "constant": true
    },
    {
      "inputs": [],
      "name": "getAllAttendanceIds",
      "outputs": [
        {
          "internalType": "string[]",
          "name": "",
          "type": "string[]"
        }
      ],
      "stateMutability": "view",
      "type": "function",
      "constant": true
    },
    {
      "inputs": [
        {
          "internalType": "string",
          "name": "_recordId",
          "type": "string"
        }
      ],
      "name": "doesAttendanceExist",
      "outputs": [
        {
          "internalType": "bool",
          "name": "",
          "type": "bool"
        }
      ],
      "stateMutability": "view",
      "type": "function",
      "constant": true
    },
    {
      "inputs": [],
      "name": "retrieve",
      "outputs": [
        {
          "internalType": "uint256",
          "name": "totalAttendances",
          "type": "uint256"
        },
        {
          "internalType": "string[]",
          "name": "allAttendanceIds",
          "type": "string[]"
        }
      ],
      "stateMutability": "view",
      "type": "function",
      "constant": true
    },
    {
      "inputs": [
        {
          "internalType": "string",
          "name": "_recordId",
          "type": "string"
        }
      ],
      "name": "getAttendanceMetadata",
      "outputs": [
        {
          "internalType": "string",
          "name": "recordId",
          "type": "string"
        },
        {
          "internalType": "uint256",
          "name": "createdTimestamp",
          "type": "uint256"
        },
        {
          "internalType": "uint256",
          "name": "modifiedTimestamp",
          "type": "uint256"
        },
        {
          "internalType": "string",
          "name": "modifiedBy",
          "type": "string"
        }
      ],
      "stateMutability": "view",
      "type": "function",
      "constant": true
    }
  ],
  "bytecode": "0x608060405234801561001057600080fd5b506112be806100206000396000f3fe608060405234801561001057600080fd5b50600436106100a95760003560e01c80634b821377116100715780634b8213771461015357806364a485271461016457806375f6bfd9146101885780638e0743f41461019b5780639ac9b479146101ae578063bc2a4045146101c157600080fd5b806302717dcd146100ae57806303250e84146100cc57806309094cbd146100ef57806310c371681461010f5780632e64cec11461013d575b600080fd5b6100b66101e4565b6040516100c39190610fb3565b60405180910390f35b6100df6100da366004611070565b6102bd565b60405190151581526020016100c3565b6101026100fd3660046110ad565b6102e8565b6040516100c391906110c6565b6100df61011d366004611070565b805160208183018101805160028252928201919093012091525460ff1681565b610145610394565b6040516100c39291906110d9565b6001546040519081526020016100c3565b610177610172366004611070565b61047b565b6040516100c39594939291906110f2565b610177610196366004611070565b610712565b6100df6101a9366004611143565b6108e3565b6101026101bc3660046110ad565b610ae5565b6101d46101cf366004611070565b610bdc565b6040516100c394939291906111df565b60606001805480602002602001604051908101604052809291908181526020016000905b828210156102b45783829060005260206000200180546102279061121b565b80601f01602080910402602001604051908101604052809291908181526020018280546102539061121b565b80156102a05780601f10610275576101008083540402835291602001916102a0565b820191906000526020600020905b81548152906001019060200180831161028357829003601f168201915b505050505081526020019060010190610208565b50505050905090565b60006002826040516102cf9190611256565b9081526040519081900360200190205460ff1692915050565b600181815481106102f857600080fd5b9060005260206000200160009150905080546103139061121b565b80601f016020809104026020016040519081016040528092919081815260200182805461033f9061121b565b801561038c5780601f106103615761010080835404028352916020019161038c565b820191906000526020600020905b81548152906001019060200180831161036f57829003601f168201915b505050505081565b60006060600180549050600180805480602002602001604051908101604052809291908181526020016000905b8282101561046d5783829060005260206000200180546103e09061121b565b80601f016020809104026020016040519081016040528092919081815260200182805461040c9061121b565b80156104595780601f1061042e57610100808354040283529160200191610459565b820191906000526020600020905b81548152906001019060200180831161043c57829003601f168201915b5050505050815260200190600101906103c1565b505050509050915091509091565b60606000806060806002866040516104939190611256565b9081526040519081900360200190205460ff166104f35760405162461bcd60e51b8152602060048201526019602482015278105d1d195b99185b98d948191bd95cc81b9bdd08195e1a5cdd603a1b60448201526064015b60405180910390fd5b600080876040516105049190611256565b90815260200160405180910390206040518060a001604052908160008201805461052d9061121b565b80601f01602080910402602001604051908101604052809291908181526020018280546105599061121b565b80156105a65780601f1061057b576101008083540402835291602001916105a6565b820191906000526020600020905b81548152906001019060200180831161058957829003601f168201915b5050505050815260200160018201548152602001600282015481526020016003820180546105d39061121b565b80601f01602080910402602001604051908101604052809291908181526020018280546105ff9061121b565b801561064c5780601f106106215761010080835404028352916020019161064c565b820191906000526020600020905b81548152906001019060200180831161062f57829003601f168201915b505050505081526020016004820180546106659061121b565b80601f01602080910402602001604051908101604052809291908181526020018280546106919061121b565b80156106de5780601f106106b3576101008083540402835291602001916106de565b820191906000526020600020905b8154815290600101906020018083116106c157829003601f168201915b5050509190925250508151602083015160408401516060850151608090950151929c919b5099509297509550909350505050565b80516020818301810180516000825292820191909301209152805481906107389061121b565b80601f01602080910402602001604051908101604052809291908181526020018280546107649061121b565b80156107b15780601f10610786576101008083540402835291602001916107b1565b820191906000526020600020905b81548152906001019060200180831161079457829003601f168201915b5050505050908060010154908060020154908060030180546107d29061121b565b80601f01602080910402602001604051908101604052809291908181526020018280546107fe9061121b565b801561084b5780601f106108205761010080835404028352916020019161084b565b820191906000526020600020905b81548152906001019060200180831161082e57829003601f168201915b5050505050908060040180546108609061121b565b80601f016020809104026020016040519081016040528092919081815260200182805461088c9061121b565b80156108d95780601f106108ae576101008083540402835291602001916108d9565b820191906000526020600020905b8154815290600101906020018083116108bc57829003601f168201915b5050505050905085565b6000806002876040516108f69190611256565b908152602001604051809103902060009054906101000a900460ff161590506040518060a001604052808881526020018781526020018681526020018581526020018481525060008860405161094c9190611256565b90815260200160405180910390206000820151816000019080519060200190610976929190610e66565b50602082810151600183015560408301516002830155606083015180516109a39260038501920190610e66565b50608082015180516109bf916004840191602090910190610e66565b509050508015610a8f576001805480820182556000919091528751610a0b917fb10e2d527612073b26eecdfd717e6a320cf44b4afac2b0732d9fcbe2b7fa0cf6019060208a0190610e66565b506001600288604051610a1e9190611256565b908152604051908190036020018120805492151560ff1990931692909217909155610a4a908890611256565b6040805191829003822088835260208301889052917f1fa5832def0d6b11d8ff2735b723692589e6ef3fd116ff60fc3c5652d597753d910160405180910390a2610ad8565b86604051610a9d9190611256565b604051908190038120868252907fcf759791f5e85aeaa3455c5e36f9ae12733280e338d710255e1dd40c66ebfd109060200160405180910390a25b5060019695505050505050565b6001546060908210610b2f5760405162461bcd60e51b8152602060048201526013602482015272496e646578206f7574206f6620626f756e647360681b60448201526064016104ea565b60018281548110610b4257610b42611272565b906000526020600020018054610b579061121b565b80601f0160208091040260200160405190810160405280929190818152602001828054610b839061121b565b8015610bd05780601f10610ba557610100808354040283529160200191610bd0565b820191906000526020600020905b815481529060010190602001808311610bb357829003601f168201915b50505050509050919050565b60606000806060600285604051610bf39190611256565b9081526040519081900360200190205460ff16610c4e5760405162461bcd60e51b8152602060048201526019602482015278105d1d195b99185b98d948191bd95cc81b9bdd08195e1a5cdd603a1b60448201526064016104ea565b60008086604051610c5f9190611256565b90815260200160405180910390206040518060a0016040529081600082018054610c889061121b565b80601f0160208091040260200160405190810160405280929190818152602001828054610cb49061121b565b8015610d015780601f10610cd657610100808354040283529160200191610d01565b820191906000526020600020905b815481529060010190602001808311610ce457829003601f168201915b505050505081526020016001820154815260200160028201548152602001600382018054610d2e9061121b565b80601f0160208091040260200160405190810160405280929190818152602001828054610d5a9061121b565b8015610da75780601f10610d7c57610100808354040283529160200191610da7565b820191906000526020600020905b815481529060010190602001808311610d8a57829003601f168201915b50505050508152602001600482018054610dc09061121b565b80601f0160208091040260200160405190810160405280929190818152602001828054610dec9061121b565b8015610e395780601f10610e0e57610100808354040283529160200191610e39565b820191906000526020600020905b815481529060010190602001808311610e1c57829003601f168201915b505050919092525050815160208301516040840151606090940151919a9099509297509550909350505050565b828054610e729061121b565b90600052602060002090601f016020900481019282610e945760008555610eda565b82601f10610ead57805160ff1916838001178555610eda565b82800160010185558215610eda579182015b82811115610eda578251825591602001919060010190610ebf565b50610ee6929150610eea565b5090565b5b80821115610ee65760008155600101610eeb565b60005b83811015610f1a578181015183820152602001610f02565b83811115610f29576000848401525b50505050565b60008151808452610f47816020860160208601610eff565b601f01601f19169290920160200192915050565b600082825180855260208086019550808260051b84010181860160005b84811015610fa657601f19868403018952610f94838351610f2f565b98840198925090830190600101610f78565b5090979650505050505050565b602081526000610fc66020830184610f5b565b9392505050565b634e487b7160e01b600052604160045260246000fd5b600082601f830112610ff457600080fd5b813567ffffffffffffffff8082111561100f5761100f610fcd565b604051601f8301601f19908116603f0116810190828211818310171561103757611037610fcd565b8160405283815286602085880101111561105057600080fd5b836020870160208301376000602085830101528094505050505092915050565b60006020828403121561108257600080fd5b813567ffffffffffffffff81111561109957600080fd5b6110a584828501610fe3565b949350505050565b6000602082840312156110bf57600080fd5b5035919050565b602081526000610fc66020830184610f2f565b8281526040602082015260006110a56040830184610f5b565b60a08152600061110560a0830188610f2f565b86602084015285604084015282810360608401526111238186610f2f565b905082810360808401526111378185610f2f565b98975050505050505050565b600080600080600060a0868803121561115b57600080fd5b853567ffffffffffffffff8082111561117357600080fd5b61117f89838a01610fe3565b9650602088013595506040880135945060608801359150808211156111a357600080fd5b6111af89838a01610fe3565b935060808801359150808211156111c557600080fd5b506111d288828901610fe3565b9150509295509295909350565b6080815260006111f26080830187610f2f565b85602084015284604084015282810360608401526112108185610f2f565b979650505050505050565b600181811c9082168061122f57607f821691505b6020821081141561125057634e487b7160e01b600052602260045260246000fd5b50919050565b60008251611268818460208701610eff565b9190910192915050565b634e487b7160e01b600052603260045260246000fdfea26469706673582212201631a67304f2fa184c6018db5868036c6d0f7f2a939666cb515bc2b1515569ca64736f6c634300080b0033",
  "immutableReferences": {},
  "source": "// SPDX-License-Identifier: MIT\r\npragma solidity ^0.8.0;\r\n\r\ncontract AttendanceStorage {\r\n    // Attendance data structure\r\n    struct Attendance {\r\n        string recordId;          // HR-ATT-2025-01223\r\n        uint256 createdTimestamp; // creation timestamp converted to unix\r\n        uint256 modifiedTimestamp; // modified timestamp converted to unix\r\n        string modifiedBy;        // Administrator or user email\r\n        string allData;           // Complete JSON string of all attendance data\r\n    }\r\n    \r\n    // Mapping from attendance record ID to attendance data\r\n    mapping(string => Attendance) public attendances;\r\n    \r\n    // Array to store all attendance record IDs for enumeration\r\n    string[] public attendanceIds;\r\n    \r\n    // Mapping to check if attendance exists\r\n    mapping(string => bool) public attendanceExists;\r\n    \r\n    // Events\r\n    event AttendanceStored(string indexed recordId, uint256 createdTimestamp, uint256 modifiedTimestamp);\r\n    event AttendanceUpdated(string indexed recordId, uint256 modifiedTimestamp);\r\n    \r\n    // Store or update attendance data\r\n    function storeAttendance(\r\n        string memory _recordId,\r\n        uint256 _createdTimestamp,\r\n        uint256 _modifiedTimestamp,\r\n        string memory _modifiedBy,\r\n        string memory _allData\r\n    ) public returns (bool) {\r\n        // Check if this is a new attendance record\r\n        bool isNewAttendance = !attendanceExists[_recordId];\r\n        \r\n        // Store attendance data\r\n        attendances[_recordId] = Attendance({\r\n            recordId: _recordId,\r\n            createdTimestamp: _createdTimestamp,\r\n            modifiedTimestamp: _modifiedTimestamp,\r\n            modifiedBy: _modifiedBy,\r\n            allData: _allData\r\n        });\r\n        \r\n        // If new attendance, add to array and mark as existing\r\n        if (isNewAttendance) {\r\n            attendanceIds.push(_recordId);\r\n            attendanceExists[_recordId] = true;\r\n            emit AttendanceStored(_recordId, _createdTimestamp, _modifiedTimestamp);\r\n        } else {\r\n            emit AttendanceUpdated(_recordId, _modifiedTimestamp);\r\n        }\r\n        \r\n        return true;\r\n    }\r\n    \r\n    // Get attendance data\r\n    function getAttendance(string memory _recordId) public view returns (\r\n        string memory recordId,\r\n        uint256 createdTimestamp,\r\n        uint256 modifiedTimestamp,\r\n        string memory modifiedBy,\r\n        string memory allData\r\n    ) {\r\n        require(attendanceExists[_recordId], \"Attendance does not exist\");\r\n        \r\n        Attendance memory attendance = attendances[_recordId];\r\n        return (\r\n            attendance.recordId,\r\n            attendance.createdTimestamp,\r\n            attendance.modifiedTimestamp,\r\n            attendance.modifiedBy,\r\n            attendance.allData\r\n        );\r\n    }\r\n    \r\n    // Get total number of attendance records\r\n    function getTotalAttendances() public view returns (uint256) {\r\n        return attendanceIds.length;\r\n    }\r\n    \r\n    // Get attendance record ID by index\r\n    function getAttendanceIdByIndex(uint256 _index) public view returns (string memory) {\r\n        require(_index < attendanceIds.length, \"Index out of bounds\");\r\n        return attendanceIds[_index];\r\n    }\r\n    \r\n    // Get all attendance IDs\r\n    function getAllAttendanceIds() public view returns (string[] memory) {\r\n        return attendanceIds;\r\n    }\r\n    \r\n    // Check if attendance exists\r\n    function doesAttendanceExist(string memory _recordId) public view returns (bool) {\r\n        return attendanceExists[_recordId];\r\n    }\r\n    \r\n    // Retrieve summary data (total attendances and all IDs)\r\n    function retrieve() public view returns (\r\n        uint256 totalAttendances,\r\n        string[] memory allAttendanceIds\r\n    ) {\r\n        return (attendanceIds.length, attendanceIds);\r\n    }\r\n    \r\n    // Get attendance metadata only (without full data)\r\n    function getAttendanceMetadata(string memory _recordId) public view returns (\r\n        string memory recordId,\r\n        uint256 createdTimestamp,\r\n        uint256 modifiedTimestamp,\r\n        string memory modifiedBy\r\n    ) {\r\n        require(attendanceExists[_recordId], \"Attendance does not exist\");\r\n        \r\n        Attendance memory attendance = attendances[_recordId];\r\n        return (\r\n            attendance.recordId,\r\n            attendance.createdTimestamp,\r\n            attendance.modifiedTimestamp,\r\n            attendance.modifiedBy\r\n        );\r\n    }\r\n}",
  "sourcePath": "/home/danarit/Projects/blockchain-erp-integration/blockchain/API/contracts/ERPNext/AttendanceStorage.sol",
  "compiler": {
    "name": "solc",
    "version": "0.8.11+commit.d7f03943.Emscripten.clang"
  },
  "schemaVersion": "3.4.16",
  "updatedAt": "2025-12-21T15:57:42.498Z",
  "networkType": "ethereum",
  "devdoc": {
    "kind": "dev",
    "methods": {},
    "version": 1
  },
  "userdoc": {
    "kind": "user",
    "methods": {},
    "version": 1
  }
}