{
  "contractName": "CompanyStorage",
  "abi": [
    {
      "anonymous": false,
      "inputs": [
        {
          "indexed": true,
          "internalType": "string",
          "name": "recordId",
          "type": "string"
        },
        {
          "indexed": false,
          "internalType": "uint256",
          "name": "createdTimestamp",
          "type": "uint256"
        },
        {
          "indexed": false,
          "internalType": "uint256",
          "name": "modifiedTimestamp",
          "type": "uint256"
        }
      ],
      "name": "CompanyStored",
      "type": "event"
    },
    {
      "anonymous": false,
      "inputs": [
        {
          "indexed": true,
          "internalType": "string",
          "name": "recordId",
          "type": "string"
        },
        {
          "indexed": false,
          "internalType": "uint256",
          "name": "modifiedTimestamp",
          "type": "uint256"
        }
      ],
      "name": "CompanyUpdated",
      "type": "event"
    },
    {
      "inputs": [
        {
          "internalType": "string",
          "name": "",
          "type": "string"
        }
      ],
      "name": "companies",
      "outputs": [
        {
          "internalType": "string",
          "name": "recordId",
          "type": "string"
        },
        {
          "internalType": "uint256",
          "name": "createdTimestamp",
          "type": "uint256"
        },
        {
          "internalType": "uint256",
          "name": "modifiedTimestamp",
          "type": "uint256"
        },
        {
          "internalType": "string",
          "name": "modifiedBy",
          "type": "string"
        },
        {
          "internalType": "string",
          "name": "allData",
          "type": "string"
        }
      ],
      "stateMutability": "view",
      "type": "function",
      "constant": true
    },
    {
      "inputs": [
        {
          "internalType": "string",
          "name": "",
          "type": "string"
        }
      ],
      "name": "companyExists",
      "outputs": [
        {
          "internalType": "bool",
          "name": "",
          "type": "bool"
        }
      ],
      "stateMutability": "view",
      "type": "function",
      "constant": true
    },
    {
      "inputs": [
        {
          "internalType": "uint256",
          "name": "",
          "type": "uint256"
        }
      ],
      "name": "companyIds",
      "outputs": [
        {
          "internalType": "string",
          "name": "",
          "type": "string"
        }
      ],
      "stateMutability": "view",
      "type": "function",
      "constant": true
    },
    {
      "inputs": [
        {
          "internalType": "string",
          "name": "_recordId",
          "type": "string"
        },
        {
          "internalType": "uint256",
          "name": "_createdTimestamp",
          "type": "uint256"
        },
        {
          "internalType": "uint256",
          "name": "_modifiedTimestamp",
          "type": "uint256"
        },
        {
          "internalType": "string",
          "name": "_modifiedBy",
          "type": "string"
        },
        {
          "internalType": "string",
          "name": "_allData",
          "type": "string"
        }
      ],
      "name": "storeCompany",
      "outputs": [
        {
          "internalType": "bool",
          "name": "",
          "type": "bool"
        }
      ],
      "stateMutability": "nonpayable",
      "type": "function"
    },
    {
      "inputs": [
        {
          "internalType": "string",
          "name": "_recordId",
          "type": "string"
        }
      ],
      "name": "getCompany",
      "outputs": [
        {
          "internalType": "string",
          "name": "recordId",
          "type": "string"
        },
        {
          "internalType": "uint256",
          "name": "createdTimestamp",
          "type": "uint256"
        },
        {
          "internalType": "uint256",
          "name": "modifiedTimestamp",
          "type": "uint256"
        },
        {
          "internalType": "string",
          "name": "modifiedBy",
          "type": "string"
        },
        {
          "internalType": "string",
          "name": "allData",
          "type": "string"
        }
      ],
      "stateMutability": "view",
      "type": "function",
      "constant": true
    },
    {
      "inputs": [],
      "name": "getTotalCompanies",
      "outputs": [
        {
          "internalType": "uint256",
          "name": "",
          "type": "uint256"
        }
      ],
      "stateMutability": "view",
      "type": "function",
      "constant": true
    },
    {
      "inputs": [
        {
          "internalType": "uint256",
          "name": "_index",
          "type": "uint256"
        }
      ],
      "name": "getCompanyIdByIndex",
      "outputs": [
        {
          "internalType": "string",
          "name": "",
          "type": "string"
        }
      ],
      "stateMutability": "view",
      "type": "function",
      "constant": true
    },
    {
      "inputs": [],
      "name": "getAllCompanyIds",
      "outputs": [
        {
          "internalType": "string[]",
          "name": "",
          "type": "string[]"
        }
      ],
      "stateMutability": "view",
      "type": "function",
      "constant": true
    },
    {
      "inputs": [
        {
          "internalType": "string",
          "name": "_recordId",
          "type": "string"
        }
      ],
      "name": "doesCompanyExist",
      "outputs": [
        {
          "internalType": "bool",
          "name": "",
          "type": "bool"
        }
      ],
      "stateMutability": "view",
      "type": "function",
      "constant": true
    },
    {
      "inputs": [],
      "name": "retrieve",
      "outputs": [
        {
          "internalType": "uint256",
          "name": "totalCompanies",
          "type": "uint256"
        },
        {
          "internalType": "string[]",
          "name": "allCompanyIds",
          "type": "string[]"
        }
      ],
      "stateMutability": "view",
      "type": "function",
      "constant": true
    },
    {
      "inputs": [
        {
          "internalType": "string",
          "name": "_recordId",
          "type": "string"
        }
      ],
      "name": "getCompanyMetadata",
      "outputs": [
        {
          "internalType": "string",
          "name": "recordId",
          "type": "string"
        },
        {
          "internalType": "uint256",
          "name": "createdTimestamp",
          "type": "uint256"
        },
        {
          "internalType": "uint256",
          "name": "modifiedTimestamp",
          "type": "uint256"
        },
        {
          "internalType": "string",
          "name": "modifiedBy",
          "type": "string"
        }
      ],
      "stateMutability": "view",
      "type": "function",
      "constant": true
    }
  ],
  "bytecode": "0x608060405234801561001057600080fd5b506112b5806100206000396000f3fe608060405234801561001057600080fd5b50600436106100a95760003560e01c80636942c9c2116100715780636942c9c2146101365780637a3d02771461016457806385a52cfa14610188578063b24a4e52146101ab578063ea8c6bc0146101be578063f45fdf1f146101d157600080fd5b8063082f9561146100ae57806308c77e0d146100d757806327ac8b2c146100fa5780632e64cec11461010f578063486b1b1114610125575b600080fd5b6100c16100bc366004610ef9565b6101e4565b6040516100ce9190610f6e565b60405180910390f35b6100ea6100e536600461102b565b6102e0565b60405190151581526020016100ce565b6101026104e2565b6040516100ce919061111c565b6101176105bb565b6040516100ce92919061112f565b6001546040519081526020016100ce565b6100ea610144366004611150565b805160208183018101805160028252928201919093012091525460ff1681565b610177610172366004611150565b6106a2565b6040516100ce959493929190611185565b61019b610196366004611150565b610873565b6040516100ce94939291906111d6565b6101776101b9366004611150565b610afa565b6100c16101cc366004610ef9565b610d89565b6100ea6101df366004611150565b610e35565b60015460609082106102335760405162461bcd60e51b8152602060048201526013602482015272496e646578206f7574206f6620626f756e647360681b60448201526064015b60405180910390fd5b6001828154811061024657610246611212565b90600052602060002001805461025b90611228565b80601f016020809104026020016040519081016040528092919081815260200182805461028790611228565b80156102d45780601f106102a9576101008083540402835291602001916102d4565b820191906000526020600020905b8154815290600101906020018083116102b757829003601f168201915b50505050509050919050565b6000806002876040516102f39190611263565b908152602001604051809103902060009054906101000a900460ff161590506040518060a00160405280888152602001878152602001868152602001858152602001848152506000886040516103499190611263565b90815260200160405180910390206000820151816000019080519060200190610373929190610e60565b50602082810151600183015560408301516002830155606083015180516103a09260038501920190610e60565b50608082015180516103bc916004840191602090910190610e60565b50905050801561048c576001805480820182556000919091528751610408917fb10e2d527612073b26eecdfd717e6a320cf44b4afac2b0732d9fcbe2b7fa0cf6019060208a0190610e60565b50600160028860405161041b9190611263565b908152604051908190036020018120805492151560ff1990931692909217909155610447908890611263565b6040805191829003822088835260208301889052917fac3cb3e139b642a1ab99880cca35420d3cd738fe39ca69f1937b7e7df3bb431d910160405180910390a26104d5565b8660405161049a9190611263565b604051908190038120868252907f8f3631f4867a404479913e12cbcb5985e9125234a4aed25d945c5c6ad3c01fac9060200160405180910390a25b5060019695505050505050565b60606001805480602002602001604051908101604052809291908181526020016000905b828210156105b257838290600052602060002001805461052590611228565b80601f016020809104026020016040519081016040528092919081815260200182805461055190611228565b801561059e5780601f106105735761010080835404028352916020019161059e565b820191906000526020600020905b81548152906001019060200180831161058157829003601f168201915b505050505081526020019060010190610506565b50505050905090565b60006060600180549050600180805480602002602001604051908101604052809291908181526020016000905b8282101561069457838290600052602060002001805461060790611228565b80601f016020809104026020016040519081016040528092919081815260200182805461063390611228565b80156106805780601f1061065557610100808354040283529160200191610680565b820191906000526020600020905b81548152906001019060200180831161066357829003601f168201915b5050505050815260200190600101906105e8565b505050509050915091509091565b80516020818301810180516000825292820191909301209152805481906106c890611228565b80601f01602080910402602001604051908101604052809291908181526020018280546106f490611228565b80156107415780601f1061071657610100808354040283529160200191610741565b820191906000526020600020905b81548152906001019060200180831161072457829003601f168201915b50505050509080600101549080600201549080600301805461076290611228565b80601f016020809104026020016040519081016040528092919081815260200182805461078e90611228565b80156107db5780601f106107b0576101008083540402835291602001916107db565b820191906000526020600020905b8154815290600101906020018083116107be57829003601f168201915b5050505050908060040180546107f090611228565b80601f016020809104026020016040519081016040528092919081815260200182805461081c90611228565b80156108695780601f1061083e57610100808354040283529160200191610869565b820191906000526020600020905b81548152906001019060200180831161084c57829003601f168201915b5050505050905085565b6060600080606060028560405161088a9190611263565b9081526040519081900360200190205460ff166108e25760405162461bcd60e51b815260206004820152601660248201527510dbdb5c185b9e48191bd95cc81b9bdd08195e1a5cdd60521b604482015260640161022a565b600080866040516108f39190611263565b90815260200160405180910390206040518060a001604052908160008201805461091c90611228565b80601f016020809104026020016040519081016040528092919081815260200182805461094890611228565b80156109955780601f1061096a57610100808354040283529160200191610995565b820191906000526020600020905b81548152906001019060200180831161097857829003601f168201915b5050505050815260200160018201548152602001600282015481526020016003820180546109c290611228565b80601f01602080910402602001604051908101604052809291908181526020018280546109ee90611228565b8015610a3b5780601f10610a1057610100808354040283529160200191610a3b565b820191906000526020600020905b815481529060010190602001808311610a1e57829003601f168201915b50505050508152602001600482018054610a5490611228565b80601f0160208091040260200160405190810160405280929190818152602001828054610a8090611228565b8015610acd5780601f10610aa257610100808354040283529160200191610acd565b820191906000526020600020905b815481529060010190602001808311610ab057829003601f168201915b505050919092525050815160208301516040840151606090940151919a9099509297509550909350505050565b6060600080606080600286604051610b129190611263565b9081526040519081900360200190205460ff16610b6a5760405162461bcd60e51b815260206004820152601660248201527510dbdb5c185b9e48191bd95cc81b9bdd08195e1a5cdd60521b604482015260640161022a565b60008087604051610b7b9190611263565b90815260200160405180910390206040518060a0016040529081600082018054610ba490611228565b80601f0160208091040260200160405190810160405280929190818152602001828054610bd090611228565b8015610c1d5780601f10610bf257610100808354040283529160200191610c1d565b820191906000526020600020905b815481529060010190602001808311610c0057829003601f168201915b505050505081526020016001820154815260200160028201548152602001600382018054610c4a90611228565b80601f0160208091040260200160405190810160405280929190818152602001828054610c7690611228565b8015610cc35780601f10610c9857610100808354040283529160200191610cc3565b820191906000526020600020905b815481529060010190602001808311610ca657829003601f168201915b50505050508152602001600482018054610cdc90611228565b80601f0160208091040260200160405190810160405280929190818152602001828054610d0890611228565b8015610d555780601f10610d2a57610100808354040283529160200191610d55565b820191906000526020600020905b815481529060010190602001808311610d3857829003601f168201915b5050509190925250508151602083015160408401516060850151608090950151929c919b5099509297509550909350505050565b60018181548110610d9957600080fd5b906000526020600020016000915090508054610db490611228565b80601f0160208091040260200160405190810160405280929190818152602001828054610de090611228565b8015610e2d5780601f10610e0257610100808354040283529160200191610e2d565b820191906000526020600020905b815481529060010190602001808311610e1057829003601f168201915b505050505081565b6000600282604051610e479190611263565b9081526040519081900360200190205460ff1692915050565b828054610e6c90611228565b90600052602060002090601f016020900481019282610e8e5760008555610ed4565b82601f10610ea757805160ff1916838001178555610ed4565b82800160010185558215610ed4579182015b82811115610ed4578251825591602001919060010190610eb9565b50610ee0929150610ee4565b5090565b5b80821115610ee05760008155600101610ee5565b600060208284031215610f0b57600080fd5b5035919050565b60005b83811015610f2d578181015183820152602001610f15565b83811115610f3c576000848401525b50505050565b60008151808452610f5a816020860160208601610f12565b601f01601f19169290920160200192915050565b602081526000610f816020830184610f42565b9392505050565b634e487b7160e01b600052604160045260246000fd5b600082601f830112610faf57600080fd5b813567ffffffffffffffff80821115610fca57610fca610f88565b604051601f8301601f19908116603f01168101908282118183101715610ff257610ff2610f88565b8160405283815286602085880101111561100b57600080fd5b836020870160208301376000602085830101528094505050505092915050565b600080600080600060a0868803121561104357600080fd5b853567ffffffffffffffff8082111561105b57600080fd5b61106789838a01610f9e565b96506020880135955060408801359450606088013591508082111561108b57600080fd5b61109789838a01610f9e565b935060808801359150808211156110ad57600080fd5b506110ba88828901610f9e565b9150509295509295909350565b600081518084526020808501808196508360051b8101915082860160005b8581101561110f5782840389526110fd848351610f42565b988501989350908401906001016110e5565b5091979650505050505050565b602081526000610f8160208301846110c7565b82815260406020820152600061114860408301846110c7565b949350505050565b60006020828403121561116257600080fd5b813567ffffffffffffffff81111561117957600080fd5b61114884828501610f9e565b60a08152600061119860a0830188610f42565b86602084015285604084015282810360608401526111b68186610f42565b905082810360808401526111ca8185610f42565b98975050505050505050565b6080815260006111e96080830187610f42565b85602084015284604084015282810360608401526112078185610f42565b979650505050505050565b634e487b7160e01b600052603260045260246000fd5b600181811c9082168061123c57607f821691505b6020821081141561125d57634e487b7160e01b600052602260045260246000fd5b50919050565b60008251611275818460208701610f12565b919091019291505056fea2646970667358221220774cb33b254d2addc0eae3b49d460e67acccc8bcd82083712a6608dff42b1de064736f6c634300080b0033",
  "immutableReferences": {},
  "source": "// SPDX-License-Identifier: MIT\r\npragma solidity ^0.8.0;\r\n\r\ncontract CompanyStorage {\r\n    // Company data structure\r\n    struct Company {\r\n        string recordId;          // PT Fiyansa Mulya\r\n        uint256 createdTimestamp; // creation timestamp converted to unix\r\n        uint256 modifiedTimestamp; // modified timestamp converted to unix\r\n        string modifiedBy;        // Administrator or user email\r\n        string allData;           // Complete JSON string of all company data\r\n    }\r\n    \r\n    // Mapping from company record ID to company data\r\n    mapping(string => Company) public companies;\r\n    \r\n    // Array to store all company record IDs for enumeration\r\n    string[] public companyIds;\r\n    \r\n    // Mapping to check if company exists\r\n    mapping(string => bool) public companyExists;\r\n    \r\n    // Events\r\n    event CompanyStored(string indexed recordId, uint256 createdTimestamp, uint256 modifiedTimestamp);\r\n    event CompanyUpdated(string indexed recordId, uint256 modifiedTimestamp);\r\n    \r\n    // Store or update company data\r\n    function storeCompany(\r\n        string memory _recordId,\r\n        uint256 _createdTimestamp,\r\n        uint256 _modifiedTimestamp,\r\n        string memory _modifiedBy,\r\n        string memory _allData\r\n    ) public returns (bool) {\r\n        // Check if this is a new company\r\n        bool isNewCompany = !companyExists[_recordId];\r\n        \r\n        // Store company data\r\n        companies[_recordId] = Company({\r\n            recordId: _recordId,\r\n            createdTimestamp: _createdTimestamp,\r\n            modifiedTimestamp: _modifiedTimestamp,\r\n            modifiedBy: _modifiedBy,\r\n            allData: _allData\r\n        });\r\n        \r\n        // If new company, add to array and mark as existing\r\n        if (isNewCompany) {\r\n            companyIds.push(_recordId);\r\n            companyExists[_recordId] = true;\r\n            emit CompanyStored(_recordId, _createdTimestamp, _modifiedTimestamp);\r\n        } else {\r\n            emit CompanyUpdated(_recordId, _modifiedTimestamp);\r\n        }\r\n        \r\n        return true;\r\n    }\r\n    \r\n    // Get company data\r\n    function getCompany(string memory _recordId) public view returns (\r\n        string memory recordId,\r\n        uint256 createdTimestamp,\r\n        uint256 modifiedTimestamp,\r\n        string memory modifiedBy,\r\n        string memory allData\r\n    ) {\r\n        require(companyExists[_recordId], \"Company does not exist\");\r\n        \r\n        Company memory company = companies[_recordId];\r\n        return (\r\n            company.recordId,\r\n            company.createdTimestamp,\r\n            company.modifiedTimestamp,\r\n            company.modifiedBy,\r\n            company.allData\r\n        );\r\n    }\r\n    \r\n    // Get total number of companies\r\n    function getTotalCompanies() public view returns (uint256) {\r\n        return companyIds.length;\r\n    }\r\n    \r\n    // Get company record ID by index\r\n    function getCompanyIdByIndex(uint256 _index) public view returns (string memory) {\r\n        require(_index < companyIds.length, \"Index out of bounds\");\r\n        return companyIds[_index];\r\n    }\r\n    \r\n    // Get all company IDs\r\n    function getAllCompanyIds() public view returns (string[] memory) {\r\n        return companyIds;\r\n    }\r\n    \r\n    // Check if company exists\r\n    function doesCompanyExist(string memory _recordId) public view returns (bool) {\r\n        return companyExists[_recordId];\r\n    }\r\n    \r\n    // Retrieve summary data (total companies and all IDs)\r\n    function retrieve() public view returns (\r\n        uint256 totalCompanies,\r\n        string[] memory allCompanyIds\r\n    ) {\r\n        return (companyIds.length, companyIds);\r\n    }\r\n    \r\n    // Get company metadata only (without full data)\r\n    function getCompanyMetadata(string memory _recordId) public view returns (\r\n        string memory recordId,\r\n        uint256 createdTimestamp,\r\n        uint256 modifiedTimestamp,\r\n        string memory modifiedBy\r\n    ) {\r\n        require(companyExists[_recordId], \"Company does not exist\");\r\n        \r\n        Company memory company = companies[_recordId];\r\n        return (\r\n            company.recordId,\r\n            company.createdTimestamp,\r\n            company.modifiedTimestamp,\r\n            company.modifiedBy\r\n        );\r\n    }\r\n}",
  "sourcePath": "/home/danarit/Projects/blockchain-erp-integration/blockchain/API/contracts/ERPNext/CompanyStorage.sol",
  "compiler": {
    "name": "solc",
    "version": "0.8.11+commit.d7f03943.Emscripten.clang"
  },
  "schemaVersion": "3.4.16",
  "updatedAt": "2025-12-21T15:57:42.514Z",
  "networkType": "ethereum",
  "devdoc": {
    "kind": "dev",
    "methods": {},
    "version": 1
  },
  "userdoc": {
    "kind": "user",
    "methods": {},
    "version": 1
  }
}