{
  "contractName": "ContractRegistry",
  "abi": [
    {
      "anonymous": false,
      "inputs": [
        {
          "indexed": true,
          "internalType": "string",
          "name": "name",
          "type": "string"
        },
        {
          "indexed": true,
          "internalType": "address",
          "name": "contractAddress",
          "type": "address"
        },
        {
          "indexed": false,
          "internalType": "bool",
          "name": "isUpdate",
          "type": "bool"
        }
      ],
      "name": "ContractRegistered",
      "type": "event"
    },
    {
      "anonymous": false,
      "inputs": [
        {
          "indexed": true,
          "internalType": "string",
          "name": "name",
          "type": "string"
        },
        {
          "indexed": true,
          "internalType": "address",
          "name": "oldAddress",
          "type": "address"
        },
        {
          "indexed": true,
          "internalType": "address",
          "name": "newAddress",
          "type": "address"
        }
      ],
      "name": "ContractUpdated",
      "type": "event"
    },
    {
      "inputs": [
        {
          "internalType": "string",
          "name": "",
          "type": "string"
        },
        {
          "internalType": "uint256",
          "name": "",
          "type": "uint256"
        }
      ],
      "name": "contractHistory",
      "outputs": [
        {
          "internalType": "address",
          "name": "",
          "type": "address"
        }
      ],
      "stateMutability": "view",
      "type": "function",
      "constant": true
    },
    {
      "inputs": [
        {
          "internalType": "uint256",
          "name": "",
          "type": "uint256"
        }
      ],
      "name": "contractNames",
      "outputs": [
        {
          "internalType": "string",
          "name": "",
          "type": "string"
        }
      ],
      "stateMutability": "view",
      "type": "function",
      "constant": true
    },
    {
      "inputs": [
        {
          "internalType": "string",
          "name": "",
          "type": "string"
        }
      ],
      "name": "contracts",
      "outputs": [
        {
          "internalType": "address",
          "name": "",
          "type": "address"
        }
      ],
      "stateMutability": "view",
      "type": "function",
      "constant": true
    },
    {
      "inputs": [
        {
          "internalType": "string",
          "name": "",
          "type": "string"
        }
      ],
      "name": "isDeployed",
      "outputs": [
        {
          "internalType": "bool",
          "name": "",
          "type": "bool"
        }
      ],
      "stateMutability": "view",
      "type": "function",
      "constant": true
    },
    {
      "inputs": [
        {
          "internalType": "string",
          "name": "name",
          "type": "string"
        },
        {
          "internalType": "address",
          "name": "contractAddress",
          "type": "address"
        }
      ],
      "name": "registerContract",
      "outputs": [],
      "stateMutability": "nonpayable",
      "type": "function"
    },
    {
      "inputs": [
        {
          "internalType": "string",
          "name": "name",
          "type": "string"
        }
      ],
      "name": "getContract",
      "outputs": [
        {
          "internalType": "address",
          "name": "",
          "type": "address"
        }
      ],
      "stateMutability": "view",
      "type": "function",
      "constant": true
    },
    {
      "inputs": [],
      "name": "getAllContracts",
      "outputs": [
        {
          "internalType": "string[]",
          "name": "",
          "type": "string[]"
        }
      ],
      "stateMutability": "view",
      "type": "function",
      "constant": true
    },
    {
      "inputs": [
        {
          "internalType": "string",
          "name": "name",
          "type": "string"
        }
      ],
      "name": "isContractDeployed",
      "outputs": [
        {
          "internalType": "bool",
          "name": "",
          "type": "bool"
        }
      ],
      "stateMutability": "view",
      "type": "function",
      "constant": true
    },
    {
      "inputs": [],
      "name": "getContractCount",
      "outputs": [
        {
          "internalType": "uint256",
          "name": "",
          "type": "uint256"
        }
      ],
      "stateMutability": "view",
      "type": "function",
      "constant": true
    },
    {
      "inputs": [
        {
          "internalType": "string",
          "name": "name",
          "type": "string"
        }
      ],
      "name": "getContractHistory",
      "outputs": [
        {
          "internalType": "address[]",
          "name": "",
          "type": "address[]"
        }
      ],
      "stateMutability": "view",
      "type": "function",
      "constant": true
    },
    {
      "inputs": [
        {
          "internalType": "string",
          "name": "name",
          "type": "string"
        }
      ],
      "name": "getContractVersion",
      "outputs": [
        {
          "internalType": "uint256",
          "name": "",
          "type": "uint256"
        }
      ],
      "stateMutability": "view",
      "type": "function",
      "constant": true
    }
  ],
  "bytecode": "0x608060405234801561001057600080fd5b50610b2f806100206000396000f3fe608060405234801561001057600080fd5b50600436106100a95760003560e01c80637f3c2c28116100715780637f3c2c28146101645780638c5b8385146101795780639399869d146101ad5780639eb3574d146101bf578063df40e56e146101d2578063ed11f78d146101f257600080fd5b806302d463c9146100ae57806318d3ce96146100de5780632c357948146100f357806335817773146101315780633ca6bb9214610144575b600080fd5b6100c16100bc366004610884565b610205565b6040516001600160a01b0390911681526020015b60405180910390f35b6100e661024c565b6040516100d59190610925565b610121610101366004610987565b805160208183018101805160018252928201919093012091525460ff1681565b60405190151581526020016100d5565b6100c161013f366004610987565b610325565b6101576101523660046109c4565b610355565b6040516100d591906109dd565b6101776101723660046109f7565b610401565b005b6100c1610187366004610987565b80516020818301810180516000825292820191909301209152546001600160a01b031681565b6003545b6040519081526020016100d5565b6101216101cd366004610987565b61067b565b6101e56101e0366004610987565b6106a6565b6040516100d59190610a55565b6101b1610200366004610987565b610720565b8151602081840181018051600282529282019185019190912091905280548290811061023057600080fd5b6000918252602090912001546001600160a01b03169150829050565b60606003805480602002602001604051908101604052809291908181526020016000905b8282101561031c57838290600052602060002001805461028f90610aa2565b80601f01602080910402602001604051908101604052809291908181526020018280546102bb90610aa2565b80156103085780601f106102dd57610100808354040283529160200191610308565b820191906000526020600020905b8154815290600101906020018083116102eb57829003601f168201915b505050505081526020019060010190610270565b50505050905090565b600080826040516103369190610add565b908152604051908190036020019020546001600160a01b031692915050565b6003818154811061036557600080fd5b90600052602060002001600091509050805461038090610aa2565b80601f01602080910402602001604051908101604052809291908181526020018280546103ac90610aa2565b80156103f95780601f106103ce576101008083540402835291602001916103f9565b820191906000526020600020905b8154815290600101906020018083116103dc57829003601f168201915b505050505081565b6001600160a01b03811661045b5760405162461bcd60e51b815260206004820152601860248201527f496e76616c696420636f6e747261637420616464726573730000000000000000604482015260640160405180910390fd5b600060018360405161046d9190610add565b9081526040519081900360200181205460ff1691506000908190610492908690610add565b908152604051908190036020018120546001600160a01b031691506001906104bb908690610add565b9081526040519081900360200190205460ff1661054c57600380546001810182556000919091528451610515917fc2575a0e9e593c00f959f8c92f12db2869c3395a3b0502d05e2516446f71f85b01906020870190610748565b50600180856040516105279190610add565b908152604051908190036020019020805491151560ff1990921691909117905561059f565b826001600160a01b0316816001600160a01b03168560405161056e9190610add565b604051908190038120907f508230d9e989b49c651e1c7be29de727f16d9c1027f7660466911e442c3121fb90600090a45b826000856040516105b09190610add565b90815260405190819003602001812080546001600160a01b03939093166001600160a01b0319909316929092179091556002906105ee908690610add565b9081526040519081900360209081018220805460018101825560009182529190200180546001600160a01b0386166001600160a01b0319909116811790915590610639908690610add565b6040519081900381208415158252907fdb5e40e1b2580140e0a55003cd78bb50aa0e2487664c99345aa78838224c1aea9060200160405180910390a350505050565b600060018260405161068d9190610add565b9081526040519081900360200190205460ff1692915050565b60606002826040516106b89190610add565b908152604080519182900360209081018320805480830285018301909352828452919083018282801561071457602002820191906000526020600020905b81546001600160a01b031681526001909101906020018083116106f6575b50505050509050919050565b60006002826040516107329190610add565b9081526040519081900360200190205492915050565b82805461075490610aa2565b90600052602060002090601f01602090048101928261077657600085556107bc565b82601f1061078f57805160ff19168380011785556107bc565b828001600101855582156107bc579182015b828111156107bc5782518255916020019190600101906107a1565b506107c89291506107cc565b5090565b5b808211156107c857600081556001016107cd565b634e487b7160e01b600052604160045260246000fd5b600082601f83011261080857600080fd5b813567ffffffffffffffff80821115610823576108236107e1565b604051601f8301601f19908116603f0116810190828211818310171561084b5761084b6107e1565b8160405283815286602085880101111561086457600080fd5b836020870160208301376000602085830101528094505050505092915050565b6000806040838503121561089757600080fd5b823567ffffffffffffffff8111156108ae57600080fd5b6108ba858286016107f7565b95602094909401359450505050565b60005b838110156108e45781810151838201526020016108cc565b838111156108f3576000848401525b50505050565b600081518084526109118160208601602086016108c9565b601f01601f19169290920160200192915050565b6000602080830181845280855180835260408601915060408160051b870101925083870160005b8281101561097a57603f198886030184526109688583516108f9565b9450928501929085019060010161094c565b5092979650505050505050565b60006020828403121561099957600080fd5b813567ffffffffffffffff8111156109b057600080fd5b6109bc848285016107f7565b949350505050565b6000602082840312156109d657600080fd5b5035919050565b6020815260006109f060208301846108f9565b9392505050565b60008060408385031215610a0a57600080fd5b823567ffffffffffffffff811115610a2157600080fd5b610a2d858286016107f7565b92505060208301356001600160a01b0381168114610a4a57600080fd5b809150509250929050565b6020808252825182820181905260009190848201906040850190845b81811015610a965783516001600160a01b031683529284019291840191600101610a71565b50909695505050505050565b600181811c90821680610ab657607f821691505b60208210811415610ad757634e487b7160e01b600052602260045260246000fd5b50919050565b60008251610aef8184602087016108c9565b919091019291505056fea2646970667358221220ef862944a563b09eb2da412311c43ed1057834c64acfbdebd5f7207b2647093c64736f6c634300080b0033",
  "immutableReferences": {},
  "source": "// SPDX-License-Identifier: MIT\r\npragma solidity ^0.8.11;\r\n\r\ncontract ContractRegistry {\r\n    mapping(string => address) public contracts;\r\n    mapping(string => bool) public isDeployed;\r\n    mapping(string => address[]) public contractHistory;\r\n    string[] public contractNames;\r\n\r\n    event ContractRegistered(string indexed name, address indexed contractAddress, bool isUpdate);\r\n    event ContractUpdated(string indexed name, address indexed oldAddress, address indexed newAddress);\r\n\r\n    function registerContract(string memory name, address contractAddress) public {\r\n        require(contractAddress != address(0), \"Invalid contract address\");\r\n        \r\n        bool isUpdate = isDeployed[name];\r\n        address oldAddress = contracts[name];\r\n        \r\n        if (!isDeployed[name]) {\r\n            contractNames.push(name);\r\n            isDeployed[name] = true;\r\n        } else {\r\n            emit ContractUpdated(name, oldAddress, contractAddress);\r\n        }\r\n        \r\n        contracts[name] = contractAddress;\r\n        contractHistory[name].push(contractAddress);\r\n        \r\n        emit ContractRegistered(name, contractAddress, isUpdate);\r\n    }\r\n\r\n    function getContract(string memory name) public view returns (address) {\r\n        return contracts[name];\r\n    }\r\n\r\n    function getAllContracts() public view returns (string[] memory) {\r\n        return contractNames;\r\n    }\r\n\r\n    function isContractDeployed(string memory name) public view returns (bool) {\r\n        return isDeployed[name];\r\n    }\r\n\r\n    function getContractCount() public view returns (uint256) {\r\n        return contractNames.length;\r\n    }\r\n\r\n    function getContractHistory(string memory name) public view returns (address[] memory) {\r\n        return contractHistory[name];\r\n    }\r\n\r\n    function getContractVersion(string memory name) public view returns (uint256) {\r\n        return contractHistory[name].length;\r\n    }\r\n}\r\n",
  "sourcePath": "/home/danarit/Projects/blockchain-erp-integration/blockchain/API/contracts/ContractRegistry.sol",
  "compiler": {
    "name": "solc",
    "version": "0.8.11+commit.d7f03943.Emscripten.clang"
  },
  "schemaVersion": "3.4.16",
  "updatedAt": "2025-12-21T15:57:42.478Z",
  "networkType": "ethereum",
  "devdoc": {
    "kind": "dev",
    "methods": {},
    "version": 1
  },
  "userdoc": {
    "kind": "user",
    "methods": {},
    "version": 1
  }
}