{
  "contractName": "DocumentCertificate",
  "abi": [
    {
      "anonymous": false,
      "inputs": [
        {
          "indexed": true,
          "internalType": "address",
          "name": "cidAddress",
          "type": "address"
        },
        {
          "indexed": false,
          "internalType": "string",
          "name": "cid",
          "type": "string"
        },
        {
          "indexed": true,
          "internalType": "uint256",
          "name": "nik",
          "type": "uint256"
        },
        {
          "indexed": true,
          "internalType": "address",
          "name": "from",
          "type": "address"
        },
        {
          "indexed": false,
          "internalType": "string",
          "name": "category",
          "type": "string"
        },
        {
          "indexed": false,
          "internalType": "string",
          "name": "status",
          "type": "string"
        },
        {
          "indexed": false,
          "internalType": "string",
          "name": "action",
          "type": "string"
        },
        {
          "indexed": false,
          "internalType": "string",
          "name": "details",
          "type": "string"
        },
        {
          "indexed": false,
          "internalType": "uint256",
          "name": "did",
          "type": "uint256"
        },
        {
          "indexed": false,
          "internalType": "uint256",
          "name": "date",
          "type": "uint256"
        }
      ],
      "name": "dataDocumentCertificate",
      "type": "event"
    },
    {
      "inputs": [],
      "name": "action",
      "outputs": [
        {
          "internalType": "string",
          "name": "",
          "type": "string"
        }
      ],
      "stateMutability": "view",
      "type": "function",
      "constant": true
    },
    {
      "inputs": [],
      "name": "category",
      "outputs": [
        {
          "internalType": "string",
          "name": "",
          "type": "string"
        }
      ],
      "stateMutability": "view",
      "type": "function",
      "constant": true
    },
    {
      "inputs": [],
      "name": "cid",
      "outputs": [
        {
          "internalType": "string",
          "name": "",
          "type": "string"
        }
      ],
      "stateMutability": "view",
      "type": "function",
      "constant": true
    },
    {
      "inputs": [],
      "name": "cidAddress",
      "outputs": [
        {
          "internalType": "address",
          "name": "",
          "type": "address"
        }
      ],
      "stateMutability": "view",
      "type": "function",
      "constant": true
    },
    {
      "inputs": [],
      "name": "date",
      "outputs": [
        {
          "internalType": "uint256",
          "name": "",
          "type": "uint256"
        }
      ],
      "stateMutability": "view",
      "type": "function",
      "constant": true
    },
    {
      "inputs": [],
      "name": "details",
      "outputs": [
        {
          "internalType": "string",
          "name": "",
          "type": "string"
        }
      ],
      "stateMutability": "view",
      "type": "function",
      "constant": true
    },
    {
      "inputs": [],
      "name": "did",
      "outputs": [
        {
          "internalType": "uint256",
          "name": "",
          "type": "uint256"
        }
      ],
      "stateMutability": "view",
      "type": "function",
      "constant": true
    },
    {
      "inputs": [],
      "name": "from",
      "outputs": [
        {
          "internalType": "address",
          "name": "",
          "type": "address"
        }
      ],
      "stateMutability": "view",
      "type": "function",
      "constant": true
    },
    {
      "inputs": [],
      "name": "nik",
      "outputs": [
        {
          "internalType": "uint256",
          "name": "",
          "type": "uint256"
        }
      ],
      "stateMutability": "view",
      "type": "function",
      "constant": true
    },
    {
      "inputs": [],
      "name": "status",
      "outputs": [
        {
          "internalType": "string",
          "name": "",
          "type": "string"
        }
      ],
      "stateMutability": "view",
      "type": "function",
      "constant": true
    },
    {
      "inputs": [
        {
          "internalType": "address",
          "name": "_cidAddress",
          "type": "address"
        },
        {
          "internalType": "string",
          "name": "_cid",
          "type": "string"
        },
        {
          "internalType": "uint256",
          "name": "_nik",
          "type": "uint256"
        },
        {
          "internalType": "address",
          "name": "_from",
          "type": "address"
        },
        {
          "internalType": "string",
          "name": "_category",
          "type": "string"
        },
        {
          "internalType": "string",
          "name": "_status",
          "type": "string"
        },
        {
          "internalType": "string",
          "name": "_action",
          "type": "string"
        },
        {
          "internalType": "string",
          "name": "_details",
          "type": "string"
        },
        {
          "internalType": "uint256",
          "name": "_did",
          "type": "uint256"
        },
        {
          "internalType": "uint256",
          "name": "_date",
          "type": "uint256"
        }
      ],
      "name": "setDocument",
      "outputs": [],
      "stateMutability": "nonpayable",
      "type": "function"
    },
    {
      "inputs": [],
      "name": "retrieve",
      "outputs": [
        {
          "internalType": "address",
          "name": "_cidAddress",
          "type": "address"
        },
        {
          "internalType": "string",
          "name": "_cid",
          "type": "string"
        },
        {
          "internalType": "uint256",
          "name": "_nik",
          "type": "uint256"
        },
        {
          "internalType": "address",
          "name": "_from",
          "type": "address"
        },
        {
          "internalType": "string",
          "name": "_category",
          "type": "string"
        },
        {
          "internalType": "string",
          "name": "_status",
          "type": "string"
        },
        {
          "internalType": "string",
          "name": "_action",
          "type": "string"
        },
        {
          "internalType": "string",
          "name": "_details",
          "type": "string"
        },
        {
          "internalType": "uint256",
          "name": "_did",
          "type": "uint256"
        },
        {
          "internalType": "uint256",
          "name": "_date",
          "type": "uint256"
        }
      ],
      "stateMutability": "view",
      "type": "function",
      "constant": true
    },
    {
      "inputs": [],
      "name": "getDocumentInfo",
      "outputs": [
        {
          "internalType": "address",
          "name": "_cidAddress",
          "type": "address"
        },
        {
          "internalType": "string",
          "name": "_cid",
          "type": "string"
        },
        {
          "internalType": "uint256",
          "name": "_nik",
          "type": "uint256"
        },
        {
          "internalType": "address",
          "name": "_from",
          "type": "address"
        },
        {
          "internalType": "string",
          "name": "_category",
          "type": "string"
        },
        {
          "internalType": "string",
          "name": "_status",
          "type": "string"
        },
        {
          "internalType": "string",
          "name": "_action",
          "type": "string"
        },
        {
          "internalType": "string",
          "name": "_details",
          "type": "string"
        },
        {
          "internalType": "uint256",
          "name": "_did",
          "type": "uint256"
        },
        {
          "internalType": "uint256",
          "name": "_date",
          "type": "uint256"
        }
      ],
      "stateMutability": "view",
      "type": "function",
      "constant": true
    }
  ],
  "bytecode": "0x608060405234801561001057600080fd5b50610ba9806100206000396000f3fe608060405234801561001057600080fd5b50600436106100cf5760003560e01c8063aa3ec0a91161008c578063e4885a3411610066578063e4885a341461017f578063e55e320614610188578063e6fcc84b1461019b578063ef430aa6146101a457600080fd5b8063aa3ec0a914610137578063c0b0de0e1461013f578063d5ce33891461015457600080fd5b80630a7a1c4d146100d4578063200d2ed2146100f25780632e64cec1146100fa578063323046b11461011857806351dc6282146100fa578063565974d31461012f575b600080fd5b6100dc6101ac565b6040516100e99190610794565b60405180910390f35b6100dc61023a565b610102610247565b6040516100e99a999897969594939291906107ae565b61012160095481565b6040519081526020016100e9565b6100dc610570565b6100dc61057d565b61015261014d36600461090e565b61058a565b005b600354610167906001600160a01b031681565b6040516001600160a01b0390911681526020016100e9565b61012160025481565b600054610167906001600160a01b031681565b61012160085481565b6100dc6106a1565b600680546101b990610a20565b80601f01602080910402602001604051908101604052809291908181526020018280546101e590610a20565b80156102325780601f1061020757610100808354040283529160200191610232565b820191906000526020600020905b81548152906001019060200180831161021557829003601f168201915b505050505081565b600580546101b990610a20565b6000606060008060608060608060008060008054906101000a90046001600160a01b03166001600254600360009054906101000a90046001600160a01b031660046005600660076008546009548880546102a090610a20565b80601f01602080910402602001604051908101604052809291908181526020018280546102cc90610a20565b80156103195780601f106102ee57610100808354040283529160200191610319565b820191906000526020600020905b8154815290600101906020018083116102fc57829003601f168201915b5050505050985085805461032c90610a20565b80601f016020809104026020016040519081016040528092919081815260200182805461035890610a20565b80156103a55780601f1061037a576101008083540402835291602001916103a5565b820191906000526020600020905b81548152906001019060200180831161038857829003601f168201915b505050505095508480546103b890610a20565b80601f01602080910402602001604051908101604052809291908181526020018280546103e490610a20565b80156104315780601f1061040657610100808354040283529160200191610431565b820191906000526020600020905b81548152906001019060200180831161041457829003601f168201915b5050505050945083805461044490610a20565b80601f016020809104026020016040519081016040528092919081815260200182805461047090610a20565b80156104bd5780601f10610492576101008083540402835291602001916104bd565b820191906000526020600020905b8154815290600101906020018083116104a057829003601f168201915b505050505093508280546104d090610a20565b80601f01602080910402602001604051908101604052809291908181526020018280546104fc90610a20565b80156105495780601f1061051e57610100808354040283529160200191610549565b820191906000526020600020905b81548152906001019060200180831161052c57829003601f168201915b50505050509250995099509950995099509950995099509950995090919293949596979899565b600780546101b990610a20565b600180546101b990610a20565b600080546001600160a01b0319166001600160a01b038c1617905588516105b89060019060208c01906106ae565b506002889055600380546001600160a01b0319166001600160a01b03891617905585516105ec9060049060208901906106ae565b5084516106009060059060208801906106ae565b5083516106149060069060208701906106ae565b5082516106289060079060208601906106ae565b50600882905560098190556003546002546000546040516001600160a01b0393841693909116907f54f1fcb4fccfe8fda006976036cdd3efa60ddf28676b509dbeb298249775ce229061068d906001906004906005906006906007908c908c90610afb565b60405180910390a450505050505050505050565b600480546101b990610a20565b8280546106ba90610a20565b90600052602060002090601f0160209004810192826106dc5760008555610722565b82601f106106f557805160ff1916838001178555610722565b82800160010185558215610722579182015b82811115610722578251825591602001919060010190610707565b5061072e929150610732565b5090565b5b8082111561072e5760008155600101610733565b6000815180845260005b8181101561076d57602081850181015186830182015201610751565b8181111561077f576000602083870101525b50601f01601f19169290920160200192915050565b6020815260006107a76020830184610747565b9392505050565b6001600160a01b038b81168252610140602083018190526000916107d48483018e610747565b91508b6040850152808b1660608501525082810360808401526107f7818a610747565b905082810360a084015261080b8189610747565b905082810360c084015261081f8188610747565b905082810360e08401526108338187610747565b6101008401959095525050610120015298975050505050505050565b80356001600160a01b038116811461086657600080fd5b919050565b634e487b7160e01b600052604160045260246000fd5b600082601f83011261089257600080fd5b813567ffffffffffffffff808211156108ad576108ad61086b565b604051601f8301601f19908116603f011681019082821181831017156108d5576108d561086b565b816040528381528660208588010111156108ee57600080fd5b836020870160208301376000602085830101528094505050505092915050565b6000806000806000806000806000806101408b8d03121561092e57600080fd5b6109378b61084f565b995060208b013567ffffffffffffffff8082111561095457600080fd5b6109608e838f01610881565b9a5060408d0135995061097560608e0161084f565b985060808d013591508082111561098b57600080fd5b6109978e838f01610881565b975060a08d01359150808211156109ad57600080fd5b6109b98e838f01610881565b965060c08d01359150808211156109cf57600080fd5b6109db8e838f01610881565b955060e08d01359150808211156109f157600080fd5b506109fe8d828e01610881565b9350506101008b013591506101208b013590509295989b9194979a5092959850565b600181811c90821680610a3457607f821691505b60208210811415610a5557634e487b7160e01b600052602260045260246000fd5b50919050565b8054600090600181811c9080831680610a7557607f831692505b6020808410821415610a9757634e487b7160e01b600052602260045260246000fd5b83885260208801828015610ab25760018114610ac357610aee565b60ff19871682528282019750610aee565b60008981526020902060005b87811015610ae857815484820152908601908401610acf565b83019850505b5050505050505092915050565b60e081526000610b0e60e083018a610a5b565b8281036020840152610b20818a610a5b565b90508281036040840152610b348189610a5b565b90508281036060840152610b488188610a5b565b90508281036080840152610b5c8187610a5b565b60a0840195909552505060c001529594505050505056fea2646970667358221220e5d804563ae14b0fae93794f11c0c60ee6b8cdbe06f8796e99feae9d9ad2c85a64736f6c634300080b0033",
  "immutableReferences": {},
  "source": "// SPDX-License-Identifier: MIT\r\npragma solidity ^0.8.11;\r\n\r\ncontract DocumentCertificate {\r\n    address public cidAddress;  // indexed, address of document\r\n    string public cid;          // cid of file\r\n    uint public nik;            // indexed, nik of patient\r\n    address public from;        // indexed, address of sender(admin,patient)\r\n    string public category;     // category of document (medical record, prescription, etc.)\r\n    string public status;       // status of document (owner, shared, etc.)\r\n    string public action;       // indexed (upload, view, share, delete, download)\r\n    string public details;      // details of document (name, size, type, fromwho, towho, etc)\r\n    uint public did;            // time of upload\r\n    uint public date;           // date of action\r\n\r\n    event dataDocumentCertificate(\r\n        address indexed cidAddress,\r\n        string cid,\r\n        uint indexed nik, \r\n        address indexed from, \r\n        string category,\r\n        string status,\r\n        string action,\r\n        string details,\r\n        uint did,\r\n        uint date\r\n    );\r\n\r\n    // Store document data\r\n    function setDocument(\r\n        address _cidAddress,\r\n        string memory _cid,\r\n        uint _nik,\r\n        address _from,\r\n        string memory _category,\r\n        string memory _status,\r\n        string memory _action,\r\n        string memory _details,\r\n        uint _did,\r\n        uint _date\r\n    ) external {\r\n        cidAddress = _cidAddress;\r\n        cid = _cid;\r\n        nik = _nik;\r\n        from = _from;\r\n        category = _category;\r\n        status = _status;\r\n        action = _action;\r\n        details = _details;\r\n        did = _did;\r\n        date = _date;\r\n\r\n        emit dataDocumentCertificate(cidAddress, cid, nik, from, category, status, action, details, did, date);\r\n    }\r\n\r\n    // Retrieve all document data with named returns\r\n    function retrieve() external view returns (\r\n        address _cidAddress,\r\n        string memory _cid,\r\n        uint _nik,\r\n        address _from,\r\n        string memory _category,\r\n        string memory _status,\r\n        string memory _action,\r\n        string memory _details,\r\n        uint _did,\r\n        uint _date\r\n    ) {\r\n        return (\r\n            cidAddress,\r\n            cid,\r\n            nik,\r\n            from,\r\n            category,\r\n            status,\r\n            action,\r\n            details,\r\n            did,\r\n            date\r\n        );\r\n    }\r\n\r\n    // Get document info as a structured response\r\n    function getDocumentInfo() external view returns (\r\n        address _cidAddress,\r\n        string memory _cid,\r\n        uint _nik,\r\n        address _from,\r\n        string memory _category,\r\n        string memory _status,\r\n        string memory _action,\r\n        string memory _details,\r\n        uint _did,\r\n        uint _date\r\n    ) {\r\n        return (\r\n            cidAddress,\r\n            cid,\r\n            nik,\r\n            from,\r\n            category,\r\n            status,\r\n            action,\r\n            details,\r\n            did,\r\n            date\r\n        );\r\n    }\r\n}",
  "sourcePath": "/home/danarit/Projects/blockchain-erp-integration/blockchain/API/contracts/DocumentCertificate.sol",
  "compiler": {
    "name": "solc",
    "version": "0.8.11+commit.d7f03943.Emscripten.clang"
  },
  "schemaVersion": "3.4.16",
  "updatedAt": "2025-12-21T15:57:42.488Z",
  "networkType": "ethereum",
  "devdoc": {
    "kind": "dev",
    "methods": {},
    "version": 1
  },
  "userdoc": {
    "kind": "user",
    "methods": {},
    "version": 1
  }
}