{
  "contractName": "EmployeeStorage",
  "abi": [
    {
      "anonymous": false,
      "inputs": [
        {
          "indexed": true,
          "internalType": "string",
          "name": "recordId",
          "type": "string"
        },
        {
          "indexed": false,
          "internalType": "uint256",
          "name": "createdTimestamp",
          "type": "uint256"
        },
        {
          "indexed": false,
          "internalType": "uint256",
          "name": "modifiedTimestamp",
          "type": "uint256"
        }
      ],
      "name": "EmployeeStored",
      "type": "event"
    },
    {
      "anonymous": false,
      "inputs": [
        {
          "indexed": true,
          "internalType": "string",
          "name": "recordId",
          "type": "string"
        },
        {
          "indexed": false,
          "internalType": "uint256",
          "name": "modifiedTimestamp",
          "type": "uint256"
        }
      ],
      "name": "EmployeeUpdated",
      "type": "event"
    },
    {
      "inputs": [
        {
          "internalType": "string",
          "name": "",
          "type": "string"
        }
      ],
      "name": "employeeExists",
      "outputs": [
        {
          "internalType": "bool",
          "name": "",
          "type": "bool"
        }
      ],
      "stateMutability": "view",
      "type": "function",
      "constant": true
    },
    {
      "inputs": [
        {
          "internalType": "uint256",
          "name": "",
          "type": "uint256"
        }
      ],
      "name": "employeeIds",
      "outputs": [
        {
          "internalType": "string",
          "name": "",
          "type": "string"
        }
      ],
      "stateMutability": "view",
      "type": "function",
      "constant": true
    },
    {
      "inputs": [
        {
          "internalType": "string",
          "name": "",
          "type": "string"
        }
      ],
      "name": "employees",
      "outputs": [
        {
          "internalType": "string",
          "name": "recordId",
          "type": "string"
        },
        {
          "internalType": "uint256",
          "name": "createdTimestamp",
          "type": "uint256"
        },
        {
          "internalType": "uint256",
          "name": "modifiedTimestamp",
          "type": "uint256"
        },
        {
          "internalType": "string",
          "name": "modifiedBy",
          "type": "string"
        },
        {
          "internalType": "string",
          "name": "allData",
          "type": "string"
        }
      ],
      "stateMutability": "view",
      "type": "function",
      "constant": true
    },
    {
      "inputs": [
        {
          "internalType": "string",
          "name": "_recordId",
          "type": "string"
        },
        {
          "internalType": "uint256",
          "name": "_createdTimestamp",
          "type": "uint256"
        },
        {
          "internalType": "uint256",
          "name": "_modifiedTimestamp",
          "type": "uint256"
        },
        {
          "internalType": "string",
          "name": "_modifiedBy",
          "type": "string"
        },
        {
          "internalType": "string",
          "name": "_allData",
          "type": "string"
        }
      ],
      "name": "storeEmployee",
      "outputs": [
        {
          "internalType": "bool",
          "name": "",
          "type": "bool"
        }
      ],
      "stateMutability": "nonpayable",
      "type": "function"
    },
    {
      "inputs": [
        {
          "internalType": "string",
          "name": "_recordId",
          "type": "string"
        }
      ],
      "name": "getEmployee",
      "outputs": [
        {
          "internalType": "string",
          "name": "recordId",
          "type": "string"
        },
        {
          "internalType": "uint256",
          "name": "createdTimestamp",
          "type": "uint256"
        },
        {
          "internalType": "uint256",
          "name": "modifiedTimestamp",
          "type": "uint256"
        },
        {
          "internalType": "string",
          "name": "modifiedBy",
          "type": "string"
        },
        {
          "internalType": "string",
          "name": "allData",
          "type": "string"
        }
      ],
      "stateMutability": "view",
      "type": "function",
      "constant": true
    },
    {
      "inputs": [],
      "name": "getTotalEmployees",
      "outputs": [
        {
          "internalType": "uint256",
          "name": "",
          "type": "uint256"
        }
      ],
      "stateMutability": "view",
      "type": "function",
      "constant": true
    },
    {
      "inputs": [
        {
          "internalType": "uint256",
          "name": "_index",
          "type": "uint256"
        }
      ],
      "name": "getEmployeeIdByIndex",
      "outputs": [
        {
          "internalType": "string",
          "name": "",
          "type": "string"
        }
      ],
      "stateMutability": "view",
      "type": "function",
      "constant": true
    },
    {
      "inputs": [],
      "name": "getAllEmployeeIds",
      "outputs": [
        {
          "internalType": "string[]",
          "name": "",
          "type": "string[]"
        }
      ],
      "stateMutability": "view",
      "type": "function",
      "constant": true
    },
    {
      "inputs": [
        {
          "internalType": "string",
          "name": "_recordId",
          "type": "string"
        }
      ],
      "name": "doesEmployeeExist",
      "outputs": [
        {
          "internalType": "bool",
          "name": "",
          "type": "bool"
        }
      ],
      "stateMutability": "view",
      "type": "function",
      "constant": true
    },
    {
      "inputs": [],
      "name": "retrieve",
      "outputs": [
        {
          "internalType": "uint256",
          "name": "totalEmployees",
          "type": "uint256"
        },
        {
          "internalType": "string[]",
          "name": "allEmployeeIds",
          "type": "string[]"
        }
      ],
      "stateMutability": "view",
      "type": "function",
      "constant": true
    },
    {
      "inputs": [
        {
          "internalType": "string",
          "name": "_recordId",
          "type": "string"
        }
      ],
      "name": "getEmployeeMetadata",
      "outputs": [
        {
          "internalType": "string",
          "name": "recordId",
          "type": "string"
        },
        {
          "internalType": "uint256",
          "name": "createdTimestamp",
          "type": "uint256"
        },
        {
          "internalType": "uint256",
          "name": "modifiedTimestamp",
          "type": "uint256"
        },
        {
          "internalType": "string",
          "name": "modifiedBy",
          "type": "string"
        }
      ],
      "stateMutability": "view",
      "type": "function",
      "constant": true
    }
  ],
  "bytecode": "0x608060405234801561001057600080fd5b506112ba806100206000396000f3fe608060405234801561001057600080fd5b50600436106100a95760003560e01c806385c5225c1161007157806385c5225c146101265780639c70fea01461014a578063a8d0b3cc1461016d578063b4ed0b9d1461019b578063fa9ae70f146101ae578063fb4a1871146101c157600080fd5b80631fcf522f146100ae5780632e64cec1146100cc5780635339c995146100e25780636bbd62ba146100f35780637e39753614610113575b600080fd5b6100b66101e4565b6040516100c39190610faf565b60405180910390f35b6100d46102bd565b6040516100c3929190610fc9565b6001546040519081526020016100c3565b610106610101366004610fea565b6103a4565b6040516100c39190611003565b610106610121366004610fea565b6104a0565b6101396101343660046110b9565b61054c565b6040516100c39594939291906110ee565b61015d61015836600461113f565b6107dc565b60405190151581526020016100c3565b61015d61017b3660046110b9565b805160208183018101805160028252928201919093012091525460ff1681565b6101396101a93660046110b9565b6109de565b61015d6101bc3660046110b9565b610baf565b6101d46101cf3660046110b9565b610bda565b6040516100c394939291906111db565b60606001805480602002602001604051908101604052809291908181526020016000905b828210156102b457838290600052602060002001805461022790611217565b80601f016020809104026020016040519081016040528092919081815260200182805461025390611217565b80156102a05780601f10610275576101008083540402835291602001916102a0565b820191906000526020600020905b81548152906001019060200180831161028357829003601f168201915b505050505081526020019060010190610208565b50505050905090565b60006060600180549050600180805480602002602001604051908101604052809291908181526020016000905b8282101561039657838290600052602060002001805461030990611217565b80601f016020809104026020016040519081016040528092919081815260200182805461033590611217565b80156103825780601f1061035757610100808354040283529160200191610382565b820191906000526020600020905b81548152906001019060200180831161036557829003601f168201915b5050505050815260200190600101906102ea565b505050509050915091509091565b60015460609082106103f35760405162461bcd60e51b8152602060048201526013602482015272496e646578206f7574206f6620626f756e647360681b60448201526064015b60405180910390fd5b6001828154811061040657610406611252565b90600052602060002001805461041b90611217565b80601f016020809104026020016040519081016040528092919081815260200182805461044790611217565b80156104945780601f1061046957610100808354040283529160200191610494565b820191906000526020600020905b81548152906001019060200180831161047757829003601f168201915b50505050509050919050565b600181815481106104b057600080fd5b9060005260206000200160009150905080546104cb90611217565b80601f01602080910402602001604051908101604052809291908181526020018280546104f790611217565b80156105445780601f1061051957610100808354040283529160200191610544565b820191906000526020600020905b81548152906001019060200180831161052757829003601f168201915b505050505081565b60606000806060806002866040516105649190611268565b9081526040519081900360200190205460ff166105bd5760405162461bcd60e51b8152602060048201526017602482015276115b5c1b1bde595948191bd95cc81b9bdd08195e1a5cdd604a1b60448201526064016103ea565b600080876040516105ce9190611268565b90815260200160405180910390206040518060a00160405290816000820180546105f790611217565b80601f016020809104026020016040519081016040528092919081815260200182805461062390611217565b80156106705780601f1061064557610100808354040283529160200191610670565b820191906000526020600020905b81548152906001019060200180831161065357829003601f168201915b50505050508152602001600182015481526020016002820154815260200160038201805461069d90611217565b80601f01602080910402602001604051908101604052809291908181526020018280546106c990611217565b80156107165780601f106106eb57610100808354040283529160200191610716565b820191906000526020600020905b8154815290600101906020018083116106f957829003601f168201915b5050505050815260200160048201805461072f90611217565b80601f016020809104026020016040519081016040528092919081815260200182805461075b90611217565b80156107a85780601f1061077d576101008083540402835291602001916107a8565b820191906000526020600020905b81548152906001019060200180831161078b57829003601f168201915b5050509190925250508151602083015160408401516060850151608090950151929c919b5099509297509550909350505050565b6000806002876040516107ef9190611268565b908152602001604051809103902060009054906101000a900460ff161590506040518060a00160405280888152602001878152602001868152602001858152602001848152506000886040516108459190611268565b9081526020016040518091039020600082015181600001908051906020019061086f929190610e62565b506020828101516001830155604083015160028301556060830151805161089c9260038501920190610e62565b50608082015180516108b8916004840191602090910190610e62565b509050508015610988576001805480820182556000919091528751610904917fb10e2d527612073b26eecdfd717e6a320cf44b4afac2b0732d9fcbe2b7fa0cf6019060208a0190610e62565b5060016002886040516109179190611268565b908152604051908190036020018120805492151560ff1990931692909217909155610943908890611268565b6040805191829003822088835260208301889052917f84b4e0b2c445142986bd3d7007f1b5b24b319db57175ce5cc5fa11f1cfa4c82a910160405180910390a26109d1565b866040516109969190611268565b604051908190038120868252907f7d5eaf5b3069d439786525035d92013c6f1cfaef0c2395d07100f336d273e0429060200160405180910390a25b5060019695505050505050565b8051602081830181018051600082529282019190930120915280548190610a0490611217565b80601f0160208091040260200160405190810160405280929190818152602001828054610a3090611217565b8015610a7d5780601f10610a5257610100808354040283529160200191610a7d565b820191906000526020600020905b815481529060010190602001808311610a6057829003601f168201915b505050505090806001015490806002015490806003018054610a9e90611217565b80601f0160208091040260200160405190810160405280929190818152602001828054610aca90611217565b8015610b175780601f10610aec57610100808354040283529160200191610b17565b820191906000526020600020905b815481529060010190602001808311610afa57829003601f168201915b505050505090806004018054610b2c90611217565b80601f0160208091040260200160405190810160405280929190818152602001828054610b5890611217565b8015610ba55780601f10610b7a57610100808354040283529160200191610ba5565b820191906000526020600020905b815481529060010190602001808311610b8857829003601f168201915b5050505050905085565b6000600282604051610bc19190611268565b9081526040519081900360200190205460ff1692915050565b60606000806060600285604051610bf19190611268565b9081526040519081900360200190205460ff16610c4a5760405162461bcd60e51b8152602060048201526017602482015276115b5c1b1bde595948191bd95cc81b9bdd08195e1a5cdd604a1b60448201526064016103ea565b60008086604051610c5b9190611268565b90815260200160405180910390206040518060a0016040529081600082018054610c8490611217565b80601f0160208091040260200160405190810160405280929190818152602001828054610cb090611217565b8015610cfd5780601f10610cd257610100808354040283529160200191610cfd565b820191906000526020600020905b815481529060010190602001808311610ce057829003601f168201915b505050505081526020016001820154815260200160028201548152602001600382018054610d2a90611217565b80601f0160208091040260200160405190810160405280929190818152602001828054610d5690611217565b8015610da35780601f10610d7857610100808354040283529160200191610da3565b820191906000526020600020905b815481529060010190602001808311610d8657829003601f168201915b50505050508152602001600482018054610dbc90611217565b80601f0160208091040260200160405190810160405280929190818152602001828054610de890611217565b8015610e355780601f10610e0a57610100808354040283529160200191610e35565b820191906000526020600020905b815481529060010190602001808311610e1857829003601f168201915b505050919092525050815160208301516040840151606090940151919a9099509297509550909350505050565b828054610e6e90611217565b90600052602060002090601f016020900481019282610e905760008555610ed6565b82601f10610ea957805160ff1916838001178555610ed6565b82800160010185558215610ed6579182015b82811115610ed6578251825591602001919060010190610ebb565b50610ee2929150610ee6565b5090565b5b80821115610ee25760008155600101610ee7565b60005b83811015610f16578181015183820152602001610efe565b83811115610f25576000848401525b50505050565b60008151808452610f43816020860160208601610efb565b601f01601f19169290920160200192915050565b600082825180855260208086019550808260051b84010181860160005b84811015610fa257601f19868403018952610f90838351610f2b565b98840198925090830190600101610f74565b5090979650505050505050565b602081526000610fc26020830184610f57565b9392505050565b828152604060208201526000610fe26040830184610f57565b949350505050565b600060208284031215610ffc57600080fd5b5035919050565b602081526000610fc26020830184610f2b565b634e487b7160e01b600052604160045260246000fd5b600082601f83011261103d57600080fd5b813567ffffffffffffffff8082111561105857611058611016565b604051601f8301601f19908116603f0116810190828211818310171561108057611080611016565b8160405283815286602085880101111561109957600080fd5b836020870160208301376000602085830101528094505050505092915050565b6000602082840312156110cb57600080fd5b813567ffffffffffffffff8111156110e257600080fd5b610fe28482850161102c565b60a08152600061110160a0830188610f2b565b866020840152856040840152828103606084015261111f8186610f2b565b905082810360808401526111338185610f2b565b98975050505050505050565b600080600080600060a0868803121561115757600080fd5b853567ffffffffffffffff8082111561116f57600080fd5b61117b89838a0161102c565b96506020880135955060408801359450606088013591508082111561119f57600080fd5b6111ab89838a0161102c565b935060808801359150808211156111c157600080fd5b506111ce8882890161102c565b9150509295509295909350565b6080815260006111ee6080830187610f2b565b856020840152846040840152828103606084015261120c8185610f2b565b979650505050505050565b600181811c9082168061122b57607f821691505b6020821081141561124c57634e487b7160e01b600052602260045260246000fd5b50919050565b634e487b7160e01b600052603260045260246000fd5b6000825161127a818460208701610efb565b919091019291505056fea2646970667358221220bd0384dfd02591fc6481c778f29b4b155d23b3b66a9b471347553e93a96b488f64736f6c634300080b0033",
  "immutableReferences": {},
  "source": "// SPDX-License-Identifier: MIT\r\npragma solidity ^0.8.0;\r\n\r\ncontract EmployeeStorage {\r\n    // Employee data structure\r\n    struct Employee {\r\n        string recordId;          // HR-EMP-00101\r\n        uint256 createdTimestamp; // 2025-06-25T14:03:23.015Z converted to timestamp\r\n        uint256 modifiedTimestamp; // 2025-06-26T09:41:45.823Z converted to timestamp\r\n        string modifiedBy;        // danarikramtirta@gmail.com\r\n        string allData;           // Complete JSON string of all employee data\r\n    }\r\n    \r\n    // Mapping from employee record ID to employee data\r\n    mapping(string => Employee) public employees;\r\n    \r\n    // Array to store all employee record IDs for enumeration\r\n    string[] public employeeIds;\r\n    \r\n    // Mapping to check if employee exists\r\n    mapping(string => bool) public employeeExists;\r\n    \r\n    // Events\r\n    event EmployeeStored(string indexed recordId, uint256 createdTimestamp, uint256 modifiedTimestamp);\r\n    event EmployeeUpdated(string indexed recordId, uint256 modifiedTimestamp);\r\n    \r\n    // Store or update employee data\r\n    function storeEmployee(\r\n        string memory _recordId,\r\n        uint256 _createdTimestamp,\r\n        uint256 _modifiedTimestamp,\r\n        string memory _modifiedBy,\r\n        string memory _allData\r\n    ) public returns (bool) {\r\n        // Check if this is a new employee\r\n        bool isNewEmployee = !employeeExists[_recordId];\r\n        \r\n        // Store employee data\r\n        employees[_recordId] = Employee({\r\n            recordId: _recordId,\r\n            createdTimestamp: _createdTimestamp,\r\n            modifiedTimestamp: _modifiedTimestamp,\r\n            modifiedBy: _modifiedBy,\r\n            allData: _allData\r\n        });\r\n        \r\n        // If new employee, add to array and mark as existing\r\n        if (isNewEmployee) {\r\n            employeeIds.push(_recordId);\r\n            employeeExists[_recordId] = true;\r\n            emit EmployeeStored(_recordId, _createdTimestamp, _modifiedTimestamp);\r\n        } else {\r\n            emit EmployeeUpdated(_recordId, _modifiedTimestamp);\r\n        }\r\n        \r\n        return true;\r\n    }\r\n    \r\n    // Get employee data\r\n    function getEmployee(string memory _recordId) public view returns (\r\n        string memory recordId,\r\n        uint256 createdTimestamp,\r\n        uint256 modifiedTimestamp,\r\n        string memory modifiedBy,\r\n        string memory allData\r\n    ) {\r\n        require(employeeExists[_recordId], \"Employee does not exist\");\r\n        \r\n        Employee memory emp = employees[_recordId];\r\n        return (\r\n            emp.recordId,\r\n            emp.createdTimestamp,\r\n            emp.modifiedTimestamp,\r\n            emp.modifiedBy,\r\n            emp.allData\r\n        );\r\n    }\r\n    \r\n    // Get total number of employees\r\n    function getTotalEmployees() public view returns (uint256) {\r\n        return employeeIds.length;\r\n    }\r\n    \r\n    // Get employee record ID by index\r\n    function getEmployeeIdByIndex(uint256 _index) public view returns (string memory) {\r\n        require(_index < employeeIds.length, \"Index out of bounds\");\r\n        return employeeIds[_index];\r\n    }\r\n    \r\n    // Get all employee IDs\r\n    function getAllEmployeeIds() public view returns (string[] memory) {\r\n        return employeeIds;\r\n    }\r\n    \r\n    // Check if employee exists\r\n    function doesEmployeeExist(string memory _recordId) public view returns (bool) {\r\n        return employeeExists[_recordId];\r\n    }\r\n    \r\n    // Retrieve summary data (total employees and all IDs)\r\n    function retrieve() public view returns (\r\n        uint256 totalEmployees,\r\n        string[] memory allEmployeeIds\r\n    ) {\r\n        return (employeeIds.length, employeeIds);\r\n    }\r\n    \r\n    // Get employee metadata only (without full data)\r\n    function getEmployeeMetadata(string memory _recordId) public view returns (\r\n        string memory recordId,\r\n        uint256 createdTimestamp,\r\n        uint256 modifiedTimestamp,\r\n        string memory modifiedBy\r\n    ) {\r\n        require(employeeExists[_recordId], \"Employee does not exist\");\r\n        \r\n        Employee memory emp = employees[_recordId];\r\n        return (\r\n            emp.recordId,\r\n            emp.createdTimestamp,\r\n            emp.modifiedTimestamp,\r\n            emp.modifiedBy\r\n        );\r\n    }\r\n}",
  "sourcePath": "/home/danarit/Projects/blockchain-erp-integration/blockchain/API/contracts/ERPNext/EmployeeStorage.sol",
  "compiler": {
    "name": "solc",
    "version": "0.8.11+commit.d7f03943.Emscripten.clang"
  },
  "schemaVersion": "3.4.16",
  "updatedAt": "2025-12-21T15:57:42.506Z",
  "networkType": "ethereum",
  "devdoc": {
    "kind": "dev",
    "methods": {},
    "version": 1
  },
  "userdoc": {
    "kind": "user",
    "methods": {},
    "version": 1
  }
}