{
  "contractName": "UserStorage",
  "abi": [
    {
      "anonymous": false,
      "inputs": [
        {
          "indexed": true,
          "internalType": "string",
          "name": "recordId",
          "type": "string"
        },
        {
          "indexed": false,
          "internalType": "uint256",
          "name": "createdTimestamp",
          "type": "uint256"
        },
        {
          "indexed": false,
          "internalType": "uint256",
          "name": "modifiedTimestamp",
          "type": "uint256"
        }
      ],
      "name": "UserStored",
      "type": "event"
    },
    {
      "anonymous": false,
      "inputs": [
        {
          "indexed": true,
          "internalType": "string",
          "name": "recordId",
          "type": "string"
        },
        {
          "indexed": false,
          "internalType": "uint256",
          "name": "modifiedTimestamp",
          "type": "uint256"
        }
      ],
      "name": "UserUpdated",
      "type": "event"
    },
    {
      "inputs": [
        {
          "internalType": "string",
          "name": "",
          "type": "string"
        }
      ],
      "name": "userExists",
      "outputs": [
        {
          "internalType": "bool",
          "name": "",
          "type": "bool"
        }
      ],
      "stateMutability": "view",
      "type": "function",
      "constant": true
    },
    {
      "inputs": [
        {
          "internalType": "uint256",
          "name": "",
          "type": "uint256"
        }
      ],
      "name": "userIds",
      "outputs": [
        {
          "internalType": "string",
          "name": "",
          "type": "string"
        }
      ],
      "stateMutability": "view",
      "type": "function",
      "constant": true
    },
    {
      "inputs": [
        {
          "internalType": "string",
          "name": "",
          "type": "string"
        }
      ],
      "name": "users",
      "outputs": [
        {
          "internalType": "string",
          "name": "recordId",
          "type": "string"
        },
        {
          "internalType": "uint256",
          "name": "createdTimestamp",
          "type": "uint256"
        },
        {
          "internalType": "uint256",
          "name": "modifiedTimestamp",
          "type": "uint256"
        },
        {
          "internalType": "string",
          "name": "modifiedBy",
          "type": "string"
        },
        {
          "internalType": "string",
          "name": "allData",
          "type": "string"
        }
      ],
      "stateMutability": "view",
      "type": "function",
      "constant": true
    },
    {
      "inputs": [
        {
          "internalType": "string",
          "name": "_recordId",
          "type": "string"
        },
        {
          "internalType": "uint256",
          "name": "_createdTimestamp",
          "type": "uint256"
        },
        {
          "internalType": "uint256",
          "name": "_modifiedTimestamp",
          "type": "uint256"
        },
        {
          "internalType": "string",
          "name": "_modifiedBy",
          "type": "string"
        },
        {
          "internalType": "string",
          "name": "_allData",
          "type": "string"
        }
      ],
      "name": "storeUser",
      "outputs": [
        {
          "internalType": "bool",
          "name": "",
          "type": "bool"
        }
      ],
      "stateMutability": "nonpayable",
      "type": "function"
    },
    {
      "inputs": [
        {
          "internalType": "string",
          "name": "_recordId",
          "type": "string"
        }
      ],
      "name": "getUser",
      "outputs": [
        {
          "internalType": "string",
          "name": "recordId",
          "type": "string"
        },
        {
          "internalType": "uint256",
          "name": "createdTimestamp",
          "type": "uint256"
        },
        {
          "internalType": "uint256",
          "name": "modifiedTimestamp",
          "type": "uint256"
        },
        {
          "internalType": "string",
          "name": "modifiedBy",
          "type": "string"
        },
        {
          "internalType": "string",
          "name": "allData",
          "type": "string"
        }
      ],
      "stateMutability": "view",
      "type": "function",
      "constant": true
    },
    {
      "inputs": [],
      "name": "getTotalUsers",
      "outputs": [
        {
          "internalType": "uint256",
          "name": "",
          "type": "uint256"
        }
      ],
      "stateMutability": "view",
      "type": "function",
      "constant": true
    },
    {
      "inputs": [
        {
          "internalType": "uint256",
          "name": "_index",
          "type": "uint256"
        }
      ],
      "name": "getUserIdByIndex",
      "outputs": [
        {
          "internalType": "string",
          "name": "",
          "type": "string"
        }
      ],
      "stateMutability": "view",
      "type": "function",
      "constant": true
    },
    {
      "inputs": [],
      "name": "getAllUserIds",
      "outputs": [
        {
          "internalType": "string[]",
          "name": "",
          "type": "string[]"
        }
      ],
      "stateMutability": "view",
      "type": "function",
      "constant": true
    },
    {
      "inputs": [
        {
          "internalType": "string",
          "name": "_recordId",
          "type": "string"
        }
      ],
      "name": "doesUserExist",
      "outputs": [
        {
          "internalType": "bool",
          "name": "",
          "type": "bool"
        }
      ],
      "stateMutability": "view",
      "type": "function",
      "constant": true
    },
    {
      "inputs": [],
      "name": "retrieve",
      "outputs": [
        {
          "internalType": "uint256",
          "name": "totalUsers",
          "type": "uint256"
        },
        {
          "internalType": "string[]",
          "name": "allUserIds",
          "type": "string[]"
        }
      ],
      "stateMutability": "view",
      "type": "function",
      "constant": true
    },
    {
      "inputs": [
        {
          "internalType": "string",
          "name": "_recordId",
          "type": "string"
        }
      ],
      "name": "getUserMetadata",
      "outputs": [
        {
          "internalType": "string",
          "name": "recordId",
          "type": "string"
        },
        {
          "internalType": "uint256",
          "name": "createdTimestamp",
          "type": "uint256"
        },
        {
          "internalType": "uint256",
          "name": "modifiedTimestamp",
          "type": "uint256"
        },
        {
          "internalType": "string",
          "name": "modifiedBy",
          "type": "string"
        }
      ],
      "stateMutability": "view",
      "type": "function",
      "constant": true
    }
  ],
  "bytecode": "0x608060405234801561001057600080fd5b506112b2806100206000396000f3fe608060405234801561001057600080fd5b50600436106100a95760003560e01c8063689e1c0311610071578063689e1c031461014757806384cb7cec1461015a5780639be572f61461017d578063a750743e1461018e578063be4906c9146101a1578063fddc968e146101b657600080fd5b8063026281e3146100ae57806322757815146100da5780632e64cec1146100fa57806331feb671146101105780634635fd6814610134575b600080fd5b6100c16100bc366004610f96565b6101e4565b6040516100d1949392919061102f565b60405180910390f35b6100ed6100e836600461106b565b61046d565b6040516100d19190611084565b610102610564565b6040516100d19291906110f6565b61012361011e366004610f96565b61064b565b6040516100d195949392919061110f565b6100ed61014236600461106b565b6108d7565b610123610155366004610f96565b610983565b61016d610168366004610f96565b610b54565b60405190151581526020016100d1565b6001546040519081526020016100d1565b61016d61019c366004611160565b610b7f565b6101a9610d81565b6040516100d191906111fc565b61016d6101c4366004610f96565b805160208183018101805160028252928201919093012091525460ff1681565b606060008060606002856040516101fb919061120f565b9081526040519081900360200190205460ff166102555760405162461bcd60e51b8152602060048201526013602482015272155cd95c88191bd95cc81b9bdd08195e1a5cdd606a1b60448201526064015b60405180910390fd5b60008086604051610266919061120f565b90815260200160405180910390206040518060a001604052908160008201805461028f9061122b565b80601f01602080910402602001604051908101604052809291908181526020018280546102bb9061122b565b80156103085780601f106102dd57610100808354040283529160200191610308565b820191906000526020600020905b8154815290600101906020018083116102eb57829003601f168201915b5050505050815260200160018201548152602001600282015481526020016003820180546103359061122b565b80601f01602080910402602001604051908101604052809291908181526020018280546103619061122b565b80156103ae5780601f10610383576101008083540402835291602001916103ae565b820191906000526020600020905b81548152906001019060200180831161039157829003601f168201915b505050505081526020016004820180546103c79061122b565b80601f01602080910402602001604051908101604052809291908181526020018280546103f39061122b565b80156104405780601f1061041557610100808354040283529160200191610440565b820191906000526020600020905b81548152906001019060200180831161042357829003601f168201915b505050919092525050815160208301516040840151606090940151919a9099509297509550909350505050565b60015460609082106104b75760405162461bcd60e51b8152602060048201526013602482015272496e646578206f7574206f6620626f756e647360681b604482015260640161024c565b600182815481106104ca576104ca611266565b9060005260206000200180546104df9061122b565b80601f016020809104026020016040519081016040528092919081815260200182805461050b9061122b565b80156105585780601f1061052d57610100808354040283529160200191610558565b820191906000526020600020905b81548152906001019060200180831161053b57829003601f168201915b50505050509050919050565b60006060600180549050600180805480602002602001604051908101604052809291908181526020016000905b8282101561063d5783829060005260206000200180546105b09061122b565b80601f01602080910402602001604051908101604052809291908181526020018280546105dc9061122b565b80156106295780601f106105fe57610100808354040283529160200191610629565b820191906000526020600020905b81548152906001019060200180831161060c57829003601f168201915b505050505081526020019060010190610591565b505050509050915091509091565b6060600080606080600286604051610663919061120f565b9081526040519081900360200190205460ff166106b85760405162461bcd60e51b8152602060048201526013602482015272155cd95c88191bd95cc81b9bdd08195e1a5cdd606a1b604482015260640161024c565b600080876040516106c9919061120f565b90815260200160405180910390206040518060a00160405290816000820180546106f29061122b565b80601f016020809104026020016040519081016040528092919081815260200182805461071e9061122b565b801561076b5780601f106107405761010080835404028352916020019161076b565b820191906000526020600020905b81548152906001019060200180831161074e57829003601f168201915b5050505050815260200160018201548152602001600282015481526020016003820180546107989061122b565b80601f01602080910402602001604051908101604052809291908181526020018280546107c49061122b565b80156108115780601f106107e657610100808354040283529160200191610811565b820191906000526020600020905b8154815290600101906020018083116107f457829003601f168201915b5050505050815260200160048201805461082a9061122b565b80601f01602080910402602001604051908101604052809291908181526020018280546108569061122b565b80156108a35780601f10610878576101008083540402835291602001916108a3565b820191906000526020600020905b81548152906001019060200180831161088657829003601f168201915b5050509190925250508151602083015160408401516060850151608090950151929c919b5099509297509550909350505050565b600181815481106108e757600080fd5b9060005260206000200160009150905080546109029061122b565b80601f016020809104026020016040519081016040528092919081815260200182805461092e9061122b565b801561097b5780601f106109505761010080835404028352916020019161097b565b820191906000526020600020905b81548152906001019060200180831161095e57829003601f168201915b505050505081565b80516020818301810180516000825292820191909301209152805481906109a99061122b565b80601f01602080910402602001604051908101604052809291908181526020018280546109d59061122b565b8015610a225780601f106109f757610100808354040283529160200191610a22565b820191906000526020600020905b815481529060010190602001808311610a0557829003601f168201915b505050505090806001015490806002015490806003018054610a439061122b565b80601f0160208091040260200160405190810160405280929190818152602001828054610a6f9061122b565b8015610abc5780601f10610a9157610100808354040283529160200191610abc565b820191906000526020600020905b815481529060010190602001808311610a9f57829003601f168201915b505050505090806004018054610ad19061122b565b80601f0160208091040260200160405190810160405280929190818152602001828054610afd9061122b565b8015610b4a5780601f10610b1f57610100808354040283529160200191610b4a565b820191906000526020600020905b815481529060010190602001808311610b2d57829003601f168201915b5050505050905085565b6000600282604051610b66919061120f565b9081526040519081900360200190205460ff1692915050565b600080600287604051610b92919061120f565b908152602001604051809103902060009054906101000a900460ff161590506040518060a0016040528088815260200187815260200186815260200185815260200184815250600088604051610be8919061120f565b90815260200160405180910390206000820151816000019080519060200190610c12929190610e5a565b5060208281015160018301556040830151600283015560608301518051610c3f9260038501920190610e5a565b5060808201518051610c5b916004840191602090910190610e5a565b509050508015610d2b576001805480820182556000919091528751610ca7917fb10e2d527612073b26eecdfd717e6a320cf44b4afac2b0732d9fcbe2b7fa0cf6019060208a0190610e5a565b506001600288604051610cba919061120f565b908152604051908190036020018120805492151560ff1990931692909217909155610ce690889061120f565b6040805191829003822088835260208301889052917f882daee89756db851d77d9ddad4b154eddfd0c6859d3bd21c119262e7466b545910160405180910390a2610d74565b86604051610d39919061120f565b604051908190038120868252907fc73ed428307f6bb03acd9dd70c99a1063a78e98b9437c4d2b0391be33cdab02f9060200160405180910390a25b5060019695505050505050565b60606001805480602002602001604051908101604052809291908181526020016000905b82821015610e51578382906000526020600020018054610dc49061122b565b80601f0160208091040260200160405190810160405280929190818152602001828054610df09061122b565b8015610e3d5780601f10610e1257610100808354040283529160200191610e3d565b820191906000526020600020905b815481529060010190602001808311610e2057829003601f168201915b505050505081526020019060010190610da5565b50505050905090565b828054610e669061122b565b90600052602060002090601f016020900481019282610e885760008555610ece565b82601f10610ea157805160ff1916838001178555610ece565b82800160010185558215610ece579182015b82811115610ece578251825591602001919060010190610eb3565b50610eda929150610ede565b5090565b5b80821115610eda5760008155600101610edf565b634e487b7160e01b600052604160045260246000fd5b600082601f830112610f1a57600080fd5b813567ffffffffffffffff80821115610f3557610f35610ef3565b604051601f8301601f19908116603f01168101908282118183101715610f5d57610f5d610ef3565b81604052838152866020858801011115610f7657600080fd5b836020870160208301376000602085830101528094505050505092915050565b600060208284031215610fa857600080fd5b813567ffffffffffffffff811115610fbf57600080fd5b610fcb84828501610f09565b949350505050565b60005b83811015610fee578181015183820152602001610fd6565b83811115610ffd576000848401525b50505050565b6000815180845261101b816020860160208601610fd3565b601f01601f19169290920160200192915050565b6080815260006110426080830187611003565b85602084015284604084015282810360608401526110608185611003565b979650505050505050565b60006020828403121561107d57600080fd5b5035919050565b6020815260006110976020830184611003565b9392505050565b600082825180855260208086019550808260051b84010181860160005b848110156110e957601f198684030189526110d7838351611003565b988401989250908301906001016110bb565b5090979650505050505050565b828152604060208201526000610fcb604083018461109e565b60a08152600061112260a0830188611003565b86602084015285604084015282810360608401526111408186611003565b905082810360808401526111548185611003565b98975050505050505050565b600080600080600060a0868803121561117857600080fd5b853567ffffffffffffffff8082111561119057600080fd5b61119c89838a01610f09565b9650602088013595506040880135945060608801359150808211156111c057600080fd5b6111cc89838a01610f09565b935060808801359150808211156111e257600080fd5b506111ef88828901610f09565b9150509295509295909350565b602081526000611097602083018461109e565b60008251611221818460208701610fd3565b9190910192915050565b600181811c9082168061123f57607f821691505b6020821081141561126057634e487b7160e01b600052602260045260246000fd5b50919050565b634e487b7160e01b600052603260045260246000fdfea2646970667358221220a577797500e7b7dd31b6837f854911cbcbd66668034ad1512f41c7b84f88864e64736f6c634300080b0033",
  "immutableReferences": {},
  "source": "// SPDX-License-Identifier: MIT\r\npragma solidity ^0.8.0;\r\n\r\ncontract UserStorage {\r\n    // User data structure\r\n    struct User {\r\n        string recordId;          // User email or ID\r\n        uint256 createdTimestamp; // creation timestamp converted to unix\r\n        uint256 modifiedTimestamp; // modified timestamp converted to unix\r\n        string modifiedBy;        // Administrator or user email\r\n        string allData;           // Complete JSON string of all user data\r\n    }\r\n    \r\n    // Mapping from user record ID to user data\r\n    mapping(string => User) public users;\r\n    \r\n    // Array to store all user record IDs for enumeration\r\n    string[] public userIds;\r\n    \r\n    // Mapping to check if user exists\r\n    mapping(string => bool) public userExists;\r\n    \r\n    // Events\r\n    event UserStored(string indexed recordId, uint256 createdTimestamp, uint256 modifiedTimestamp);\r\n    event UserUpdated(string indexed recordId, uint256 modifiedTimestamp);\r\n    \r\n    // Store or update user data\r\n    function storeUser(\r\n        string memory _recordId,\r\n        uint256 _createdTimestamp,\r\n        uint256 _modifiedTimestamp,\r\n        string memory _modifiedBy,\r\n        string memory _allData\r\n    ) public returns (bool) {\r\n        // Check if this is a new user\r\n        bool isNewUser = !userExists[_recordId];\r\n        \r\n        // Store user data\r\n        users[_recordId] = User({\r\n            recordId: _recordId,\r\n            createdTimestamp: _createdTimestamp,\r\n            modifiedTimestamp: _modifiedTimestamp,\r\n            modifiedBy: _modifiedBy,\r\n            allData: _allData\r\n        });\r\n        \r\n        // If new user, add to array and mark as existing\r\n        if (isNewUser) {\r\n            userIds.push(_recordId);\r\n            userExists[_recordId] = true;\r\n            emit UserStored(_recordId, _createdTimestamp, _modifiedTimestamp);\r\n        } else {\r\n            emit UserUpdated(_recordId, _modifiedTimestamp);\r\n        }\r\n        \r\n        return true;\r\n    }\r\n    \r\n    // Get user data\r\n    function getUser(string memory _recordId) public view returns (\r\n        string memory recordId,\r\n        uint256 createdTimestamp,\r\n        uint256 modifiedTimestamp,\r\n        string memory modifiedBy,\r\n        string memory allData\r\n    ) {\r\n        require(userExists[_recordId], \"User does not exist\");\r\n        \r\n        User memory user = users[_recordId];\r\n        return (\r\n            user.recordId,\r\n            user.createdTimestamp,\r\n            user.modifiedTimestamp,\r\n            user.modifiedBy,\r\n            user.allData\r\n        );\r\n    }\r\n    \r\n    // Get total number of users\r\n    function getTotalUsers() public view returns (uint256) {\r\n        return userIds.length;\r\n    }\r\n    \r\n    // Get user record ID by index\r\n    function getUserIdByIndex(uint256 _index) public view returns (string memory) {\r\n        require(_index < userIds.length, \"Index out of bounds\");\r\n        return userIds[_index];\r\n    }\r\n    \r\n    // Get all user IDs\r\n    function getAllUserIds() public view returns (string[] memory) {\r\n        return userIds;\r\n    }\r\n    \r\n    // Check if user exists\r\n    function doesUserExist(string memory _recordId) public view returns (bool) {\r\n        return userExists[_recordId];\r\n    }\r\n    \r\n    // Retrieve summary data (total users and all IDs)\r\n    function retrieve() public view returns (\r\n        uint256 totalUsers,\r\n        string[] memory allUserIds\r\n    ) {\r\n        return (userIds.length, userIds);\r\n    }\r\n    \r\n    // Get user metadata only (without full data)\r\n    function getUserMetadata(string memory _recordId) public view returns (\r\n        string memory recordId,\r\n        uint256 createdTimestamp,\r\n        uint256 modifiedTimestamp,\r\n        string memory modifiedBy\r\n    ) {\r\n        require(userExists[_recordId], \"User does not exist\");\r\n        \r\n        User memory user = users[_recordId];\r\n        return (\r\n            user.recordId,\r\n            user.createdTimestamp,\r\n            user.modifiedTimestamp,\r\n            user.modifiedBy\r\n        );\r\n    }\r\n}",
  "sourcePath": "/home/danarit/Projects/blockchain-erp-integration/blockchain/API/contracts/ERPNext/UserStorage.sol",
  "compiler": {
    "name": "solc",
    "version": "0.8.11+commit.d7f03943.Emscripten.clang"
  },
  "schemaVersion": "3.4.16",
  "updatedAt": "2025-12-21T15:57:42.521Z",
  "networkType": "ethereum",
  "devdoc": {
    "kind": "dev",
    "methods": {},
    "version": 1
  },
  "userdoc": {
    "kind": "user",
    "methods": {},
    "version": 1
  }
}